:020000040800F2
:1000000000300020557700088977000889770008BC
:1000100089770008897700088977000800000000C8
:10002000000000000000000000000000095B000864
:100030008977000800000000AF5B00080F5C000833
:100040008977000889770008897700088977000890
:100050008977000889770008897700088977000880
:100060008977000889770008897700088977000870
:100070008977000889770008897700088977000860
:100080008977000889770008897700087D7800085B
:1000900081780008897700088D7700088977000843
:1000A0008977000889770008897700088977000830
:1000B0008977000889770008000000008977000828
:1000C0008977000800000000000000008977000820
:1000D0000000000089770008897700088977000808
:1000E0008977000889770008000000000000000000
:1000F0000000000000000000000000000000000000
:1001000000000000000000000000000000000000EF
:1001100000000000000000008977000889770008CF
:1001200000000000000000000000000000000000CF
:1001300000000000000000000000000000000000BF
:10014000897700088977000800000000000000009F
:10015000000000000000000000000000000000009F
:10016000000000000000000000000000000000008F
:10017000000000000000000000000000000000007F
:10018000000000008977000810B5054C237833B9CA
:10019000044B13B10448AFF300800123237010BD5A
:1001A000400200200000000074E20008084B10B577
:1001B0001BB108480849AFF300800848036803B939
:1001C00010BD074B002BFBD0BDE81040184700BF07
:1001D0000000000074E20008440200203802002001
:1001E00000000000154B002B08BF134B9D46A3F5E4
:1001F000803A00218B460F461348144A121A0AF01F
:10020000A7FE0F4B002B00D098470E4B002B00D0C1
:1002100098470020002104000D000D48002802D05E
:100220000C4807F0DAFF0AF0F5FD2000290008F07D
:100230000BF807F0CFFF00BF0000080000300020DF
:100240000000000039820008400200204415002010
:10025000DB8100080000000000B583B00190019B25
:10026000064A1A600023002B02D0019807F0C4FF51
:10027000019B184603B05DF804FB00BF80D5000861
:1002800082B00190019B034A1A60019B184602B09C
:10029000704700BF80D5000800B583B00190019B76
:1002A0001846FFF7EDFF019B064A1A60019B0433D5
:1002B0001846012100F07EF8019B184603B05DF856
:1002C00004FB00BFA0D5000882B00190202318468F
:1002D00002B0704700B585B0039002910192039B74
:1002E000043318460299019A00F0D2F805B05DF87F
:1002F00004FB00BF00B583B001900091019B043363
:100300001846009900F084F903B05DF804FB00BFC3
:1003100000B585B003900291019201200399029AE1
:10032000019B00F003FB05B05DF804FB00B583B052
:100330000190019B084A1A60019B1846FFF78CFF49
:100340000023002B02D0019807F056FF019B1846AE
:1003500003B05DF804FB00BFA0D5000800B583B072
:1003600001900198FFF7E2FF019807F045FF019B1C
:10037000184603B05DF804FB82B00190019B1A0E91
:10038000019B03F47F031B0A1A43019B03F47F4381
:100390001B021A43019B1B061343184602B0704709
:1003A00082B001900091019A009B62FA03F3184613
:1003B00002B0704782B001900B468DF80330019B6C
:1003C0009DF803201A70019B00225A62019B0022B3
:1003D00083F86820019B1B78002B02D0012B19D0D9
:1003E00031E01B4A019B5A601A4A019B9A601A4AE3
:1003F000019BDA60194A019B1A61194A019B5A61F3
:10040000184A019B9A61184A019BDA61174A019BBD
:100410001A6218E0164A019B5A60164A019B9A60BC
:10042000154A019BDA60154A019B1A61144A019B27
:100430005A61144A019B9A61134A019BDA61134A7B
:10044000019B1A6200BF019B184602B0704700BFB3
:10045000D89E05C107D57C3617DD703039590EF7A7
:10046000310BC0FF11155868A78FF964A44FFABE6D
:1004700067E6096A85AE67BB72F36E3C3AF54FA535
:100480007F520E518C68059BABD9831F19CDE05B61
:10049000F0B58DB0099008910792079A099B93F8DF
:1004A0006830C3F140039A421BDA099B93F8683025
:1004B0002833099A134418460899079A0AF03DFD13
:1004C000099B93F86820079BDBB21344DAB2099BBF
:1004D00083F86820099B5A6A079B1A44099B5A6251
:1004E00093E0099B93F86830C3F140030B93099B99
:1004F00093F868302833099A1A440B9B10460899E0
:100500001A460AF01AFD099B03F1040E099B03F138
:100510000807099B03F10C06099B03F11005099BD1
:1005200003F11404099B03F11800099B03F11C015A
:10053000099B03F12002099B28330094019002914A
:10054000039204937046394632462B4600F04CFB2A
:1005500032E0099B03F128010B9B089A13440846DB
:10056000194640220AF0E9FC099B03F1040E099B9D
:1005700003F10807099B03F10C06099B03F1100521
:10058000099B03F11404099B03F11800099B03F173
:100590001C01099B03F12002099B28330094019060
:1005A0000291039204937046394632462B4600F07E
:1005B0001BFB0B9B40330B930B9B079AD31A402BCF
:1005C000C7D8079A0B9B9A4202DA0B9B403B0B93CE
:1005D000079BDAB20B9BDBB2D31ADAB2099B83F822
:1005E0006820099B03F128010B9B089A1A44099B78
:1005F00093F86830084611461A460AF09EFC099B9B
:100600005A6A079B1A44099B5A620DB0F0BD00BF9D
:100610002DE9F0418EB007900691069B0C93079B45
:100620005B6A03F03F03372B0AD8079B5B6A9BB2D8
:1006300003F03F039BB2C3F13803ADF8363009E055
:10064000079B5B6A9BB203F03F039BB2C3F1780345
:10065000ADF83630079B93F868305A1CD1B2079A30
:1006600082F868101A46079B1344802283F82820DA
:10067000BDF83630013BADF83630BDF83630079A5C
:1006800092F868201344382B0DD1079B93F86830FB
:100690002833079A1A44BDF83630104600211A460E
:1006A0000AF056FC3BE0079B93F868302833079A22
:1006B0001A44079B93F86830C3F1400310460021A9
:1006C0001A460AF045FC079B03F10408079B03F157
:1006D000080C079B03F10C0E079B03F11007079B07
:1006E00003F11406079B03F11800079B03F11C019B
:1006F000079B03F12002079B28330096019002918B
:10070000039204934046614672463B4600F06CFA01
:10071000079B28331846002138220AF019FC079B52
:100720005B6ADB001A464FF00003CDE90A230A9BFF
:100730000993DDE90A231C00002523460893099B41
:100740001846FFF719FE03460993089B1846FFF762
:1007500013FE03460893079B03F1640209AB10469E
:10076000194604220AF0E9FB079B03F1600208AB7B
:100770001046194604220AF0E0FB079B03F1040E21
:10078000079B03F10807079B03F10C06079B03F186
:100790001005079B03F11404079B03F11800079B46
:1007A00003F11C01079B03F12002079B28330094EF
:1007B00001900291039204937046394632462B46CB
:1007C00000F012FA079B5B681846FFF7D5FD02465A
:1007D0000C9B1A600C9B1C1D079B9B681846FFF71F
:1007E000CBFD034623600C9B03F10804079BDB68E9
:1007F0001846FFF7C1FD034623600C9B03F10C0470
:10080000079B1B691846FFF7B7FD034623600C9B47
:1008100003F11004079B5B691846FFF7ADFD034623
:1008200023600C9B03F11404079B9B691846FFF798
:10083000A3FD034623600C9B03F11804079BDB69AF
:100840001846FFF799FD03462360079B1B78012B91
:1008500009D10C9B03F11C04079B1B6A1846FFF788
:100860008BFD03462360079B1B78002B02D0012BD6
:1008700019D031E01D4A079B5A601D4A079B9A60B8
:100880001C4A079BDA601C4A079B1A611B4A079B9C
:100890005A611B4A079B9A611A4A079BDA611A4AF6
:1008A000079B1A6218E0194A079B5A60184A079B6F
:1008B0009A60184A079BDA60174A079B1A61174A21
:1008C000079B5A61164A079B9A61164A079BDA6191
:1008D000154A079B1A6200BF079B00225A62079BBA
:1008E000002283F868200EB0BDE8F081D89E05C1D3
:1008F00007D57C3617DD703039590EF7310BC0FF44
:1009000011155868A78FF964A44FFABE67E6096A03
:1009100085AE67BB72F36E3C3AF54FA57F520E5120
:100920008C68059BABD9831F19CDE05B70B5A8B06F
:1009300008910792069303468DF82730089B26936B
:100940009DF82730DB00A74A52F823300A939DF820
:100950002730DB000133A34A52F823300B939DF874
:100960002730DB0002339F4A52F823300C939DF866
:100970002730DB0003339B4A52F823300D939DF858
:100980002730DB000433974A52F823300E939DF84A
:100990002730DB000533934A52F823300F939DF83C
:1009A0002730DB0006338F4A52F8233010939DF82E
:1009B0002730DB0007338B4A52F823301193069B14
:1009C000DB001A464FF00003CDE92423069B03F019
:1009D0003F03372B06D8069B03F03F03C3F13803D0
:1009E000279305E0069B03F03F03C3F178032793A9
:1009F0001FE00AA80AAB191D0AAB03F108020AABF3
:100A000003F10C060AAB103300930AAB14330193C5
:100A10000AAB183302930AAB1C330393079B04936E
:100A2000334600F0E1F8069B403B0693079B4033BA
:100A30000793069B3F2BDCD812AB18460799069A02
:100A40000AF07BFA069B5A1C069228AA13448022BD
:100A500003F8582C279B013B2793279A069B1344A6
:100A6000382B08D112AA069B134418460021279A56
:100A70000AF06EFA2AE012AA069B1A44069BC3F1FA
:100A80004003104600211A460AF062FA0AA80AAB8F
:100A9000191D0AAB03F108020AAB03F10C060AABFD
:100AA000103300930AAB143301930AAB183302934B
:100AB0000AAB1C33039312AB0493334600F094F853
:100AC00012AB1846002138220AF042FA249B2393E5
:100AD000DDE924231C00002523462293239B18468E
:100AE000FFF74AFC0346239312AB03F13C0223AB0E
:100AF0001046194604220AF020FA229B1846FFF7F6
:100B00003BFC0346229312AB03F1380222AB1046A2
:100B1000194604220AF011FA0AA80AAB191D0AABF9
:100B200003F108020AAB03F10C040AAB1033009383
:100B30000AAB143301930AAB183302930AAB1C338C
:100B4000039312AB0493234600F04EF80A9B184619
:100B5000FFF712FC0246269B1A60269B1C1D0B9B6E
:100B60001846FFF709FC03462360269B03F108049F
:100B70000C9B1846FFF700FC03462360269B03F1FD
:100B80000C040D9B1846FFF7F7FB03462360269BDA
:100B900003F110040E9B1846FFF7EEFB034623609B
:100BA000269B03F114040F9B1846FFF7E5FB034651
:100BB0002360269B03F11804109B1846FFF7DCFB0B
:100BC000034623609DF82730012B08D1269B03F1B3
:100BD0001C04119B1846FFF7CFFB0346236028B087
:100BE00070BD00BFB4D5000870B5A0B003900291ED
:100BF00001920093289B1F93039B1B681E93029BEB
:100C00001B681D93019B1B681C93009B1B681B9317
:100C1000249B1B681A93259B1B681993269B1B68B2
:100C20001893279B1B6817931A980621FFF7B8FBA8
:100C300004461A980B21FFF7B3FB03465C401A9851
:100C40001921FFF7ADFB034684EA0302179B1A4400
:100C50001A99199B19401A9BD843189B03404B4083
:100C6000D4181F9B1B681846FFF786FB03460593A5
:100C7000059BE218B84B134416931E980221FFF708
:100C80008FFB04461E980D21FFF78AFB03465C404C
:100C90001E981621FFF784FB034684EA03021E997F
:100CA0001D9B19401E981C9B034059401D981C9B7E
:100CB00003404B40134415931B9A169B13441B93FC
:100CC000169A159B134417931B980621FFF768FB90
:100CD00004461B980B21FFF763FB03465C401B98FF
:100CE0001921FFF75DFB034684EA0302189B1A44AF
:100CF0001B991A9B19401B9BD843199B03404B40DF
:100D0000D4181F9B04331B681846FFF735FB0346B6
:100D10000693069BE218914B1344169317980221F1
:100D2000FFF73EFB044617980D21FFF739FB0346FA
:100D30005C4017981621FFF733FB034684EA030251
:100D400017991E9B194017981D9B034059401E98E8
:100D50001D9B03404B40134415931C9A169B134450
:100D60001C93169A159B134418931C980621FFF7A1
:100D700017FB04461C980B21FFF712FB03465C404F
:100D80001C981921FFF70CFB034684EA0302199B08
:100D90001A441C991B9B19401C9BD8431A9B034067
:100DA0004B40D4181F9B08331B681846FFF7E4FA22
:100DB00003460793079BE218694B13441693189850
:100DC0000221FFF7EDFA044618980D21FFF7E8FA23
:100DD00003465C4018981621FFF7E2FA034684EABE
:100DE00003021899179B194018981E9B03405940FD
:100DF00017981E9B03404B40134415931D9A169B56
:100E000013441D93169A159B134419931D9806219C
:100E1000FFF7C6FA04461D980B21FFF7C1FA0346F7
:100E20005C401D981921FFF7BBFA034684EA0302D0
:100E30001A9B1A441D991C9B19401D9BD8431B9B50
:100E400003404B40D4181F9B0C331B681846FFF718
:100E500093FA03460893089BE218424B13441693F7
:100E600019980221FFF79CFA044619980D21FFF703
:100E700097FA03465C4019981621FFF791FA03464A
:100E800084EA03021999189B19401998179B03408B
:100E900059401898179B03404B40134415931E9AD2
:100EA000169B13441E93169A159B13441A931E986F
:100EB0000621FFF775FA04461E980B21FFF770FA1A
:100EC00003465C401E981921FFF76AFA034684EA3C
:100ED00003021B9B1A441E991D9B19401E9BD8435D
:100EE0001C9B03404B40D4181F9B10331B681846B3
:100EF000FFF742FA03460993099BE2181A4B134481
:100F000016931A980221FFF74BFA04461A980D21FE
:100F1000FFF746FA03465C401A981621FFF740FA9D
:100F2000034684EA03021A99199B19401A98189BE0
:100F3000034059401998189B03404B4013441593A4
:100F4000179A169B13441793169A159B13441B93D9
:100F5000179806210AE000BF982F8A429144377102
:100F6000CFFBC0B5A5DBB5E95BC25639FFF718FA70
:100F7000044617980B21FFF713FA03465C401798B5
:100F80001921FFF70DFA034684EA03021C9B1A4459
:100F900017991E9B1940179BD8431D9B03404B403C
:100FA000D4181F9B14331B681846FFF7E5F9034656
:100FB0000A930A9BE218B84B134416931B9802211C
:100FC000FFF7EEF904461B980D21FFF7E9F90346F8
:100FD0005C401B981621FFF7E3F9034684EA0302FD
:100FE0001B991A9B19401B98199B034059401A984A
:100FF000199B03404B4013441593189A169B1344B6
:101000001893169A159B13441C9318980621FFF702
:10101000C7F9044618980B21FFF7C2F903465C4054
:1010200018981921FFF7BCF9034684EA03021D9BB7
:101030001A441899179B1940189BD8431E9B0340CC
:101040004B40D4181F9B18331B681846FFF794F9C0
:1010500003460B930B9BE218904B134416931C987A
:101060000221FFF79DF904461C980D21FFF798F91E
:1010700003465C401C981621FFF792F9034684EA68
:1010800003021C991B9B19401C981A9B0340594052
:101090001B981A9B03404B4013441593199A169BB7
:1010A00013441993169A159B13441D9319980621FE
:1010B000FFF776F9044619980B21FFF771F90346FB
:1010C0005C4019981921FFF76BF9034684EA030283
:1010D0001E9B1A441999189B1940199BD843179BBA
:1010E00003404B40D4181F9B1C331B681846FFF766
:1010F00043F903460C930C9BE218694B1344169377
:101100001D980221FFF74CF904461D980D21FFF7A9
:1011100047F903465C401D981621FFF741F9034645
:1011200084EA03021D991C9B19401D981B9B0340D8
:1011300059401C981B9B03404B40134415931A9A2B
:10114000169B13441A93169A159B13441E931A98D0
:101150000621FFF725F904461A980B21FFF720F91D
:1011600003465C401A981921FFF71AF9034684EAEE
:101170000302179B1A441A99199B19401A9BD843CA
:10118000189B03404B40D4181F9B20331B68184604
:10119000FFF7F2F803460D930D9BE218414B134401
:1011A00016931E980221FFF7FBF804461E980D21A6
:1011B000FFF7F6F803465C401E981621FFF7F0F89B
:1011C000034684EA03021E991D9B19401E981C9B2E
:1011D000034059401D981C9B03404B4013441593FA
:1011E0001B9A169B13441B93169A159B1344179333
:1011F0001B980621FFF7D4F804461B980B21FFF734
:10120000CFF803465C401B981921FFF7C9F8034645
:1012100084EA0302189B1A441B991A9B19401B9BD2
:10122000D843199B03404B40D4181F9B24331B68A1
:101230001846FFF7A1F803460E930E9BE2181A4BCF
:101240001344169317980221FFF7AAF8044617983B
:101250000D21FFF7A5F803465C4017981621FFF70C
:101260009FF8034684EA030217991E9B19401798BA
:101270001D9B034059401E981D9B03404B40134447
:1012800015931C9A169B13441C93169A159B134492
:1012900018931C98062109E0F111F159A4823F929C
:1012A000D55E1CAB98AA07D8015B8312FFF778F8CC
:1012B00004461C980B21FFF773F803465C401C980A
:1012C0001921FFF76DF8034684EA0302199B1A44BB
:1012D0001C991B9B19401C9BD8431A9B03404B40F5
:1012E000D4181F9B28331B681846FFF745F80346A0
:1012F0000F930F9BE218B84B1344169318980221D2
:10130000FFF74EF8044618980D21FFF749F80346F9
:101310005C4018981621FFF743F8034684EA03025D
:101320001899179B194018981E9B0340594017980D
:101330001E9B03404B40134415931D9A169B134468
:101340001D93169A159B134419931D980621FFF7B8
:1013500027F804461D980B21FFF722F803465C404E
:101360001D981921FFF71CF8034684EA03021A9B13
:101370001A441D991C9B19401D9BD8431B9B03407D
:101380004B40D4181F9B2C331B681846FEF7F4FF04
:1013900003461093109BE218904B13441693199830
:1013A0000221FEF7FDFF044619980D21FEF7F8FF14
:1013B00003465C4019981621FEF7F2FF034684EAC3
:1013C00003021999189B19401998179B034059401B
:1013D0001898179B03404B40134415931E9A169B75
:1013E00013441E93169A159B13441A931E980621B4
:1013F000FEF7D6FF04461E980B21FEF7D1FF0346E9
:101400005C401E981921FEF7CBFF034684EA0302D5
:101410001B9B1A441E991D9B19401E9BD8431C9B65
:1014200003404B40D4181F9B30331B681846FEF70F
:10143000A3FF03461193119BE218694B13441693C3
:101440001A980221FEF7ACFF04461A980D21FEF708
:10145000A7FF03465C401A981621FEF7A1FF03463A
:1014600084EA03021A99199B19401A98189B0340A1
:1014700059401998189B03404B4013441593179AF1
:10148000169B13441793169A159B13441B93179896
:101490000621FEF785FF044617980B21FEF780FF13
:1014A00003465C4017981921FEF77AFF034684EA49
:1014B00003021C9B1A4417991E9B1940179BD84383
:1014C0001D9B03404B40D4181F9B34331B681846A8
:1014D000FEF752FF03461293129BE218414B13444E
:1014E00016931B980221FEF75BFF04461B980D2103
:1014F000FEF756FF03465C401B981621FEF750FF8F
:10150000034684EA03021B991A9B19401B98199BF6
:10151000034059401A98199B03404B4013441593BC
:10152000189A169B13441893169A159B13441C93F0
:1015300018980621FEF734FF044618980B21FEF791
:101540002FFF03465C4018981921FEF729FF034638
:1015500084EA03021D9B1A441899179B1940189B93
:10156000D8431E9B03404B40D4181F9B38331B6845
:101570001846FEF701FF03461393139BE2181A4B1C
:10158000134416931C980221FEF70AFF04461C9888
:101590000D21FEF705FF03465C401C981621FEF75F
:1015A000FFFE034684EA03021C991B9B19401C980A
:1015B0001A9B034059401B981A9B03404B4013440D
:1015C0001593199A169B13441993169A159B134455
:1015D0001D931998062109E0BE853124C37D0C5561
:1015E000745DBE72FEB1DE80A706DC9BFEF7D8FEFE
:1015F000044619980B21FEF7D3FE03465C40199868
:101600001921FEF7CDFE034684EA03021E9B1A440D
:101610001999189B1940199BD843179B03404B40BD
:10162000D4181F9B3C331B681846FEF7A5FE0346E3
:101630001493149BE218BF4B134416931D98022178
:10164000FEF7AEFE04461D980D21FEF7A9FE0346E7
:101650005C401D981621FEF7A3FE034684EA0302B0
:101660001D991C9B19401D981B9B034059401C98B9
:101670001B9B03404B40134415931A9A169B13442B
:101680001A93169A159B13441E931A980621FEF777
:1016900087FE04461A980B21FEF782FE03465C4043
:1016A0001A981921FEF77CFE034684EA0302179B71
:1016B0001A441A99199B19401A9BD843189B034046
:1016C0004B40D418139B18461121FEF769FE0546BE
:1016D000139B18461321FEF763FE034685EA0302B7
:1016E000139B9B0A5A400E9BD518069B1846072150
:1016F000FEF756FE0646069B18461221FEF750FEE0
:10170000034686EA0302069BDB085340EA18059B62
:1017100013440593059BE218874B134416931E98B8
:101720000221FEF73DFE04461E980D21FEF738FE0D
:1017300003465C401E981621FEF732FE034684EAFB
:1017400003021E991D9B19401E981C9B0340594083
:101750001D981C9B03404B40134415931B9A169BEA
:1017600013441B93169A159B134417931B98062139
:10177000FEF716FE04461B980B21FEF711FE0346EA
:101780005C401B981921FEF70BFE034684EA030216
:10179000189B1A441B991A9B19401B9BD843199BF1
:1017A00003404B40D418149B18461121FEF7F8FD56
:1017B0000546149B18461321FEF7F2FD034685EA01
:1017C0000302149B9B0A5A400F9BD518079B18468F
:1017D0000721FEF7E5FD0646079B18461221FEF796
:1017E000DFFD034686EA0302079BDB085340EA1845
:1017F000069B13440693069BE218504B1344169322
:1018000017980221FEF7CCFD044617980D21FEF72C
:10181000C7FD03465C4017981621FEF7C1FD03463D
:1018200084EA030217991E9B194017981D9B0340D9
:1018300059401E981D9B03404B40134415931C9A1E
:10184000169B13441C93169A159B134418931C98CB
:101850000621FEF7A5FD04461C980B21FEF7A0FD0E
:1018600003465C401C981921FEF79AFD034684EA62
:101870000302199B1A441C991B9B19401C9BD843BB
:101880001A9B03404B40D418059B18461121FEF7C4
:1018900087FD0546059B18461321FEF781FD03468B
:1018A00085EA0302059B9B0A5A40109BD518089BAA
:1018B00018460721FEF774FD0646089B18461221BC
:1018C000FEF76EFD034686EA0302089BDB085340E1
:1018D000EA18079B13440793079BE218184B13441D
:1018E000169318980221FEF75BFD044618980D2107
:1018F000FEF756FD03465C4018981621FEF750FD92
:10190000034684EA03021899179B194018981E9BF6
:101910000340594017981E9B03404B4013441593B6
:101920001D9A169B13441D93169A159B13441993E5
:1019300008E000BF74F19BC1C1699BE48647BEEF1C
:10194000C69DC10F1D980621FEF72AFD04461D986D
:101950000B21FEF725FD03465C401D981921FEF77B
:101960001FFD034684EA03021A9B1A441D991C9B1F
:1019700019401D9BD8431B9B03404B40D418069B2A
:1019800018461121FEF70CFD0546069B184613214B
:10199000FEF706FD034685EA0302069B9B0A5A40B2
:1019A000119BD518099B18460721FEF7F9FC06463E
:1019B000099B18461221FEF7F3FC034686EA030250
:1019C000099BDB085340EA18089B13440893089BC3
:1019D000E218BF4B1344169319980221FEF7E0FC5E
:1019E000044619980D21FEF7DBFC03465C4019986C
:1019F0001621FEF7D5FC034684EA03021999189BC9
:101A000019401998179B034059401898179B034099
:101A10004B40134415931E9A169B13441E93169A1B
:101A2000159B13441A931E980621FEF7B9FC044631
:101A30001E980B21FEF7B4FC03465C401E9819214A
:101A4000FEF7AEFC034684EA03021B9B1A441E9970
:101A50001D9B19401E9BD8431C9B03404B40D41830
:101A6000079B18461121FEF79BFC0546079B18466D
:101A70001321FEF795FC034685EA0302079B9B0AA8
:101A80005A40129BD5180A9B18460721FEF788FC7E
:101A900006460A9B18461221FEF782FC034686EA98
:101AA00003020A9BDB085340EA18099B134409937D
:101AB000099BE218874B134416931A980221FEF7EC
:101AC0006FFC04461A980D21FEF76AFC03465C4041
:101AD0001A981621FEF764FC034684EA03021A9959
:101AE000199B19401A98189B034059401998189B44
:101AF00003404B4013441593179A169B13441793B6
:101B0000169A159B13441B9317980621FEF748FC61
:101B1000044617980B21FEF743FC03465C401798D8
:101B20001921FEF73DFC034684EA03021C9B1A447C
:101B300017991E9B1940179BD8431D9B03404B4090
:101B4000D418089B18461121FEF72AFC0546089B6D
:101B500018461321FEF724FC034685EA0302089B7E
:101B60009B0A5A40139BD5180B9B18460721FEF77A
:101B700017FC06460B9B18461221FEF711FC034684
:101B800086EA03020B9BDB085340EA180A9B1344C6
:101B90000A930A9BE218504B134416931B98022198
:101BA000FEF7FEFB04461B980D21FEF7F9FB0346EA
:101BB0005C401B981621FEF7F3FB034684EA030200
:101BC0001B991A9B19401B98199B034059401A985E
:101BD000199B03404B4013441593189A169B1344CA
:101BE0001893169A159B13441C9318980621FEF718
:101BF000D7FB044618980B21FEF7D2FB03465C4046
:101C000018981921FEF7CCFB034684EA03021D9BBA
:101C10001A441899179B1940189BD8431E9B0340E0
:101C20004B40D418099B18461121FEF7B9FB054615
:101C3000099B18461321FEF7B3FB034685EA03020E
:101C4000099B9B0A5A40149BD5180C9B18460721E8
:101C5000FEF7A6FB06460C9B18461221FEF7A0FBDA
:101C6000034686EA03020C9BDB085340EA180B9BF1
:101C700013440B930B9BE218184B134416931C98B8
:101C80000221FEF78DFB04461C980D21FEF788FB10
:101C900003465C401C981621FEF782FB034684EA4B
:101CA00003021C991B9B19401C981A9B0340594026
:101CB0001B981A9B03404B4013441593199A169B8B
:101CC00013441993169A159B13441D9308E000BF03
:101CD000CCA10C246F2CE92DAA84744ADCA9B05C39
:101CE00019980621FEF75CFB044619980B21FEF7B4
:101CF00057FB03465C4019981921FEF751FB034638
:101D000084EA03021E9B1A441999189B1940199BD7
:101D1000D843179B03404B40D4180A9B1846112107
:101D2000FEF73EFB05460A9B18461321FEF738FBDB
:101D3000034685EA03020A9B9B0A5A40059BD51875
:101D40000D9B18460721FEF72BFB06460D9B1846F8
:101D50001221FEF725FB034686EA03020D9BDB08F2
:101D60005340EA180C9B13440C930C9BE218BF4B96
:101D7000134416931D980221FEF712FB04461D988A
:101D80000D21FEF70DFB03465C401D981621FEF762
:101D900007FB034684EA03021D991C9B19401D980A
:101DA0001B9B034059401C981B9B03404B40134412
:101DB00015931A9A169B13441A93169A159B13445B
:101DC0001E931A980621FEF7EBFA04461A980B2187
:101DD000FEF7E6FA03465C401A981921FEF7E0FA8E
:101DE000034684EA0302179B1A441A99199B194067
:101DF0001A9BD843189B03404B40D4180B9B1846A2
:101E00001121FEF7CDFA05460B9B18461321FEF76C
:101E1000C7FA034685EA03020B9B9B0A5A40069BBE
:101E2000D5180E9B18460721FEF7BAFA06460E9BF8
:101E300018461221FEF7B4FA034686EA03020E9B07
:101E4000DB085340EA180D9B13440D930D9BE218D9
:101E5000874B134416931E980221FEF7A1FA0446FD
:101E60001E980D21FEF79CFA03465C401E98162131
:101E7000FEF796FA034684EA03021E991D9B194059
:101E80001E981C9B034059401D981C9B03404B40CF
:101E9000134415931B9A169B13441B93169A159B78
:101EA000134417931B980621FEF77AFA04461B98F1
:101EB0000B21FEF775FA03465C401B981921FEF7CB
:101EC0006FFA034684EA0302189B1A441B991A9B73
:101ED00019401B9BD843199B03404B40D4180C9BC3
:101EE00018461121FEF75CFA05460C9B1846132193
:101EF000FEF756FA034685EA03020C9B9B0A5A40FA
:101F0000079BD5180F9B18460721FEF749FA06468E
:101F10000F9B18461221FEF743FA034686EA030296
:101F20000F9BDB085340EA180E9B13440E930E9B45
:101F3000E218504B1344169317980221FEF730FA1B
:101F4000044617980D21FEF72BFA03465C401798BC
:101F50001621FEF725FA034684EA030217991E9B11
:101F6000194017981D9B034059401E981D9B034024
:101F70004B40134415931C9A169B13441C93169ABA
:101F8000159B134418931C980621FEF709FA044682
:101F90001C980B21FEF704FA03465C401C9819219B
:101FA000FEF7FEF9034684EA0302199B1A441C99C2
:101FB0001B9B19401C9BD8431A9B03404B40D418D1
:101FC0000D9B18461121FEF7EBF905460D9B1846AF
:101FD0001321FEF7E5F9034685EA03020D9B9B0AF0
:101FE0005A40089BD518109B18460721FEF7D8F9D0
:101FF0000646109B18461221FEF7D2F9034686EAE0
:102000000302109BDB085340EA180F9B13440F9305
:102010000F9BE218184B1344169318980221FEF7F1
:10202000BFF9044618980D21FEF7BAF903465C4043
:1020300018981621FEF7B4F9034684EA03021899AA
:10204000179B194018981E9B0340594017981E9BD8
:1020500003404B40134415931D9A169B13441D9344
:10206000169A159B1344199308E000BFDA88F97695
:1020700052513E986DC631A8C82703B01D9806215D
:10208000FEF78EF904461D980B21FEF789F90346E9
:102090005C401D981921FEF783F9034684EA030288
:1020A0001A9B1A441D991C9B19401D9BD8431B9BCE
:1020B00003404B40D4180E9B18461121FEF770F9CF
:1020C00005460E9B18461321FEF76AF9034685EA7A
:1020D00003020E9B9B0A5A40099BD518119B184678
:1020E0000721FEF75DF90646119B18461221FEF7FF
:1020F00057F9034686EA0302119BDB085340EA18AE
:10210000109B13441093109BE218BF4B134416937B
:1021100019980221FEF744F9044619980D21FEF79B
:102120003FF903465C4019981621FEF739F903463A
:1021300084EA03021999189B19401998179B0340C8
:1021400059401898179B03404B40134415931E9A0F
:10215000169B13441E93169A159B13441A931E98AC
:102160000621FEF71DF904461E980B21FEF718F90B
:1021700003465C401E981921FEF712F9034684EAD3
:1021800003021B9B1A441E991D9B19401E9BD8439A
:102190001C9B03404B40D4180F9B18461121FEF79F
:1021A000FFF805460F9B18461321FEF7F9F8034682
:1021B00085EA03020F9B9B0A5A400A9BD518129B83
:1021C00018460721FEF7ECF80646129B1846122126
:1021D000FEF7E6F8034686EA0302129BDB0853404B
:1021E000EA18119B13441193119BE218874B134477
:1021F00016931A980221FEF7D3F804461A980D2177
:10220000FEF7CEF803465C401A981621FEF7C8F890
:10221000034684EA03021A99199B19401A98189BDD
:10222000034059401998189B03404B4013441593A1
:10223000179A169B13441793169A159B13441B93D6
:1022400017980621FEF7ACF8044617980B21FEF705
:10225000A7F803465C4017981921FEF7A1F803463A
:1022600084EA03021C9B1A4417991E9B1940179B72
:10227000D8431D9B03404B40D418109B1846112196
:10228000FEF78EF80546109B18461321FEF788F8D6
:10229000034685EA0302109B9B0A5A400B9BD51804
:1022A000139B18460721FEF77BF80646139B18463A
:1022B0001221FEF775F8034686EA0302139BDB083A
:1022C0005340EA18129B13441293129BE218504B8E
:1022D000134416931B980221FEF762F804461B98DC
:1022E0000D21FEF75DF803465C401B981621FEF7B2
:1022F00057F8034684EA03021B991A9B19401B985E
:10230000199B034059401A98199B03404B401344B2
:102310001593189A169B13441893169A159B1344F9
:102320001C9318980621FEF73BF8044618980B21D9
:10233000FEF736F803465C4018981921FEF730F88E
:10234000034684EA03021D9B1A441899179B1940FF
:10235000189BD8431E9B03404B40D418119B184632
:102360001121FEF71DF80546119B18461321FEF7B3
:1023700017F8034685EA0302119B9B0A5A400C9BFF
:10238000D518149B18460721FEF70AF80646149B39
:1023900018461221FEF704F8034686EA0302149B4E
:1023A000DB085340EA18139B13441393139BE21862
:1023B000184B134416931C980221FDF7F1FF0446B5
:1023C0001C980D21FDF7ECFF03465C401C9816217C
:1023D000FDF7E6FF034684EA03021C991B9B1940A4
:1023E0001C981A9B034059401B981A9B03404B4072
:1023F00013441593199A169B13441993169A159B17
:1024000013441D9308E000BFC77F59BFF30BE0C61C
:102410004791A7D55163CA0619980621FDF7C0FF59
:10242000044619980B21FDF7BBFF03465C40199841
:102430001921FDF7B5FF034684EA03021E9B1A44E7
:102440001999189B1940199BD843179B03404B407F
:10245000D418129B18461121FDF7A2FF0546129BC6
:1024600018461321FDF79CFF034685EA0302129BE1
:102470009B0A5A400D9BD518059B18460721FDF76E
:102480008FFF0646059B18461221FDF789FF03467C
:1024900086EA0302059BDB085340EA18149B1344A9
:1024A0001493149BE218BF4B134416931D980221FA
:1024B000FDF776FF04461D980D21FDF771FF0346D9
:1024C0005C401D981621FDF76BFF034684EA03026A
:1024D0001D991C9B19401D981B9B034059401C983B
:1024E0001B9B03404B40134415931A9A169B1344AD
:1024F0001A93169A159B13441E931A980621FDF7FA
:102500004FFF04461A980B21FDF74AFF03465C4033
:102510001A981921FDF744FF034684EA0302179B2A
:102520001A441A99199B19401A9BD843189B0340C7
:102530004B40D418139B18461121FDF731FF054677
:10254000139B18461321FDF72BFF034685EA030270
:10255000139B9B0A5A400E9BD518069B18460721D1
:10256000FDF71EFF0646069B18461221FDF718FFD1
:10257000034686EA0302069BDB085340EA18059BE4
:1025800013440593059BE218874B134416931E983A
:102590000221FDF705FF04461E980D21FDF700FFFF
:1025A00003465C401E981621FDF7FAFE034684EAB6
:1025B00003021E991D9B19401E981C9B0340594005
:1025C0001D981C9B03404B40134415931B9A169B6C
:1025D00013441B93169A159B134417931B980621BB
:1025E000FDF7DEFE04461B980B21FDF7D9FE0346DE
:1025F0005C401B981921FDF7D3FE034684EA0302D1
:10260000189B1A441B991A9B19401B9BD843199B72
:1026100003404B40D418149B18461121FDF7C0FE0F
:102620000546149B18461321FDF7BAFE034685EABA
:102630000302149B9B0A5A400F9BD518079B184610
:102640000721FDF7ADFE0646079B18461221FDF750
:10265000A7FE034686EA0302079BDB085340EA18FD
:10266000069B13440693069BE218504B13441693A3
:1026700017980221FDF794FE044617980D21FDF7E7
:102680008FFE03465C4017981621FDF789FE03462E
:1026900084EA030217991E9B194017981D9B03405B
:1026A00059401E981D9B03404B40134415931C9AA0
:1026B000169B13441C93169A159B134418931C984D
:1026C0000621FDF76DFE04461C980B21FDF768FE00
:1026D00003465C401C981921FDF762FE034684EA1C
:1026E0000302199B1A441C991B9B19401C9BD8433D
:1026F0001A9B03404B40D418059B18461121FDF747
:102700004FFE0546059B18461321FDF749FE03467B
:1027100085EA0302059B9B0A5A40109BD518089B2B
:1027200018460721FDF73CFE0646089B1846122175
:10273000FDF736FE034686EA0302089BDB0853409A
:10274000EA18079B13440793079BE218184B13449E
:10275000169318980221FDF723FE044618980D21C0
:10276000FDF71EFE03465C4018981621FDF718FE83
:10277000034684EA03021899179B194018981E9B78
:102780000340594017981E9B03404B401344159338
:102790001D9A169B13441D93169A159B1344199367
:1027A00008E000BF67292914850AB72738211B2EA6
:1027B000FC6D2C4D1D980621FDF7F2FD04461D9879
:1027C0000B21FDF7EDFD03465C401D981921FDF737
:1027D000E7FD034684EA03021A9B1A441D991C9BD9
:1027E00019401D9BD8431B9B03404B40D418069BAC
:1027F00018461121FDF7D4FD0546069B1846132106
:10280000FDF7CEFD034685EA0302069B9B0A5A406C
:10281000119BD518099B18460721FDF7C1FD0646F7
:10282000099B18461221FDF7BBFD034686EA030209
:10283000099BDB085340EA18089B13440893089B44
:10284000E218BF4B1344169319980221FDF7A8FD17
:10285000044619980D21FDF7A3FD03465C40199825
:102860001621FDF79DFD034684EA03021999189B82
:1028700019401998179B034059401898179B03401B
:102880004B40134415931E9A169B13441E93169A9D
:10289000159B13441A931E980621FDF781FD0446EB
:1028A0001E980B21FDF77CFD03465C401E98192104
:1028B000FDF776FD034684EA03021B9B1A441E992A
:1028C0001D9B19401E9BD8431C9B03404B40D418B2
:1028D000079B18461121FDF763FD0546079B184627
:1028E0001321FDF75DFD034685EA0302079B9B0A62
:1028F0005A40129BD5180A9B18460721FDF750FD38
:1029000006460A9B18461221FDF74AFD034686EA51
:1029100003020A9BDB085340EA18099B13440993FE
:10292000099BE218874B134416931A980221FDF76E
:1029300037FD04461A980D21FDF732FD03465C4031
:102940001A981621FDF72CFD034684EA03021A9912
:10295000199B19401A98189B034059401998189BC5
:1029600003404B4013441593179A169B1344179337
:10297000169A159B13441B9317980621FDF710FD1B
:10298000044617980B21FDF70BFD03465C40179892
:102990001921FDF705FD034684EA03021C9B1A4436
:1029A00017991E9B1940179BD8431D9B03404B4012
:1029B000D418089B18461121FDF7F2FC0546089B28
:1029C00018461321FDF7ECFC034685EA0302089B39
:1029D0009B0A5A40139BD5180B9B18460721FDF7FD
:1029E000DFFC06460B9B18461221FDF7D9FC034677
:1029F00086EA03020B9BDB085340EA180A9B134448
:102A00000A930A9BE218504B134416931B98022119
:102A1000FDF7C6FC04461B980D21FDF7C1FC0346DB
:102A20005C401B981621FDF7BBFC034684EA0302B9
:102A30001B991A9B19401B98199B034059401A98DF
:102A4000199B03404B4013441593189A169B13444B
:102A50001893169A159B13441C9318980621FDF79A
:102A60009FFC044618980B21FDF79AFC03465C4036
:102A700018981921FDF794FC034684EA03021D9B74
:102A80001A441899179B1940189BD8431E9B034062
:102A90004B40D418099B18461121FDF781FC0546CF
:102AA000099B18461321FDF77BFC034685EA0302C8
:102AB000099B9B0A5A40149BD5180C9B184607216A
:102AC000FDF76EFC06460C9B18461221FDF768FCCC
:102AD000034686EA03020C9BDB085340EA180B9B73
:102AE00013440B930B9BE218184B134416931C983A
:102AF0000221FDF755FC04461C980D21FDF750FC02
:102B000003465C401C981621FDF74AFC034684EA04
:102B100003021C991B9B19401C981A9B03405940A7
:102B20001B981A9B03404B4013441593199A169B0C
:102B300013441993169A159B13441D9308E000BF84
:102B4000130D385354730A65BB0A6A762EC9C281C5
:102B500019980621FDF724FC044619980B21FDF76E
:102B60001FFC03465C4019981921FDF719FC034628
:102B700084EA03021E9B1A441999189B1940199B59
:102B8000D843179B03404B40D4180A9B1846112189
:102B9000FDF706FC05460A9B18461321FDF700FCCD
:102BA000034685EA03020A9B9B0A5A40059BD518F7
:102BB0000D9B18460721FDF7F3FB06460D9B1846B3
:102BC0001221FDF7EDFB034686EA03020D9BDB08AD
:102BD0005340EA180C9B13440C930C9BE218BF4B18
:102BE000134416931D980221FDF7DAFB04461D9845
:102BF0000D21FDF7D5FB03465C401D981621FDF71E
:102C0000CFFB034684EA03021D991C9B19401D98C3
:102C10001B9B034059401C981B9B03404B40134493
:102C200015931A9A169B13441A93169A159B1344DC
:102C30001E931A980621FDF7B3FB04461A980B2140
:102C4000FDF7AEFB03465C401A981921FDF7A8FB7F
:102C5000034684EA0302179B1A441A99199B1940E8
:102C60001A9BD843189B03404B40D4180B9B184623
:102C70001121FDF795FB05460B9B18461321FDF727
:102C80008FFB034685EA03020B9B9B0A5A40069B77
:102C9000D5180E9B18460721FDF782FB06460E9BB2
:102CA00018461221FDF77CFB034686EA03020E9BC1
:102CB000DB085340EA180D9B13440D930D9BE2185B
:102CC000874B134416931E980221FDF769FB0446B7
:102CD0001E980D21FDF764FB03465C401E981621EB
:102CE000FDF75EFB034684EA03021E991D9B194013
:102CF0001E981C9B034059401D981C9B03404B4051
:102D0000134415931B9A169B13441B93169A159BF9
:102D1000134417931B980621FDF742FB04461B98AA
:102D20000B21FDF73DFB03465C401B981921FDF785
:102D300037FB034684EA0302189B1A441B991A9B2B
:102D400019401B9BD843199B03404B40D4180C9B44
:102D500018461121FDF724FB05460C9B184613214C
:102D6000FDF71EFB034685EA03020C9B9B0A5A40B3
:102D7000079BD5180F9B18460721FDF711FB064648
:102D80000F9B18461221FDF70BFB034686EA030250
:102D90000F9BDB085340EA180E9B13440E930E9BC7
:102DA000E218504B1344169317980221FDF7F8FAD6
:102DB000044617980D21FDF7F3FA03465C40179877
:102DC0001621FDF7EDFA034684EA030217991E9BCC
:102DD000194017981D9B034059401E981D9B0340A6
:102DE0004B40134415931C9A169B13441C93169A3C
:102DF000159B134418931C980621FDF7D1FA04463D
:102E00001C980B21FDF7CCFA03465C401C98192155
:102E1000FDF7C6FA034684EA0302199B1A441C997B
:102E20001B9B19401C9BD8431A9B03404B40D41852
:102E30000D9B18461121FDF7B3FA05460D9B184668
:102E40001321FDF7ADFA034685EA03020D9B9B0AA9
:102E50005A40089BD518109B18460721FDF7A0FA89
:102E60000646109B18461221FDF79AFA034686EA99
:102E70000302109BDB085340EA180F9B13440F9387
:102E80000F9BE218184B1344169318980221FDF774
:102E900087FA044618980D21FDF782FA03465C4034
:102EA00018981621FDF77CFA034684EA0302189964
:102EB000179B194018981E9B0340594017981E9B5A
:102EC00003404B40134415931D9A169B13441D93C6
:102ED000169A159B1344199308E000BF852C729233
:102EE000A1E8BFA24B661AA8708B4BC21D980621A1
:102EF000FDF756FA04461D980B21FDF751FA0346DB
:102F00005C401D981921FDF74BFA034684EA030241
:102F10001A9B1A441D991C9B19401D9BD8431B9B4F
:102F200003404B40D4180E9B18461121FDF738FA88
:102F300005460E9B18461321FDF732FA034685EA33
:102F400003020E9B9B0A5A40099BD518119B1846F9
:102F50000721FDF725FA0646119B18461221FDF7B9
:102F60001FFA034686EA0302119BDB085340EA1866
:102F7000109B13441093109BE218BF4B13441693FD
:102F800019980221FDF70CFA044619980D21FDF756
:102F900007FA03465C4019981621FDF701FA03462B
:102FA00084EA03021999189B19401998179B03404A
:102FB00059401898179B03404B40134415931E9A91
:102FC000169B13441E93169A159B13441A931E982E
:102FD0000621FDF7E5F904461E980B21FDF7E0F9FF
:102FE00003465C401E981921FDF7DAF9034684EA8E
:102FF00003021B9B1A441E991D9B19401E9BD8431C
:103000001C9B03404B40D4180F9B18461121FDF721
:10301000C7F905460F9B18461321FDF7C1F9034672
:1030200085EA03020F9B9B0A5A400A9BD518129B04
:1030300018460721FDF7B4F90646129B18461221DF
:10304000FDF7AEF9034686EA0302129BDB08534004
:10305000EA18119B13441193119BE218874B1344F8
:1030600016931A980221FDF79BF904461A980D2130
:10307000FDF796F903465C401A981621FDF790F982
:10308000034684EA03021A99199B19401A98189B5F
:10309000034059401998189B03404B401344159323
:1030A000179A169B13441793169A159B13441B9358
:1030B00017980621FDF774F9044617980B21FDF7C0
:1030C0006FF903465C4017981921FDF769F903462B
:1030D00084EA03021C9B1A4417991E9B1940179BF4
:1030E000D8431D9B03404B40D418109B1846112118
:1030F000FDF756F90546109B18461321FDF750F9C8
:10310000034685EA0302109B9B0A5A400B9BD51885
:10311000139B18460721FDF743F90646139B1846F3
:103120001221FDF73DF9034686EA0302139BDB08F3
:103130005340EA18129B13441293129BE218504B0F
:10314000134416931B980221FDF72AF904461B9895
:103150000D21FDF725F903465C401B981621FDF76C
:103160001FF9034684EA03021B991A9B19401B9816
:10317000199B034059401A98199B03404B40134434
:103180001593189A169B13441893169A159B13447B
:103190001C9318980621FDF703F9044618980B2193
:1031A000FDF7FEF803465C4018981921FDF7F8F882
:1031B000034684EA03021D9B1A441899179B194081
:1031C000189BD8431E9B03404B40D418119B1846B4
:1031D0001121FDF7E5F80546119B18461321FDF76F
:1031E000DFF8034685EA0302119B9B0A5A400C9BB9
:1031F000D518149B18460721FDF7D2F80646149BF4
:1032000018461221FDF7CCF8034686EA0302149B08
:10321000DB085340EA18139B13441393139BE218E3
:10322000184B134416931C980221FDF7B9F8044675
:103230001C980D21FDF7B4F803465C401C9816213C
:10324000FDF7AEF8034684EA03021C991B9B194064
:103250001C981A9B034059401B981A9B03404B40F3
:1032600013441593199A169B13441993169A159B98
:1032700013441D9308E000BFA3516CC719E892D115
:10328000240699D685350EF419980621FDF788F89D
:10329000044619980B21FDF783F803465C40199802
:1032A0001921FDF77DF8034684EA03021E9B1A44A8
:1032B0001999189B1940199BD843179B03404B4001
:1032C000D418129B18461121FDF76AF80546129B87
:1032D00018461321FDF764F8034685EA0302129BA2
:1032E0009B0A5A400D9BD518059B18460721FDF7F0
:1032F00057F80646059B18461221FDF751F803467C
:1033000086EA0302059BDB085340EA18149B13442A
:103310001493149BE218BF4B134416931D9802217B
:10332000FDF73EF804461D980D21FDF739F80346D8
:103330005C401D981621FDF733F8034684EA03022A
:103340001D991C9B19401D981B9B034059401C98BC
:103350001B9B03404B40134415931A9A169B13442E
:103360001A93169A159B13441E931A980621FDF77B
:1033700017F804461A980B21FDF712F803465C4033
:103380001A981921FDF70CF8034684EA0302179BEB
:103390001A441A99199B19401A9BD843189B034049
:1033A0004B40D418139B18461121FCF7F9FF054632
:1033B000139B18461321FCF7F3FF034685EA03022B
:1033C000139B9B0A5A400E9BD518069B1846072153
:1033D000FCF7E6FF0646069B18461221FCF7E0FFC5
:1033E000034686EA0302069BDB085340EA18059B66
:1033F00013440593059BE218874B134416931E98BC
:103400000221FCF7CDFF04461E980D21FCF7C8FFF2
:1034100003465C401E981621FCF7C2FF034684EA6F
:1034200003021E991D9B19401E981C9B0340594086
:103430001D981C9B03404B40134415931B9A169BED
:1034400013441B93169A159B134417931B9806213C
:10345000FCF7A6FF04461B980B21FCF7A1FF0346CF
:103460005C401B981921FCF79BFF034684EA03028A
:10347000189B1A441B991A9B19401B9BD843199BF4
:1034800003404B40D418149B18461121FCF788FFC9
:103490000546149B18461321FCF782FF034685EA74
:1034A0000302149B9B0A5A400F9BD518079B184692
:1034B0000721FCF775FF0646079B18461221FCF70B
:1034C0006FFF034686EA0302079BDB085340EA18B6
:1034D000069B13440693069BE218504B1344169325
:1034E00017980221FCF75CFF044617980D21FCF7A2
:1034F00057FF03465C4017981621FCF751FF03461F
:1035000084EA030217991E9B194017981D9B0340DC
:1035100059401E981D9B03404B40134415931C9A21
:10352000169B13441C93169A159B134418931C98CE
:103530000621FCF735FF04461C980B21FCF730FFF1
:1035400003465C401C981921FCF72AFF034684EAD5
:103550000302199B1A441C991B9B19401C9BD843BE
:103560001A9B03404B40D418059B18461121FCF7C9
:1035700017FF0546059B18461321FCF711FF03466C
:1035800085EA0302059B9B0A5A40109BD518089BAD
:1035900018460721FCF704FF0646089B184612212F
:1035A000FCF7FEFE034686EA0302089BDB08534055
:1035B000EA18079B13440793079BE218184B134420
:1035C000169318980221FCF7EBFE044618980D217B
:1035D000FCF7E6FE03465C4018981621FCF7E0FE77
:1035E000034684EA03021899179B194018981E9BFA
:1035F0000340594017981E9B03404B4013441593BA
:103600001D9A169B13441D93169A159B13441993E8
:1036100008E000BF70A06A1016C1A419086C371E1C
:103620004C7748271D980621FCF7BAFE04461D98E2
:103630000B21FCF7B5FE03465C401D981921FCF7F1
:10364000AFFE034684EA03021A9B1A441D991C9B91
:1036500019401D9BD8431B9B03404B40D418069B2D
:1036600018461121FCF79CFE0546069B18461321BF
:10367000FCF796FE034685EA0302069B9B0A5A4026
:10368000119BD518099B18460721FCF789FE0646B1
:10369000099B18461221FCF783FE034686EA0302C3
:1036A000099BDB085340EA18089B13440893089BC6
:1036B000E218BF4B1344169319980221FCF770FED1
:1036C000044619980D21FCF76BFE03465C401998DF
:1036D0001621FCF765FE034684EA03021999189B3C
:1036E00019401998179B034059401898179B03409D
:1036F0004B40134415931E9A169B13441E93169A1F
:10370000159B13441A931E980621FCF749FE0446A4
:103710001E980B21FCF744FE03465C401E981921BD
:10372000FCF73EFE034684EA03021B9B1A441E99E3
:103730001D9B19401E9BD8431C9B03404B40D41833
:10374000079B18461121FCF72BFE0546079B1846E0
:103750001321FCF725FE034685EA0302079B9B0A1B
:103760005A40129BD5180A9B18460721FCF718FEF1
:1037700006460A9B18461221FCF712FE034686EA0B
:1037800003020A9BDB085340EA18099B1344099380
:10379000099BE218874B134416931A980221FCF7F1
:1037A000FFFD04461A980D21FCF7FAFD03465C4024
:1037B0001A981621FCF7F4FD034684EA03021A99CD
:1037C000199B19401A98189B034059401998189B47
:1037D00003404B4013441593179A169B13441793B9
:1037E000169A159B13441B9317980621FCF7D8FDD6
:1037F000044617980B21FCF7D3FD03465C4017984D
:103800001921FCF7CDFD034684EA03021C9B1A44F0
:1038100017991E9B1940179BD8431D9B03404B4093
:10382000D418089B18461121FCF7BAFD0546089BE1
:1038300018461321FCF7B4FD034685EA0302089BF2
:103840009B0A5A40139BD5180B9B18460721FCF77F
:10385000A7FD06460B9B18461221FCF7A1FD034667
:1038600086EA03020B9BDB085340EA180A9B1344C9
:103870000A930A9BE218504B134416931B9802219B
:10388000FCF78EFD04461B980D21FCF789FD0346CD
:103890005C401B981621FCF783FD034684EA030273
:1038A0001B991A9B19401B98199B034059401A9861
:1038B000199B03404B4013441593189A169B1344CD
:1038C0001893169A159B13441C9318980621FCF71D
:1038D00067FD044618980B21FCF762FD03465C4027
:1038E00018981921FCF75CFD034684EA03021D9B2E
:1038F0001A441899179B1940189BD8431E9B0340E4
:103900004B40D418099B18461121FCF749FD054688
:10391000099B18461321FCF743FD034685EA030281
:10392000099B9B0A5A40149BD5180C9B18460721EB
:10393000FCF736FD06460C9B18461221FCF730FDBD
:10394000034686EA03020C9BDB085340EA180B9BF4
:1039500013440B930B9BE218184B134416931C98BB
:103960000221FCF71DFD04461C980D21FCF718FDF3
:1039700003465C401C981621FCF712FD034684EABE
:1039800003021C991B9B19401C981A9B0340594029
:103990001B981A9B03404B4013441593199A169B8E
:1039A00013441993169A159B13441D9308E000BF06
:1039B000B5BCB034B30C1C394AAAD84E4FCA9C5B74
:1039C00019980621FCF7ECFC044619980B21FCF72A
:1039D000E7FC03465C4019981921FCF7E1FC03461B
:1039E00084EA03021E9B1A441999189B1940199BDB
:1039F000D843179B03404B40D4180A9B184611210B
:103A0000FCF7CEFC05460A9B18461321FCF7C8FCC0
:103A1000034685EA03020A9B9B0A5A40059BD51878
:103A20000D9B18460721FCF7BBFC06460D9B18466C
:103A30001221FCF7B5FC034686EA03020D9BDB0866
:103A40005340EA180C9B13440C930C9BE218BF4B99
:103A5000134416931D980221FCF7A2FC04461D98FE
:103A60000D21FCF79DFC03465C401D981621FCF7D8
:103A700097FC034684EA03021D991C9B19401D987C
:103A80001B9B034059401C981B9B03404B40134415
:103A900015931A9A169B13441A93169A159B13445E
:103AA0001E931A980621FCF77BFC04461A980B21FA
:103AB000FCF776FC03465C401A981921FCF770FC71
:103AC000034684EA0302179B1A441A99199B19406A
:103AD0001A9BD843189B03404B40D4180B9B1846A5
:103AE0001121FCF75DFC05460B9B18461321FCF7E2
:103AF00057FC034685EA03020B9B9B0A5A40069B30
:103B0000D5180E9B18460721FCF74AFC06460E9B6B
:103B100018461221FCF744FC034686EA03020E9B7A
:103B2000DB085340EA180D9B13440D930D9BE218DC
:103B3000874B134416931E980221FCF731FC044670
:103B40001E980D21FCF72CFC03465C401E981621A4
:103B5000FCF726FC034684EA03021E991D9B1940CC
:103B60001E981C9B034059401D981C9B03404B40D2
:103B7000134415931B9A169B13441B93169A159B7B
:103B8000134417931B980621FCF70AFC04461B9864
:103B90000B21FCF705FC03465C401B981921FCF740
:103BA000FFFB034684EA0302189B1A441B991A9BE5
:103BB00019401B9BD843199B03404B40D4180C9BC6
:103BC00018461121FCF7ECFB05460C9B1846132107
:103BD000FCF7E6FB034685EA03020C9B9B0A5A406E
:103BE000079BD5180F9B18460721FCF7D9FB064603
:103BF0000F9B18461221FCF7D3FB034686EA03020B
:103C00000F9BDB085340EA180E9B13440E930E9B48
:103C1000E218504B1344169317980221FCF7C0FB8F
:103C2000044617980D21FCF7BBFB03465C40179830
:103C30001621FCF7B5FB034684EA030217991E9B85
:103C4000194017981D9B034059401E981D9B034027
:103C50004B40134415931C9A169B13441C93169ABD
:103C6000159B134418931C980621FCF799FB0446F6
:103C70001C980B21FCF794FB03465C401C9819210F
:103C8000FCF78EFB034684EA0302199B1A441C9935
:103C90001B9B19401C9BD8431A9B03404B40D418D4
:103CA0000D9B18461121FCF77BFB05460D9B184622
:103CB0001321FCF775FB034685EA03020D9B9B0A63
:103CC0005A40089BD518109B18460721FCF768FB43
:103CD0000646109B18461221FCF762FB034686EA53
:103CE0000302109BDB085340EA180F9B13440F9309
:103CF0000F9BE218184B1344169318980221FCF7F7
:103D00004FFB044618980D21FCF74AFB03465C4024
:103D100018981621FCF744FB034684EA030218991D
:103D2000179B194018981E9B0340594017981E9BDB
:103D300003404B40134415931D9A169B13441D9347
:103D4000169A159B1344199308E000BFF36F2E6871
:103D5000EE828F746F63A5781478C8841D9806214D
:103D6000FCF71EFB04461D980B21FCF719FB0346CC
:103D70005C401D981921FCF713FB034684EA0302FB
:103D80001A9B1A441D991C9B19401D9BD8431B9BD1
:103D900003404B40D4180E9B18461121FCF700FB42
:103DA00005460E9B18461321FCF7FAFA034685EAEE
:103DB00003020E9B9B0A5A40099BD518119B18467B
:103DC0000721FCF7EDFA0646119B18461221FCF775
:103DD000E7FA034686EA0302119BDB085340EA1820
:103DE000109B13441093109BE218BF4B134416937F
:103DF00019980221FCF7D4FA044619980D21FCF712
:103E0000CFFA03465C4019981621FCF7C9FA03461D
:103E100084EA03021999189B19401998179B0340CB
:103E200059401898179B03404B40134415931E9A12
:103E3000169B13441E93169A159B13441A931E98AF
:103E40000621FCF7ADFA04461E980B21FCF7A8FAF0
:103E500003465C401E981921FCF7A2FA034684EA47
:103E600003021B9B1A441E991D9B19401E9BD8439D
:103E70001C9B03404B40D4180F9B18461121FCF7A4
:103E80008FFA05460F9B18461321FCF789FA034663
:103E900085EA03020F9B9B0A5A400A9BD518129B86
:103EA00018460721FCF77CFA0646129B1846122199
:103EB000FCF776FA034686EA0302129BDB085340BE
:103EC000EA18119B13441193119BE218874B13447A
:103ED00016931A980221FCF763FA04461A980D21EA
:103EE000FCF75EFA03465C401A981621FCF758FA74
:103EF000034684EA03021A99199B19401A98189BE1
:103F0000034059401998189B03404B4013441593A4
:103F1000179A169B13441793169A159B13441B93D9
:103F200017980621FCF73CFA044617980B21FCF77A
:103F300037FA03465C4017981921FCF731FA03461B
:103F400084EA03021C9B1A4417991E9B1940179B75
:103F5000D8431D9B03404B40D418109B1846112199
:103F6000FCF71EFA0546109B18461321FCF718FAB9
:103F7000034685EA0302109B9B0A5A400B9BD51807
:103F8000139B18460721FCF70BFA0646139B1846AD
:103F90001221FCF705FA034686EA0302139BDB08AD
:103FA0005340EA18129B13441293129BE218504B91
:103FB000134416931B980221FCF7F2F904461B9850
:103FC0000D21FCF7EDF903465C401B981621FCF728
:103FD000E7F9034684EA03021B991A9B19401B98D0
:103FE000199B034059401A98199B03404B401344B6
:103FF0001593189A169B13441893169A159B1344FD
:104000001C9318980621FCF7CBF9044618980B214D
:10401000FCF7C6F903465C4018981921FCF7C0F973
:10402000034684EA03021D9B1A441899179B194002
:10403000189BD8431E9B03404B40D418119B184635
:104040001121FCF7ADF90546119B18461321FCF729
:10405000A7F9034685EA0302119B9B0A5A400C9B71
:10406000D518149B18460721FCF79AF90646149BAD
:1040700018461221FCF794F9034686EA0302149BC2
:10408000DB085340EA18139B13441393139BE21865
:10409000184B134416931C980221FCF781F904462F
:1040A0001C980D21FCF77CF903465C401C981621F6
:1040B000FCF776F9034684EA03021C991B9B19401E
:1040C0001C981A9B034059401B981A9B03404B4075
:1040D00013441593199A169B13441993169A159B1A
:1040E00013441D9308E000BF0802C78CFAFFBE907E
:1040F000EB6C50A4F7A3F9BE19980621FCF750F910
:10410000044619980B21FCF74BF903465C401998BB
:104110001921FCF745F9034684EA03021E9B1A4461
:104120001999189B1940199BD843179B03404B4082
:10413000D418129B18461121FCF732F90546129B40
:1041400018461321FCF72CF9034685EA0302129B5B
:104150009B0A5A400D9BD518059B18460721FCF772
:104160001FF90646059B18461221FCF719F903466C
:1041700086EA0302059BDB085340EA18149B1344AC
:104180001493149BE2182E4B134416931D9802218E
:10419000FCF706F904461D980D21FCF701F90346CA
:1041A0005C401D981621FCF7FBF8034684EA0302E5
:1041B0001D991C9B19401D981B9B034059401C983E
:1041C0001B9B03404B40134415931A9A169B1344B0
:1041D0001A93169A159B13441E93039B1A681E9BF1
:1041E0001A44039B1A60029B1A681D9B1A44029B87
:1041F0001A60019B1A681C9B1A44019B1A60009B61
:104200001A681B9B1A44009B1A60249B1A681A9B0D
:104210001A44249B1A60259B1A68199B1A44259BF3
:104220001A60269B1A68189B1A44269B1A60279BC3
:104230001A68179B1A44279B1A6020B070BD00BFF4
:10424000F27871C682B00190019B002BB8BF5B422F
:10425000184602B0704700BF82B001900091009BE9
:10426000002B05D0019B9B68019A12681A6004E03C
:10427000019BDB68019A12681A6002B0704700BFA8
:1042800000B583B001900B46ADF80230019B0022CF
:104290001A60019B00225A60019B00229A60019BD8
:1042A0000022DA60019B00221A82019B00225A61DF
:1042B000019B00229A61019ABDF90230104619460D
:1042C00005F0B4FF019B184603B05DF804FB00BF86
:1042D00000B583B001900091019B18460099FFF74B
:1042E000BBFF03B05DF804FB00B583B00190009103
:1042F00001980099FFF7ECFF019B184603B05DF8A9
:1043000004FB00BF82B001900091009B184602B0F0
:10431000704700BF00B583B001900B46ADF8023086
:10432000019B00221A7606F045FB019ABDF9023086
:104330001046194604F0ACF906F068FB019B1846DC
:1043400003B05DF804FB00BF00B583B0019006F038
:1043500031FB019800F028F806F058FB019B184645
:1043600003B05DF804FB00BF00B583B0019000917D
:1043700006F020FB019B1846009904F0E3F806F0D4
:1043800045FB03B05DF804FB00B583B001900091DC
:1043900006F010FB019B1846009904F015FA06F090
:1043A00035FB03B05DF804FB00B583B00190019BC1
:1043B0001B7E002B04D006F0E9F8019B00221A7640
:1043C00003B05DF804FB00BF00B583B00190019B12
:1043D000184605F031FF019800F01CFE019B084AC9
:1043E0001A60019B28331846002100F019FE019B3A
:1043F000012283F83820019B184603B05DF804FBC6
:10440000ECDE000800B585B003900291CDE90023F1
:1044100006F0D0FA039B2833184600F043FE03460B
:1044200083F00103DBB2002B06D0039B93F83830F6
:10443000002B01D0012300E00023002B01D006F067
:104440008BF8039B28331846029900F037FE039837
:10445000DDE9002305F035FF06F0D8FA05B05DF878
:1044600004FB00BF00B585B00390019200930B469A
:10447000ADF80A30039B104A1A60039B04331846B8
:10448000002100F0CDFD039B30331846002101F0E0
:10449000ADF8039B4033184601F03CF8BDF90A30F3
:1044A00003981946019A009B01F0EAF8039B18460D
:1044B00005B05DF804FB00BFD0D7000800B5A5B07B
:1044C0006B461846484900F0ABFD6B464748194615
:1044D00001F0F6F86B46184600F0BAFD04AB18463A
:1044E000434900F09DFD04AB4248194601F0E8F84D
:1044F00004AB184600F0ACFD3F4B1B68184600F0BB
:104500004DFB00F09BFA03461A463C4B1A7008AB71
:1045100018463B4900F084FD08AB3A48194605F0BF
:104520008CFC08AB184600F093FD0CAB18463449E0
:1045300000F076FD0CAB3348194605F0A4FC0CAB3B
:10454000184600F085FD10AB18462D4900F068FDB7
:1045500010AB2D48194605F070FC10AB184600F062
:1045600077FD14AB1846264900F05AFD14AB2648D7
:10457000194605F088FC14AB184600F069FD18AB2D
:1045800018461F4900F04CFD18AB2048194605F0AD
:1045900054FC18AB184600F05BFD1CAB18461849DC
:1045A00000F03EFD1CAB1948194605F06CFC1CAB35
:1045B000184600F04DFD20AB1846154900F030FDBF
:1045C00020AB1448194601F07BF820AB184600F0E8
:1045D0003FFD6320012100F04FFB00F0B1FC002300
:1045E000184625B05DF804FB394C00081004002083
:1045F000DD4C000868040020900100201805002010
:104600001946000878020020C80200201803002084
:10461000E1460008C004002000B583B000F0EEFAC7
:1046200003468DF807309DF90720274B1B785BB2B6
:10463000D21A264B1B785BB213449A1D244B83FB82
:104640000231D317C91A0B465B000B445B00D11A29
:10465000CAB2204BD3ED007AFCEEE77A53B218468B
:1046600017EE901A00F000FA9DF907201A4B1B78FC
:104670005BB2D31A052B05D1184B1B68013B174AB7
:10468000136019E09DF90720134B1B785BB2D31A16
:1046900013F1050F05D1114B1B6801330F4A13604D
:1046A0000AE09DF907200C4B1B785BB2D21A0B4B2A
:1046B0001B681344094A1360074A9DF807301370BA
:1046C00003B05DF804FB00BF180500208C0100203A
:1046D000ABAAAA2A1C050020F40600202005002011
:1046E000F0B52DED028BB3B0002320934FF0000303
:1046F0002D934FF000032C934FF000032B9310AB3E
:104700001846FFF761FE21AB1846BF4900F088FC50
:1047100010AA21AB10461946BC4A4FF00003FFF720
:1047200071FE21AB184600F093FC6B46184605F06D
:1047300088FE6B46184605F024FE08AB184605F0C7
:1047400080FE08AB184605F01CFE00238DF8C33030
:104750004FF000032A934FF000032993AC4B1B68E2
:104760002F9300232E93AB484FF0FF3100F0F8FE5B
:10477000A94B1B682093A74800F002FF25AB184601
:1047800001214FF0FF3201F05BF8A44B1B68289326
:10479000289B07EE903AB8EEE78A6B46184605F07C
:1047A0002FFE07EE900AC8EE277ACDED2D7A6B46E4
:1047B000184605F035FEDDED2D7AF5EE407AF1EE86
:1047C00010FA09D1924B1B681846FFF73BFD0346D0
:1047D000002B01DD012300E00023002B03D0FFF7B5
:1047E0001BFF00232E938A4B1A68289BD31A884AF2
:1047F00013608B4B1B68184607F0B2FF04460D464A
:10480000209B184607F0ACFF06460F462D9807F090
:10481000B9FF02460B461046194606F069F90246F2
:104820000B463046394607F04DFE02460B46204601
:10483000294607F0FBFF02460B4614461D46744B03
:104840001B68184600F046FB0346184607F088FF31
:1048500002460B462046294607F0E8FF02460B4673
:104860001046194608F07CFA03462C936C4B1B68E3
:10487000674A126802FB03F307EE903AB8EEE78A44
:10488000634B1A682F9BD31A664A126802FB03F324
:1048900007EE903AF8EEE78A08AB184605F0B0FD4F
:1048A00007EE900AC8EEA77A78EE277ACDED2B7A3C
:1048B00008AB184605F0B4FD554B1B682F93544BBD
:1048C0001B68002B05DA2B982C9900F015FB319012
:1048D00004E02B982C9900F021FB31904C4B1B6885
:1048E000184607F03DFF02460B461046194606F0F3
:1048F000FFF801231C464FF000024B4B08F008FA6A
:104900000346002B01D100231C46E3B2002B14D038
:104910004FF0000331932E9B012B0BD03C4B1B68B7
:104920001846FFF78FFC03463220194600F0A4F921
:1049300001232E93364B00221A60DDED317AF5EE1D
:10494000C07AF1EE10FA14D5384BFE221A70319865
:1049500007F018FF02460B461046194606F0C8F845
:1049600002460B461046194608F0FAF90346319301
:1049700002E02E4B02221A70319807F003FF024624
:104980000B461046194606F0B3F801231C464FF0BB
:104990000002274B08F0DAF90346002B01D100236F
:1049A0001C46E3B2002B01D0224B3193224A319BAB
:1049B00013601A4B00221A609DF8C320D3B2013352
:1049C000DBB28DF8C33053B2132B0CBF012300238D
:1049D000DBB2002B3FF4C7AEDDED2D7AF5EE407A69
:1049E000F1EE10FA0CD0DDED2D7AB1EE087AC7EEBB
:1049F000877AFCEEE77A0A2017EE901A00F03CF96D
:104A000000238DF8C330AEE6ED4B0008A086010010
:104A100024050020400500209C01002020050020E6
:104A20009401002098010020000018408C01002013
:104A300000408F4000007A441C05002008B5094B57
:104A4000D3ED007AFCEEE77A002017EE901A00F022
:104A50000BF84FF07E5006F037F800F0CFF8034621
:104A6000184608BD9001002000B585B003460091AE
:104A70008DF807309DF8073003F00703404AD35CF8
:104A80008DF80F309DF90F3003F00103002B03D197
:104A90003C480021FFF778FC9DF90F3003F002033A
:104AA000002B03D138480121FFF71EFC9DF90F3080
:104AB00003F00403002B03D134480021FFF764FC0A
:104AC0009DF90F3003F00803002B03D1304801217A
:104AD000FFF70AFC9DF90F3003F01003002B03D100
:104AE0002C480021FFF750FC9DF90F3003F0200304
:104AF000002B03D128480121FFF7F6FB9DF80F306A
:104B000003F00103002B04D0009B1E481946FFF759
:104B10003BFC9DF80F3003F00203002B03D01A4832
:104B20000021FFF7E1FB9DF80F3003F00403002B99
:104B300004D0009B15481946FFF726FC9DF80F305E
:104B400003F00803002B03D011480021FFF7CCFB32
:104B50009DF80F3003F01003002B04D0009B0D488C
:104B60001946FFF711FC9DF80F3003F02003002BCE
:104B700003D009480021FFF7B7FB05B05DF804FB3F
:104B800090D600086803002084030020A0030020C2
:104B9000BC030020D8030020F403002000B583B03C
:104BA0000190DDED017AFDEEE77A0D4817EE901ADF
:104BB000FFF7DAFBDDED017AFDEEE77A094817EE43
:104BC000901AFFF7D1FBDDED017AFDEEE77A06489A
:104BD00017EE901AFFF7C8FB03B05DF804FB00BFA7
:104BE00068030020A0030020D803002008B5024875
:104BF000012100F015FE08BDC004002010B50A48D0
:104C000005F0F6F80446094805F0F2F803465B00A3
:104C10001C44074805F0ECF803469B002344054A72
:104C2000D35C5BB2184610BD78020020C802002099
:104C30001803002098D6000800B585B06B461846CA
:104C40000A494FF0FF3200F0B5FA019B0393039B32
:104C50001B781A46039B5B680548064905F08BF9EB
:104C60000248039900F0B8FAE8E700BF7805002091
:104C7000A8060020F4D5000800B585B003460091D1
:104C80008DF807300948002100F0B6FA0390039B25
:104C90009DF807201A70039B009A5A6003480399F5
:104CA00000F0BAFA05B05DF804FB00BF78050020FB
:104CB00000B583B0074805F029F903468DF80730A1
:104CC0009DF8073004481946002200F0B5FA03B0F9
:104CD0005DF804FBA80600206C06002000B593B028
:104CE0000BAB1846294900F09BF90BAB2848194635
:104CF000002205F0EFF90BAB184600F0A9F90023EC
:104D000011931E2310936B46184622494FF0FF3231
:104D100000F0A4FA019B8DF83F309DF83F300D2B39
:104D200009D0119B5A1C119212AA13449DF83F20DE
:104D300003F83C2C24E0119B5A1C119212AA134434
:104D4000002203F83C2C002311939DF80C30522BC9
:104D500004D103AB18461E2100F048F89DF80C3032
:104D6000562B04D103AB18461E2100F015F89DF810
:104D70000C304B2B04D103AB18461E2100F06EF80B
:104D8000119B1E2B01D100231193BCE7B14C0008ED
:104D9000A80600206C06002000B585B001900091A7
:104DA00003AB01980E491A4606F0AEFB039A134670
:104DB0005B0013445B000393039B002B02D14FF471
:104DC000FA63039307484FF0FF3100F0C9FB039BE0
:104DD000054A1360034800F0D3FB05B05DF804FBFF
:104DE00014D60008400500209C01002000B585B0C5
:104DF0000190009103AB019814491A4606F084FB18
:104E0000039B002B0BD0039A13465B0013445B00FB
:104E10001A460F4B1B785BB21344039302E06FF00A
:104E200000430393039B06201946FFF725FF09481B
:104E30004FF0FF3100F094FB039B074A13600548D5
:104E400000F09EFB05B05DF804FB00BF18D600081B
:104E500018050020280500202405002030B587B063
:104E6000019000914FF000024FF00003CDE90423C0
:104E70000023039304AB019812491A4606F044FB41
:104E8000019B03F1090203AB10460F491A4606F0D5
:104E90003BFB0E484FF0FF3100F062FBDDE90423DD
:104EA00015000024039B1A464FF0000342EA040257
:104EB00043EA05030649C1E90023044800F060FB0A
:104EC00007B030BD1CD6000824D6000860050020BD
:104ED0005805002082B00190019B002B01DD0123C9
:104EE00006E0019B002B02DA4FF0FF3300E00023C5
:104EF000184602B0704700BF82B0019000919DED4E
:104F0000017ADDED007AB4EEE77AF1EE10FA01D520
:104F1000009B00E0019B184602B0704782B00190F0
:104F200000919DED017ADDED007AB4EEE77AF1EEC5
:104F300010FA01DD009B00E0019B184602B07047AB
:104F4000F0B5C1B021AB1846FBF7A6F92E4B1C46B5
:104F500011AE04F1400735462346186859689A682F
:104F6000DB680FC510341036BC42F4D111AB3033BE
:104F70003E9311AB38333D9300238DF8FF306B46E1
:104F8000184605F05EFA6B46184605F0FAF91F4818
:104F90004FF0FF3100F0E4FA1D4BD3E900233E99B6
:104FA000C1E90023194800F0EBFA09AA11AB104639
:104FB00019464022FBF7ACF93D9BD3E900230132AF
:104FC00043F100033D99C1E900239DF82430002BF3
:104FD000D9D19DF82530002BD5D13E9BD3E90023B4
:104FE00013465A201946FFF747FE3D9BD3E900239D
:104FF00013465B201946FFF73FFE9DF8FF30013353
:105000008DF8FF30BFE700BF28D6000860050020FC
:105010005805002082B00190019B184602B07047ED
:1050200000B583B001900091009B002B05D1019841
:105030000021102205F08CFF04E06B460198194610
:1050400000F01EF9019B184603B05DF804FB00BF99
:1050500000B583B00190019BDB68002B04D0019B5D
:10506000DB689B6801989847019B184603B05DF880
:1050700004FB00BF00B583B001900091009BDB688A
:10508000002B05D0009BDB685B680198009998476E
:10509000009BDA68019BDA60019B184603B05DF85B
:1050A00004FB00BF82B00190019BDB68002B14BFA2
:1050B00001230023DBB2184602B0704700B583B06D
:1050C00001900091019A009B9A420ED00198FFF73F
:1050D000BFFF019B10201946FFF714F90346002B70
:1050E00003D018460099FFF7C5FF019B184603B08F
:1050F0005DF804FB00B583B00190019B10331846A6
:105100000021502205F024FF019B03F11002019BB6
:10511000C3F8EC20019B6033184600218C2205F077
:1051200017FF019B03F16002019BC3F8F020019B74
:1051300003F1EC02019BDA60019B10225A60019B93
:1051400008229A60019B04331846002101F0DEFA20
:105150000246019B1A60019B184603B05DF804FBF0
:1051600000B583B00190019B0C331846002130221A
:1051700005F0EEFE019B03F10C02019B9A60019B7E
:1051800008225A60019B04331846002101F0D0F92F
:105190000246019B1A60019B1B68002B02D1044848
:1051A00005F06CFC019B184603B05DF804FB00BFE2
:1051B00068D6000800B585B0039002910192029B69
:1051C0001B68039A10461946019A01F0F7FA0398F2
:1051D00005B05DF804FB00BF00B583B001900091FD
:1051E000019B1B681846009901F0C8FA034618464F
:1051F00003B05DF804FB00BF00B583B001900091DF
:10520000019B1B681846009901F0A2FA0346184654
:1052100003B05DF804FB00BF00B583B001900091BE
:10522000019B1B681846009901F0BEFA0346184618
:1052300003B05DF804FB00BF00B585B00390029198
:105240000192039B1A68029B10461946019A01F0CD
:1052500091F90346184605B05DF804FB00B585B02A
:10526000039002910192029B1B68039A1046194613
:10527000019A01F097F9039805B05DF804FB00BFAF
:1052800000B583B00190009101980021102205F033
:105290005FFE019B04201946FFF734F80346002BFC
:1052A00002D0009A12681A60019B024ADA6003B0C9
:1052B0005DF804FBA0D6000800B583B00190019B07
:1052C0001B68984703B05DF804FB00BF00B583B0CE
:1052D00001900091019B04201946FFF713F8034643
:1052E000002B02D0009A12681A6003B05DF804FB2C
:1052F00082B0019002B0704700B583B00190019B6D
:10530000094A1A60019800F0F7F8019B184604F06A
:105310001BFF0023002B02D0019802F06DFF019BC0
:10532000184603B05DF804FB5CDE000800B583B0EE
:1053300001900198FFF7E0FF019802F05DFF019BEB
:10534000184603B05DF804FB00B583B001900091EE
:10535000019B012B40F09A80009B4FF6FF72934215
:1053600040F094804B481321FEF78AFF4A480C21F5
:1053700004F00CFD48484949494A02F029FF4948D0
:10538000152104F003FD47484449454A02F020FF37
:105390004548142104F0FAFC43484049404A02F0D1
:1053A00017FF42481721FEF7B5FF404840493C4AE5
:1053B00002F00EFF3F481621FEF762FF3E48102123
:1053C000FEF7A8FF3C483A49354A02F001FF3B4846
:1053D0001121FEF755FF3A480821FEF79BFF384898
:1053E00033492F4A02F0F4FE36480B21FEF748FFFE
:1053F000354800214FF480620023FFF733F832482C
:105400003249274A02F0E4FE314800214FF400629D
:105410000023FFF727F82E482C49214A02F0D8FE36
:105420002C4800214FF480620023FFF71BF8294825
:1054300026491B4A02F0CCFE274800F06BF82648AC
:105440002649174A02F0C4FE254800F063F82448B4
:105450002249134A02F0BCFE224800F05BF82148C2
:105460001E490F4A02F0B4FE1F48FFF743FE1F48D3
:10547000FFF776FE1E4802210F224FF4165304F068
:105480003BFD1B481B49064A02F0A2FE03B05DF833
:1054900004FB00BF5C02002078020020019E00088F
:1054A00088010020C80200201803002068030020A3
:1054B0004943000884030020A0030020BC0300200F
:1054C000D8030020F40300201004002061580008D5
:1054D00068040020C0040020280500209D55000815
:1054E0004005002060050020780500206C060020A3
:1054F000A8060020F952000882B00190019B1846CE
:1055000002B0704708B501204FF6FF71FFF71CFF8E
:1055100008BD00BF00B583B00190019B0833184659
:105520000021102205F014FD019B03F10802019BEC
:105530005A60019B0433184600F09AFD0246019B15
:105540001A60019B1B68002B02D1044805F096FAF3
:10555000019B184603B05DF804FB00BFACD6000801
:1055600000B583B001900091019B1B68184600991B
:1055700000F09EFD0346184603B05DF804FB00BF33
:1055800000B583B00190019B1B68184600F0B8FD80
:105590000346184603B05DF804FB00BF00B583B0B6
:1055A0000190019B1B68184600F012FE019B1846F3
:1055B00003B05DF804FB00BF00B583B00190019B10
:1055C000DB68002B05D1074807494FF4047205F04A
:1055D000D9F9019BDB681B680198984703B05DF817
:1055E00004FB00BFD4D60008DCD6000800B583B0A9
:1055F00001900091019B083318460021082205F014
:10560000A7FC019B03F10802019B5A60019B043334
:105610001846009900F036FE0246019B1A60019B75
:10562000184603B05DF804FB00B583B00190019B00
:105630001B68184600F048FE0346184603B05DF8A4
:1056400004FB00BF00B583B00190019B1B681846A6
:1056500000F04EFE019B184603B05DF804FB00BF4E
:1056600000B583B00190054B1B68002B03D0034BA2
:105670001B680198984703B05DF804FBF80600200A
:1056800084B00390019200930B46ADF80A30039B5F
:1056900000225A61009B002B0CBF01230023DAB2C9
:1056A000039B83F82C20039BBDF80A209A83039B5D
:1056B000019A5A62039B009A9A6204B0704700BF35
:1056C00000B585B001900091019B403318464FF022
:1056D000FF31FFF745FF019B5B69002B06D0019B63
:1056E00040331846FFF74CFF802368E0019B364AA1
:1056F0009A61019B9B6A002B18D1019B5B6A9B08F6
:10570000B3F1FE5F01D89B0001E04FF0FF33184674
:1057100002F066FD0246019B9A62019B9B6A002B88
:1057200004D12A482A49562205F02CF90023039374
:1057300009E0019B9A6A039B9B001344254A1A6067
:10574000039B01330393019B5B6A9A08039B9A4274
:10575000EFD8019B043318460099FFF7AFFC019B7B
:1057600018331846019900F00DFD0246019B5A615D
:10577000019B5B69002B1CD1019B93F82C30002B03
:105780000BD0019B9B6A002B04D0019B9B6A18469F
:1057900002F034FD019B00229A62019B40331846BF
:1057A000FFF7EEFE019B30331846FFF73DFF8123E4
:1057B00005E0019B40331846FFF7E2FE0023184640
:1057C00005B05DF804FB00BFE958000850D7000899
:1057D00074D70008A52E5AE200B585B00190019B50
:1057E000403318464FF0FF31FFF7BAFE019B5B696B
:1057F0000393019B30331846FFF716FF019B0022ED
:105800005A61039800F0C2FC0290019B4033184695
:10581000FFF7B6FE029B184605B05DF804FB00BF1B
:1058200000B583B001900091019B5B691846009917
:1058300000F0AAFB0346184603B05DF804FB00BF66
:1058400000B585B0039002910192039B184602991E
:10585000019A00F0AFFB039805B05DF804FB00BFB0
:1058600000B583B00190019B174A1A600198FFF7B9
:10587000B3FF019B93F82C30002B0BD0019B9B6A4C
:10588000002B04D0019B9B6A184602F0B7FC019BD9
:1058900000229A62019B40331846FFF77FFE019B6E
:1058A00030331846FFF7CEFE019B04331846FFF74E
:1058B000CFFB0023002B02D0019802F09DFC019B3E
:1058C000184603B05DF804FBD0D7000800B583B0DC
:1058D00001900198FFF7C4FF019802F08DFC019B35
:1058E000184603B05DF804FB00B585B00190019B3C
:1058F0000393039B0433184600F012F8039B4033D4
:1059000018464FF0FF31FFF72BFE039B00225A6130
:10591000039B30331846FFF787FE05B05DF804FBA4
:1059200000B583B001900198FFF746FE03B05DF823
:1059300004FB00BF7047000008B5024B1B68984786
:10594000FBE700BFA0010020836A9B0804BF224B35
:105950001B88F0B5056B08BF9B0805EB8302540755
:1059600048BF043A4FF0807402E91200A2F14006E9
:10597000A2F14404A2F10C074FF0000E44F804EF2A
:10598000BC42F9D1C46942F8204CC278C662022AEE
:10599000416320D0114A2A600F4A1268D2001AD5FA
:1059A000112B18D9A3F110025208511E304639B1FB
:1059B0004FF0CC3440F8044C013940F8084DF6E77C
:1059C000D200C2F10802B3181A1F95423CBF4FF033
:1059D000CC3243F8042CF0BDDCD70008A52E5AE2E7
:1059E00090F82520C36A0AB1603300E020331960C3
:1059F000704710B590F82540C36A0CB1603300E0E1
:105A0000203383E8060010BD08B50B4800F030FBDA
:105A10000A4B18600A4800F02BFB0A4B18600A4832
:105A200000F026FB094B186005F0F4F90020014650
:105A3000BDE8084002F008BC68D80008FC0D002052
:105A40007CD8000834070020E4D700083007002085
:105A5000FFF772BF10B5044600F0F0F92146024688
:105A6000BDE81040014805F009B800BF00D80008A3
:105A7000FFF7F6BD0449054AC1F1005303F5395358
:105A8000D3601161704700BF44150020A4010020BD
:105A900000F08AFCFFF7EEFF0348002100F072FBE4
:105AA00000F052F9FEE70000A401002080F309880D
:105AB0007047EFF309807047684680F309885A48B9
:105AC0000078C00714BF0220032080F314887047B9
:105AD000DFF858C1EFF305831B0618BF6047EFF3EB
