:020000040800F2
:100000000030002081330008B5330008B533000804
:10001000B5330008B5330008B53300080000000010
:10002000000000000000000000000000B1180008FF
:10003000B53300080000000057190008B719000880
:10004000B5330008B5330008B5330008B5330008F0
:10005000B5330008B5330008B5330008B5330008E0
:10006000B5330008B5330008B5330008B5330008D0
:10007000B5330008B5330008B5330008B5330008C0
:10008000B5330008B5330008B5330008A9340008BB
:10009000AD340008B5330008B9330008B5330008A3
:1000A000B5330008B5330008B5330008B533000890
:1000B000B5330008B533000800000000B533000870
:1000C000B53300080000000000000000B533000850
:1000D00000000000B5330008B5330008B533000850
:1000E000B5330008B5330008000000000000000030
:1000F0000000000000000000000000000000000000
:1001000000000000000000000000000000000000EF
:100110000000000000000000B5330008B5330008FF
:1001200000000000000000000000000000000000CF
:1001300000000000000000000000000000000000BF
:10014000B5330008B53300080000000000000000CF
:10015000000000000000000000000000000000009F
:10016000000000000000000000000000000000008F
:10017000000000000000000000000000000000007F
:1001800000000000B533000810B5054C237833B9E2
:10019000044B13B10448AFF300800123237010BD5A
:1001A0004002002000000000C4940008084B10B575
:1001B0001BB108480849AFF300800848036803B939
:1001C00010BD074B002BFBD0BDE81040184700BF07
:1001D00000000000C4940008440200203C020020FB
:1001E00000000000154B002B08BF134B9D46A3F5E4
:1001F000803A00218B460F461348144A121A06F023
:10020000B1FC0F4B002B00D098470E4B002B00D0B9
:1002100098470020002104000D000D48002802D05E
:100220000C4803F0F0FD06F0FFFB2000290003F06E
:1002300021FE03F0E5FD00BF0000080000300020B3
:1002400000000000653E000840020020BC150020B0
:10025000073E00080000000082B001900091009B62
:10026000002B05D0019B9B68019A12681A6004E07C
:10027000019BDB68019A12681A6002B0704700BFE8
:1002800000B583B001900B46ADF80230019B00220F
:100290001A60019B00225A60019B00229A60019B18
:1002A0000022DA60019B00221A82019B00225A611F
:1002B000019B00229A61019ABDF90230104619464D
:1002C00005F0CAFD019B184603B05DF804FB00BFB2
:1002D00000B583B001900091019B18460099FFF78B
:1002E000BBFF03B05DF804FB00B583B00190009143
:1002F00001980099FFF7ECFF019B184603B05DF8E9
:1003000004FB00BF82B001900091009B184602B030
:10031000704700BF00B583B001900B46ADF80230C6
:10032000019B00221A7606F053F9019ABDF90230BA
:100330001046194603F0C2FF06F076F9019B1846F5
:1003400003B05DF804FB00BF00B583B0019006F078
:100350003FF9019800F05CF806F066F9019B184639
:1003600003B05DF804FB00BF00B583B001900091BD
:1003700006F02EF9019800F039F8019B1846009913
:1003800003F07EFE06F050F903B05DF804FB00BFF9
:1003900000B583B00190009106F01AF9019B184650
:1003A000009903F0E5FE06F03FF903B05DF804FBA9
:1003B00000B583B00190009106F00AF9019B184640
:1003C000009904F017F806F02FF903B05DF804FB6C
:1003D00000B583B00190009101980099FFF7C4FF28
:1003E000019B184603B05DF804FB00BF00B583B065
:1003F0000190019B1B7E83F00103DBB2002B04D034
:1004000005F0B8FE019B01221A7603B05DF804FBEB
:1004100000B583B00190019B1B7E002B04D005F03A
:10042000C3FE019B00221A7603B05DF804FB00BFF7
:1004300000B583B00190019B184605F013FD0198AB
:1004400000F0C8FC019B084A1A60019B283318463B
:10045000002100F0C5FC019B012283F83820019B9C
:10046000184603B05DF804FB3C91000800B585B068
:100470000390019200930B46ADF80A30039B104A9B
:100480001A60039B04331846002100F0A9FC039B6B
:1004900030331846002100F09DFF039B403318467F
:1004A00000F0F8FEBDF90A3003981946019A009B46
:1004B00000F0DAFF039B184605B05DF804FB00BFAF
:1004C000208A000800B5ADB001F0C8FB034618460D
:1004D000002101F0D5FB08AB18466F4900F080FC05
:1004E00008AB6E48194600F0DFFF08AB184600F075
:1004F0008FFC0CAB18466A4900F072FC0CAB6948E3
:10050000194600F0D1FF0CAB184600F081FC10AB8F
:100510001846654900F064FC10AB6448194600F0C9
:10052000C3FF10AB184600F073FC614B1B68184604
:1005300000F0D2F8012040F6991100F087FA00F09F
:100540008BF903461A465B4B1A705A4B1B785BB209
:10055000032B21D0584B1B78002B1DD0574B1B78F9
:100560005AB2544B1B785BB2D31A9A1D544B83FB7F
:100570000231D317C91A0B465B000B445B00D11A3A
:10058000CBB25BB21846002100F07CF900F064F9B0
:1005900003461A46474B1A70464B1B785BB2032B37
:1005A00007D0454B1B78002B03D000F005FA012340
:1005B0006EE014AB1846434900F012FC14AB4248FD
:1005C000194605F050FA14AB184600F021FC18ABA0
:1005D00018463C4900F004FC18AB3B48194605F0AE
:1005E00068FA18AB184600F013FC1CAB18463549E6
:1005F00000F0F6FB1CAB3548194605F034FA1CAB8D
:10060000184600F005FC20AB18462E4900F0E8FB28
:1006100020AB2E48194605F04CFA20AB184600F0E6
:10062000F7FB24AB1846274900F0DAFB24AB284837
:10063000194605F018FA24AB184600F0E9FB28AB80
:100640001846204900F0CCFB28AB2148194605F09C
:1006500030FA28AB184600F0DBFB00F065F86B467B
:10066000184605F0FCFC00F05FF84FF0804006F003
:1006700039F8184BD3ED007AB1EE087AC7EE877AD5
:10068000FCEEE77A052017EE901A00F0DFF9ECE7B0
:1006900018462DB05DF804FB0D0A0008EC0400209C
:1006A000B10A0008440500205D0C00089C050020EC
:1006B0009C01002010040020980100208C010020E3
:1006C000ABAAAA2A2907000878020020C802002045
:1006D00018030020E804002000B583B00190DDED90
:1006E000017AFDEEE77A0D4817EE901AFFF750FEFB
:1006F000DDED017AFDEEE77A094817EE901AFFF773
:1007000047FEDDED017AFDEEE77A064817EE901A16
:10071000FFF73EFE03B05DF804FB00BF6803002056
:10072000A0030020D803002010B582B000F076F8B6
:1007300003468DF8073031484FF0FF3100F0D0FD0F
:100740009DF907202E4B1B785BB2D21A2D4B1B78DC
:100750005BB213449A1D2C4B83FB0231D317C91A89
:100760000B465B000B445B00D11ACCB2274B1B68D5
:10077000184600F019FB07EE900AFCEEE77A63B228
:10078000184617EE901A00F07DF81C4800F0B8FDEE
:100790001F484FF0FF3100F0A3FD9DF907201D4BCE
:1007A0001B785BB2D31A052B05D11B4B1B68013B91
:1007B000194A136019E09DF90720164B1B785BB2AC
:1007C000D31A13F1050F05D1134B1B680133124ADD
:1007D00013600AE09DF907200E4B1B785BB2D21A1A
:1007E0000D4B1B6813440C4A1360094800F088FD48
:1007F000084A9DF80730137002B010BDB004002005
:10080000100400208C010020ABAAAA2A14040020A6
:100810008004002070070020E004002010B50A4882
:1008200005F0FCF80446094805F0F8F803465B00BB
:100830001C44074805F0F2F803469B002344054A90
:10084000D35C5BB2184610BD78020020C8020020BD
:1008500018030020E488000808B5094BD3ED007A9E
:10086000FCEEE77A002017EE901A00F00BF84FF03C
:100870007E5005F037FFFFF7D1FF0346184608BD4D
:100880009C01002000B585B0034600918DF807302B
:100890009DF8073003F00703404AD35C8DF80F3012
:1008A0009DF90F3003F00103002B03D13C480021D8
:1008B000FFF77EFD9DF90F3003F00203002B03D1FB
:1008C00038480121FFF710FD9DF90F3003F00403B4
:1008D000002B03D134480021FFF76AFD9DF90F304A
:1008E00003F00803002B03D130480121FFF7FCFC83
:1008F0009DF90F3003F01003002B03D12C48002189
:10090000FFF756FD9DF90F3003F02003002B03D1B4
:1009100028480121FFF7E8FC9DF80F3003F00103A0
:10092000002B04D0009B1E481946FFF741FD9DF89F
:100930000F3003F00203002B03D01A480021FFF709
:10094000D3FC9DF80F3003F00403002B04D0009B70
:1009500015481946FFF72CFD9DF80F3003F00803EA
:10096000002B03D011480021FFF7BEFC9DF80F308B
:1009700003F01003002B04D0009B0D481946FFF72D
:1009800017FD9DF80F3003F02003002B03D009481A
:100990000021FFF7A9FC05B05DF804FBDC88000826
:1009A0006803002084030020A0030020BC03002073
:1009B000D8030020F403002008B50E484FF00001D2
:1009C000FFF706FD0C480121FFF78EFC0B484FF0A6
:1009D0000001FFF7FDFC0A480121FFF785FC0948EB
:1009E0004FF00001FFF7F4FC07480121FFF77CFC02
:1009F00008BD00BF6803002084030020A00300207E
:100A0000BC030020D8030020F403002000B585B00B
:100A10006B4618460A494FF0FF3200F06BFA019B13
:100A20000393039B1B781A46039B5B6805480649A2
:100A300005F0B7F80248039900F06EFAE8E700BF46
:100A4000F4050020240700208488000800B585B044
:100A5000034600918DF807300948002100F06CFA38
:100A60000390039B9DF807201A70039B009A5A601D
:100A70000348039900F070FA05B05DF804FB00BF6D
:100A8000F405002000B583B0074805F055F803468B
:100A90008DF807309DF8073004481946002200F011
:100AA0006BFA03B05DF804FB24070020E806002081
:100AB00000B589B003AB1846294900F091F903ABA2
:100AC00028481946002205F01BF903AB184600F030
:100AD0009FF9254B00221A606B46184623494FF0B8
:100AE000FF3200F05BFA019B8DF81F309DF81F303C
:100AF0000D2B09D01C4B1B685A1C1B490A601C4952
:100B00009DF81F20CA5422E0174B1B685A1C164937
:100B10000A60174A0021D154134B00221A60144B6B
:100B20001B78522B01D100F069F8114B1B78562B22
:100B300001D100F065F80E4B1B784B2B01D100F072
:100B400019F80B4B1B78442B01D100F079F8064BB8
:100B50001B681E2B02D1044B00221A60BCE700BFA9
:100B6000850A00082407002058040020E806002019
:100B70003804002000B585B01C484FF0FF3100F06C
:100B8000AFFB1B4B03930023029325E0029BC3F1B1
:100B90001003184A1A4401AB104617491A4606F0CA
:100BA000BDFA029BC3F10F03124A1A446B4610466A
:100BB00011491A4606F0B2FA009BDBB21B01DAB209
:100BC000019BDBB21343DAB2039B1A70039B013320
:100BD0000393029B02330293029B0F2BD6DD034843
:100BE00000F08EFB05B05DF804FB00BF6804002038
:100BF0006004002038040020A4880008704700BF6B
:100C000000B583B001AB0B480B491A4606F086FAD3
:100C1000019A13465B0013445B000193019B002B78
:100C200002D14FF4FA630193019B044A136003B0AD
:100C30005DF804FB38040020A8880008900100201B
:100C400008B503480349044A06F068FA08BD00BF26
:100C500038040020AC8800089401002000B52DED78
:100C6000028B9DB008AB1846FFF7E2FB00231993F7
:100C70006B46184605F0F3F96B46184605F08FF9F8
:100C80004FF000031B934FF000031A934CF25030C7
:100C900005F018FD3A4B1B6807EE903AB8EEE78A6C
:100CA0006B46184605F0BAF907EE900A88EE277AE7
:100CB000DDED1B7A37EE277ADDED1A7A77EE277AAB
:100CC000B0EE087AC7EE877A2E4BC3ED007A1B9BF5
:100CD0001A932C4B1B681B936B46184605F0AEF914
:100CE000294B1B785BB207EE903AB8EEE78A274BA8
:100CF0001B6807EE903AF8EEE78A224B1B6818460D
:100D000000F052F807EE900A78EEE77A68EE277A5C
:100D10001F4BC3ED007A1E4BD3ED007AF5EEC07A7F
:100D2000F1EE10FA03D51B4BFE221A7002E0194BAC
:100D300002221A70164B1B68184600F035F807EEB1
:100D4000100ADFED157AB4EEE77AF1EE10FACCBFB7
:100D500001230023DBB2002B02D00D4B0F4A1A6097
:100D60000F484FF0FF3100F0BBFA054B00221A602C
:100D70000B4800F0C5FA0B4B00221A6086E700BF53
:100D8000E0040020E8040020A001002090010020E1
:100D9000140400208C01002000007A4400007A44F2
:100DA00080040020E404002082B00190DDED017A8F
:100DB000F5EEC07AF1EE10FA04D5DDED017AF1EE30
:100DC000677A01E0DDED017A17EE903A184602B03D
:100DD000704700BF82B00190019B184602B0704777
:100DE00000B583B001900091009B002B05D10198C4
:100DF0000021102205F0B6FE04E06B46019819466A
:100E000000F0DEF8019B184603B05DF804FB00BF5C
:100E100000B583B00190019BDB68002B04D0019BDF
:100E2000DB689B6801989847019B184603B05DF802
:100E300004FB00BF00B583B00190019B103318463E
:100E40000021502205F08EFE019B03F11002019B50
:100E5000C3F8EC20019B6033184600218C2205F07A
:100E600081FE019B03F16002019BC3F8F020019B0E
:100E700003F1EC02019BDA60019B10225A60019B96
:100E800008229A60019B04331846002101F0B8FA49
:100E90000246019B1A60019B184603B05DF804FBF3
:100EA00000B583B00190019B0C331846002130221D
:100EB00005F058FE019B03F10C02019B9A60019B17
:100EC00008225A60019B04331846002101F0AAF958
:100ED0000246019B1A60019B1B68002B02D104484B
:100EE00005F0DAFB019B184603B05DF804FB00BF78
:100EF000B488000800B585B0039002910192029B6E
:100F00001B68039A10461946019A01F0D1FA03981A
:100F100005B05DF804FB00BF00B583B001900091FF
:100F2000019B1B681846009901F0A2FA0346184677
:100F300003B05DF804FB00BF00B583B001900091E1
:100F4000019B1B681846009901F07CFA034618467D
:100F500003B05DF804FB00BF00B583B001900091C1
:100F6000019B1B681846009901F098FA0346184641
:100F700003B05DF804FB00BF00B585B0039002919B
:100F80000192039B1A68029B10461946019A01F0D0
:100F90006BF90346184605B05DF804FB00B585B053
:100FA000039002910192029B1B68039A1046194616
:100FB000019A01F071F9039805B05DF804FB00BFD8
:100FC00000B583B00190009101980021102205F036
:100FD000C9FD019B04201946FFF794F90346002B35
:100FE00002D0009A12681A60019B024ADA6003B0CC
:100FF0005DF804FBEC88000800B583B00190019B0C
:101000001B68984703B05DF804FB00BF00B583B0D0
:1010100001900091019B04201946FFF773F90346E4
:10102000002B02D0009A12681A6003B05DF804FB2E
:1010300082B0019002B0704700B583B00190019B6F
:10104000094A1A60019800F017F9019B184604F04C
:1010500091FE0023002B02D0019802F0E3FE019BD9
:10106000184603B05DF804FBAC90000800B583B0EF
:1010700001900198FFF7E0FF019802F0D3FE019B79
:10108000184603B05DF804FB00B583B001900091F1
:10109000019B012B40F0B280009B4FF6FF72934200
:1010A00040F0AC8057481321FFF7EAF856480C216E
:1010B00004F082FC54485549554A02F09FFE5548B9
:1010C000152104F079FC53485049514A02F096FE2C
:1010D0005148142104F070FC4F484C494C4A02F02E
:1010E0008DFE4E481721FFF715F94C484C49484AE8
:1010F00002F084FE4B481621FFF7C2F84A4810213F
:10110000FFF708F948484649414A02F077FE474848
:101110001121FFF7B5F846480821FFF7FBF84448CE
:101120003F493B4A02F06AFE42480B21FFF7A8F80C
:10113000414804F094FF40484049354A02F05EFEC1
:101140003F4800F0A7F83E483E49314A02F056FEBB
:101150003D4800F09FF83C483A492D4A02F04EFEC7
:101160003A4800F097F839483649294A02F046FED5
:10117000374800F08FF836483249254A02F03EFEE3
:10118000344800F087F833482E49214A02F036FEF1
:10119000314800214FF480620023FFF767F92E48A1
:1011A0002E491B4A02F02AFE2D4803214FF40072FB
:1011B0000023FFF75BF92A482849154A02F01EFE72
:1011C000284800214FF480620023FFF74FF925489B
:1011D00022490F4A02F012FE2348FFF72BFE234854
:1011E000FFF75EFE224802210F224FF4165304F04F
:1011F00099FC1F481F49064A02F000FE03B05DF843
:1012000004FB00BF5C020020780200202D5A000879
:1012100088010020C8020020180300206803002075
:101220004903000884030020A0030020BC03002021
:10123000D8030020F4030020180400207F5F00087A
:10124000680400201D13000880040020980400207A
:10125000B0040020C8040020EC0400200916000897
:10126000440500209C050020F4050020E80600202D
:10127000240700203910000882B00190019B184615
:1012800002B0704708B501204FF6FF71FFF7FCFE72
:1012900008BD00BF00B583B00190019B083318461C
:1012A0000021102205F05EFC019B03F10802019B66
:1012B0005A60019B0433184600F054FD0246019B1E
:1012C0001A60019B1B68002B02D1044805F0E4F969
:1012D000019B184603B05DF804FB00BFF8880008C6
:1012E00000B583B001900091019B1B6818460099DE
:1012F00000F058FD0346184603B05DF804FB00BF3C
:1013000000B583B00190019B1B68184600F072FD88
:101310000346184603B05DF804FB00BF00B583B078
:101320000190019B1B68184600F0CCFD019B1846FC
:1013300003B05DF804FB00BF00B583B001900091DD
:10134000009BDB68002B05D0009BDB685B68019885
:1013500000999847009BDA68019BDA60019B184668
:1013600003B05DF804FB00BF00B583B001900091AD
:10137000019A009B9A420ED00198FFF749FD019B0C
:1013800010201946FEF7BEFF0346002B03D0184677
:101390000099FFF7D1FF019B184603B05DF804FBED
:1013A00000B583B00190019BDB68002B05D1074895
:1013B00007494FF4047205F0F3F8019BDB681B68E2
:1013C0000198984703B05DF804FB00BF208900082E
:1013D0002889000800B583B001900091019B083373
:1013E00018460021082205F0BDFB019B03F108020D
:1013F000019B5A60019B04331846009900F0BCFD24
:101400000246019B1A60019B184603B05DF804FB7D
:1014100000B583B00190019B1B68184600F0CEFD1B
:101420000346184603B05DF804FB00BF00B583B067
:101430000190019B1B68184600F0D4FD019B1846E3
:1014400003B05DF804FB00BF00B583B00190054B0D
:101450001B68002B03D0034B1B680198984703B00F
:101460005DF804FB7407002084B0039001920093A0
:101470000B46ADF80A30039B00225A61009B002BFB
:101480000CBF01230023DAB2039B83F82C20039BBB
:10149000BDF80A209A83039B019A5A62039B009A23
:1014A0009A6204B0704700BF00B585B0019000910A
:1014B000019B403318464FF0FF31FFF711FF019BAE
:1014C0005B69002B06D0019B40331846FFF718FFDD
:1014D000802368E0019B364A9A61019B9B6A002B3E
:1014E00018D1019B5B6A9B08B3F1FE5F01D89B009A
:1014F00001E04FF0FF33184602F088FC0246019BE2
:101500009A62019B9B6A002B04D12A482A495622E1
:1015100005F046F80023039309E0019B9A6A039BB8
:101520009B001344254A1A60039B01330393019BDC
:101530005B6A9A08039B9A42EFD8019B04331846D2
:101540000099FFF711FF019B18331846019900F02D
:1015500093FC0246019B5A61019B5B69002B1CD1E5
:10156000019B93F82C30002B0BD0019B9B6A002B26
:1015700004D0019B9B6A184602F056FC019B002296
:101580009A62019B40331846FFF7BAFE019B303345
:101590001846FFF73DFF812305E0019B40331846C5
:1015A000FFF7AEFE0023184605B05DF804FB00BF50
:1015B000911600089C890008C0890008A52E5AE2EF
:1015C00000B585B00190019B403318464FF0FF31C4
:1015D000FFF786FE019B5B690393019B303318463E
:1015E000FFF716FF019B00225A61039800F048FCA8
:1015F0000290019B40331846FFF782FE029B18467B
:1016000005B05DF804FB00BF00B583B00190019BFD
:10161000174A1A600198FFF7D3FF019B93F82C300B
:10162000002B0BD0019B9B6A002B04D0019B9B6A73
:10163000184602F0F9FB019B00229A62019B40339D
:101640001846FFF76BFE019B30331846FFF7EEFE9E
:10165000019B04331846FFF7DBFB0023002B02D06D
:10166000019802F0DFFB019B184603B05DF804FB14
:10167000208A000800B583B001900198FFF7C4FFED
:10168000019802F0CFFB019B184603B05DF804FB04
:1016900000B585B00190019B0393039B043318466A
:1016A00000F012F8039B403318464FF0FF31FFF76C
:1016B00017FE039B00225A61039B30331846FFF745
:1016C000A7FE05B05DF804FB00B583B0019001985A
:1016D000FFF766FE03B05DF804FB00BF7047000033
:1016E00008B5024B1B689847FBE700BFA401002028
:1016F000836A9B0804BF224B1B88F0B5056B08BFAB
:101700009B0805EB8302540748BF043A4FF08074EE
:1017100002E91200A2F14006A2F14404A2F10C0772
:101720004FF0000E44F804EFBC42F9D1C46942F80E
:10173000204CC278C662022A416320D0114A2A6036
:101740000F4A1268D2001AD5112B18D9A3F1100232
:101750005208511E304639B14FF0CC3440F8044C99
:10176000013940F8084DF6E7D200C2F10802B3187B
:101770001A1F95423CBF4FF0CC3243F8042CF0BD09
:101780002C8A0008A52E5AE290F82520C36A0AB1D7
:10179000603300E020331960704710B590F82540A1
:1017A000C36A0CB1603300E0203383E8060010BD4B
:1017B00008B50B4800F0D6FA0A4B18600A4800F04A
:1017C000D1FA0A4B18600A4800F0CCFA094B1860AD
:1017D00005F02AF900200146BDE8084002F04ABBA6
:1017E000B88A0008740E0020CC8A0008B0070020D8
:1017F000348A0008AC070020FFF772BF10B504461A
:1018000000F0F0F921460246BDE81040014804F01E
:1018100043BF00BF508A0008FFF716BE0449054ABF
:10182000C1F1005303F53953D3601161704700BF14
:10183000BC150020A801002000F030FCFFF7EEFFEF
:101840000348002100F018FB00F052F9FEE7000009
:10185000A801002080F309887047EFF309807047E2
:10186000684680F309885A480078C00714BF0220F0
:10187000032080F314887047DFF858C1EFF3058325
:101880001B0618BF6047EFF31483DB0708BF6047F0
:1018900000DF7047DFF840C1EFF305831B0618BF78
:1018A0006047EFF31483DB0708BF604700DF704732
:1018B000EFF30980816911F8021CE1BB90E80F1079
:1018C00010B5E047BDE81040EFF3098C8CE8070045
:1018D000424B93E80600914208BF704741B91EF0A1
:1018E000100F16D13E49086820F00100086010E092
:1018F0001EF0100F06BF2CED108A0120002081F889
:1019000025002CE9F00FC1F82CC00CB401F0CAFA84
:101910000CBC1A60D2F82CC0BCE8F00F92F825007D
:1019200000280EBF6FF0020E6FF0120EBCEC108A92
:101930008CF30988704710B52A4A1268914209D879
:10194000294C54F8214090E80F10A047EFF3098C80
:101950008CE80F0010BD10B501F030FABDE8104062
:101960001E4B93E80600914208BF7047EFF3098CC5
:101970001EF0100F06BF2CED108A0120002081F808
:1019800025002CE9F00FC1F82CC00CB401F08AFA44
:101990000CBC1A60D2F82CC0BCE8F00F92F82500FD
:1019A00000280EBF6FF0020E6FF0120EBCEC108A12
:1019B0008CF30988704710B501F056FAFFF7CEBFD7
:1019C00010B501F04FFA01F04FFAFFF7C7BF000062
:1019D000388A00081B2A0008352A0008B4130020A2
:1019E00034EF00E000000000FCFFFFFF0B4A13682B
:1019F00030B5002433B19D68A94203D31C46491B6E
:101A00001B68F7E70360816013B19D68691A9960EC
:101A10000CB1206030BD106030BD00BF70130020DD
:101A2000C0B1431C11D00C4B984211D80B4B1B6812
:101A30004FF47A715A1E01FB0020B0FBF3F34FF60E
:101A4000FE70834206D898B270474FF6FF70704719
:101A50004FF6FE70704700BF00093D00288A00085D
:101A600038B1830704D10378002B18BF00207047DA
:101A70000020704738B50E4D2878B0B90D4C23685A
:101A800093F8241001F084FA2368DA78FF2A03D14E
:101A9000DA6A203282F309886168064A09B982E865
:101AA0000A0001F027FC01232B70002038BD00BF85
:101AB0006D130020B4130020014B1878704700BF4D
:101AC0006D13002010B5EFF3108434B9EFF30584E3
:101AD0001CB9EFF31484E40702D4034B187810BD4B
:101AE000DFF808C000DF10BD6D130020B91A000830
:101AF00010B588B0EFF31083002B32D1EFF30583DC
:101B00007BBBFFF7DFFF28B9184C246814B1646869
:101B100004B1A047EFF3148404F00304022C0CD0AA
:101B2000032C16D0012C1ED008AC84F30988104C6D
:101B30002478E40705D5022404E00D4C2478E4075A
:101B40000BD4032484F31488BFF34F8FBFF36F8F3C
:101B500003E0074C2478E40705D4DFF818C000DF61
:101B600002E0822000E0FF2008B010BDA413002096
:101B7000388A0008751A000838B515460B46024623
:101B800008B9002038BD00680028FAD09488E11C0C
:101B900089B20629F5D8D16809B1126900E00A4670
:101BA00024B2043444EA012101F030FA0028E8D0DC
:101BB000094B0A4A013853F82040E36A5A63084B3C
:101BC0001B6833B19B6823B1E07829469847E063EE
:101BD00000E0E563204638BDD00D0020C51D00089B
:101BE000A413002008B501F0CBF918B10138024B5D
:101BF00053F8200008BD00BFD00D002010B5FFF73E
:101C00002FFF044670B1084B1B681BB1DB680BB19A
:101C1000C06B9847E07801F04DFAFF280CBF812097
:101C2000002010BD802010BDA413002010B50C466C
:101C3000FFF716FF68B1E31C9BB2062B0BD8211DE2
:101C4000C9B2C07801F0A4F9FF280CBF81200020A0
:101C500010BD802010BD862010BD000030B5EFF310
:101C6000108434B9EFF305852DB9DFF810C000DF1B
:101C700030BD002030BD204630BD0000E51B00080F
:101C800010B5EFF3108434B9EFF305841CB9DFF815
:101C90000CC000DF10BD822010BD00002D1C00080C
:101CA000830704D128B1436901691B6803E000235D
:101CB00000E00346194618467047000010B5044678
:101CC0000846DFF80CC000DF84E80300204610BDA2
:101CD000A11C000810B548B1046824B1237823B9C9
:101CE000204600F0BCFE204610BD002010BD70B59F
:101CF00010F0030405460E4611D180B10378032B82
:101D00000DD10846FFF78CFE0146284600F074FF0F
:101D1000012806D1002E14BFC120812070BD802073
:101D200070BD204670BD820708B50AD148B103785E
:101D3000032B06D100F0F0FEFF280CBF812000200D
:101D400008BD802008BD10B510F0030407D130B1E4
:101D50000378032B03D100F08BFE204610BD8020BA
:101D600010BD000070B50546EFF3108494B9EFF391
:101D700005868EB9EFF31484E40706D4074C247863
:101D80001CB9BDE87040FFF7A5BF2846DFF810C0BA
:101D900000DF70BD002070BD204670BD6D130020B7
:101DA000D51C000810B5EFF3108434B9EFF30584A7
:101DB0001CB9DFF80CC000DF10BD822010BD000090
:101DC000EF1C0008084908B508684FF0FF31FFF71D
:101DD000E9FFDFF818C000DF0446FFF71DFD2046CD
:101DE000DFF80CC000DFFEE768130020E51B0008E9
:101DF000FD1B000810B5EFF3108434B9EFF3058430
:101E00001CB9DFF80CC000DF10BD822010BD00003F
:101E1000271D00082DE9F04180460F461646EFF3D6
:101E20001084F4B9EFF30583E3B9EFF31483DB0710
:101E300006D40E4B1B781BB9BDE8F041FFF79CBEE2
:101E40000B4D4FF0FF312868FFF7ACFF4046394695
:101E50003246DFF820C000DF04462868FFF7CAFFDB
:101E600000E000242046BDE8F08100BF6D13002093
:101E700068130020791B00080022FFF7CBBF000089
:101E800038B50446EFF31083A3B9EFF305838BB99C
:101E90000A4D4FF0FF312868FFF784FF2046FFF717
:101EA000BBFC2046DFF818C000DF04462868FFF7B7
:101EB000A1FF00E08224204638BD00BF6813002047
:101EC000FD1B000810B5EFF3108434B9EFF305845F
:101ED0001CB9DFF80CC000DF10BD822010BD00006F
:101EE000471D000810B568B1046844B1207840B9B6
:101EF000B1F5803F06DA204689B200F0E1FE2046C7
:101F000010BD002010BD10B510F003040CD158B165
:101F10000278022A08D142884FF6FF739A4205D010
:101F200000F002FF204610BD802010BD812010BDB2
:101F300010B510F0030407D130B10378022B03D1A0
:101F400000F0C4FE204610BD802010BD10B510F07A
:101F500003040CD158B10278022A08D142884FF606
:101F6000FF739A4205D000F0F4FE204610BD802099
:101F700010BD812010BD0000F0B506460D46EFF300
:101F800010849CB9EFF3058797B9EFF31484E40745
:101F900006D4084C24781CB9BDE8F040FFF7A2BF76
:101FA00030462946DFF810C000DFF0BD0020F0BD4C
:101FB0002046F0BD6D130020E51E000830B5044634
:101FC000EFF3108515B9EFF3058525B12046BDE87F
:101FD0003040FFF7BBBFDFF808C000DF30BD0000B6
:101FE000071F000810B5EFF3108434B9EFF3058430
:101FF0001CB9DFF80CC000DF10BD822010BD00004E
:10200000311F000810B5044660B1016859B140683D
:1020100060B103784BB90431890089B200F080FBCC
:10202000606810BD10BD084610BD002010BD000046
:1020300038B5114C23780BB901F0E2F80F4B257835
:102040001B68FF229A708DB929460D48FFF7DAFF09
:102050000C4B294618602A460B48FFF78DFD0B4BA9
:1020600018600B48FFF77EFE0A4B186001232370AF
:10207000094B0020187038BD6C130020B4130020E9
:10208000BC8A0008700E00203C8A000864130020FF
:10209000D08A0008681300206D13002010B5EFF3FC
:1020A000108474B9EFF305845CB9EFF31484E4078A
:1020B00003D4BDE81040FFF7BBBFDFF80CC000DF62
:1020C00010BD822010BD00003120000870B50E4602
:1020D0001546044688B10378012B0ED11046FFF750
:1020E0009FFC31460246204600F028FB012806D11D
:1020F000002D14BFC120812070BD802070BD002044
:1021000070BD2DE9F04F0C4685B08046E8B10378EC
:10211000012B1FD10846FFF783FC02A90246404667
:1021200000F058FB012806D10020002C024603468F
:1021300018BF402003E00020024603461020029909
:1021400004460D4616461F4608E08024054606460E
:10215000074603E0002580242E462F4620462946C8
:1021600032463B4605B0BDE8F08F70B50E461446CA
:10217000054660B15AB90378012B08D100F080FB05
:1021800038B12846314600F07FFB204670BD8020E4
:1021900070BD812070BD0000114B70B51C681E46DB
:1021A000E4B1A368013BA360A268BAB90D4B2568EE
:1021B000186835602146FFF7D8FF10B10420FFF7FB
:1021C0001DFB6379012B04D12046E168FFF70EFC6B
:1021D00001E0012323710DB12C46E5E770BD00BF7E
:1021E00070130020700E00207FB50446164601B122
:1021F00012B18023236011E00B78012BF9D108463E
:1022000002A900F048FB042808BF102301AD14BF49
:102210000196019395E8070084E80700204604B082
:1022200070BD0000F0B506460D46EFF310849CB972
:10223000EFF3058797B9EFF31484E40706D4084C4D
:1022400024781CB9BDE8F040FFF7DCBE30462946D3
:10225000DFF810C000DFF0BD0020F0BD2046F0BD6B
:102260006D13002005200008F0B506460D46144603
:10227000EFF3108717B9EFF3058737B130462946DA
:102280002246BDE8F040FFF770BFDFF808C000DF6E
:10229000F0BD0000CD20000838B504461546EFF328
:1022A000108010B9EFF3058020B120462A46FFF7D1
:1022B0009BFF06E008461146DFF80CC000DF84E80B
:1022C0000700204638BD0000032100087FB50A4BF7
:1022D00003A819684FF0FF32FFF7DEFF039B102BB6
:1022E000F5D101A80499FFF7E9FC019B002BEED082
:1022F00002989847EBE700BF700E002070B50546C6
:10230000E0B10668DEB14368DBB18068F0B1046813
:102310004068D8B1BCB12278BAB9033323F00302C4
:1023200006FB02F10C3100F053FB296804318900EF
:10233000204689B200F0F4F9A86870BD70BD30463F
:1023400070BD184670BD204670BD002070BD0000F5
:1023500038B50D46E8B104684068D0B1CCB102B1DF
:10236000B9B900F05AFBA8B99DB162680A4B22B115
:102370002046196800F0D6F805E01B6863605A60D3
:102380009C60032363702846FFF74AFB082100F096
:10239000DDFD002038BD00BFB4130020F8B51446A1
:1023A00050B390E860003DB336B3304600F042FBD6
:1023B00020BB6B680BB90020F8BD6B78032BFAD1FA
:1023C00034B12846314600F085F900F0E5FCF2E72B
:1023D000304600F022FB06460028ECD0284600F0EC
:1023E000B9F831460546FFF7CFF9284600F05EF907
:1023F000284600F087FDDEE78020F8BD8620F8BD86
:10240000F0B506460D46EFF310849CB9EFF305874F
:1024100097B9EFF31484E40706D4084C24781CB968
:10242000BDE8F040FFF76ABF30462946DFF810C02C
:1024300000DFF0BD0020F0BD2046F0BD6D13002090
:10244000FD22000830B505460C46EFF3108212B9A4
:10245000EFF3058232B1284621460122BDE8304023
:10246000FFF776BFDFF804C000DF30BD512300085E
:1024700030B505460C46EFF3108212B9EFF3058232
:1024800032B1284621460122BDE83040FFF786BF21
:10249000DFF804C000DF30BD9D23000820B129B162
:1024A00000680022FFF7E0BE80207047862070475A
:1024B00010B5044609B9802306E00968FFF7ECFE71
:1024C0002368102B08BF20232360204610BD000086
:1024D00010B5038B42781943062A04460183438BC7
:1024E00004D101EA03029A4219D105E0052A16D166
:1024F00011EA030213D0428321EA0301218320461B
:1025000000F0D4F80123204663700821628BFFF7A6
:1025100044F921460248BDE8104000F003B810BD60
:102520007413002030B502788C784368013AD2B237
:102530002BB19D78A54202D318465B68F8E7022AC2
:102540004B60416003D803B19960886030BD0023BF
:102550008B6030BD02784368013A59684160022AB5
:102560004FF0000204D809B188605A609A6000E018
:102570005A60184670470000034B5A6842600022B8
:1025800082605860704700BF74130020114BDA68F6
:1025900010B50AB19A8A0CE000248A1AC460D86087
:1025A00003619A82848210BD002CF5D0A38A1A445C
:1025B00023468A42DC68F7D3C460D860C4680361EC
:1025C00004B12061521A92B28282998A8A1A9A823E
:1025D00010BD00BF8C13002038B5194DEB68002BDF
:1025E0002CD0AB8A013BAB82AA8A002A26D1144B9D
:1025F000DC681CB3A3683BB161685960616809B1CC
:102600008B6062600023A3600E482146FFF78AFFBB
:10261000A38AAB826378042B01BF0B4B1A68E38A51
:102620009B1808BFA38201236370E368EB6000225C
:1026300013B103491961E2602261D5E738BD00BFDB
:102640008C13002074130020FC130020836853B9FE
:10265000084B3BB15A68824202D142685A607047C7
:102660001346F6E7704742685A60426802B19360C9
:10267000704700BF7413002038B58468054624B93C
:102680004378012B0ED1084C03E023780BB9A468E2
:10269000FBE72846FFF7DAFF20462946BDE8384029
:1026A000FFF740BF38BD00BF74130020036910B5A9
:1026B00073B1C268DA60C2683AB1998A848A2144E7
:1026C000998213610023C36000E09A8200230361B2
:1026D00010BD000070B5114BDD78EFF31086EFF3FD
:1026E000108272B69A78AA4210D201329A701A7881
:1026F000541CAC4208BF00241C7006B962B6AA4242
:1027000006D203EBC2035860996070BD002EF5D06D
:102710000220BDE87040FFF771B800BFEC0D00204B
:1027200001231039037089080023437083704360CC
:10273000038143818381C18170470000F8B54668F9
:1027400003460C4617468EB14278012A0ED1FFF798
:1027500001FF102105462246FFF71FF82846FFF724
:10276000A5FF284600F0CEFB0020F8BD9989DD8941
:10277000A94214D14FB3164D26B118462968FFF768
:10278000D1FE05E02968596002224E608B605A70C4
:102790002B683846DC61082100F0D8FB15E01A8967
:1027A000101D43F82040EFF31080EFF3108472B651
:1027B0000131998100B962B6013292B2AA424FF05A
:1027C000000014BF1A811881F8BD0120F8BD00BFB8
:1027D000B413002070B5858904461646002D36D006
:1027E00043891A1D013350F822200A60C2899BB226
:1027F0009A42438104BF002343814368EBB143788D
:10280000022B1AD1FFF7A6FE00210546FEF7BCFFFA
:102810002389E9691A1D013344F82210E2899BB229
:102820009A42238108BF0023284608BF2381FFF76F
:102830003DFF284600F066FB1CE0EFF31080EFF34D
:10284000108372B6013DA581A0B962B670BD9AB180
:1028500042680A4B1AB11968FFF764FE05E01B686D
:1028600043605A609860012343703046082100F0AD
:102870006DFB01E0002070BD012070BDB41300208D
:10288000C2898089101A704708B5FFF723FFBDE899
:10289000084000F081BA838910B5044603B3438928
:1028A000043350F823300B604378022B04D100210D
:1028B000FFF710FF00F070FAEFF31083EFF31082D0
:1028C00072B6A289013AA28103B962B66389E2892C
:1028D00001339BB29A42638104D10023638101E0FA
:1028E000184610BD042010BD436870B504460E465E
:1028F000002B4DD04578022D1CD0032D0AD0012D80
:1029000063D1FFF727FE044610213246FEF745FF4C
:10291000657037E0084600F080F80546002854D07E
:102920002046FFF717FE29460446FEF72DFF012338
:10293000637027E0FFF70EFE00210546FEF724FF37
:102940002389E9691A1D44F82210EFF31082EFF38E
:10295000108172B6A1890131A18102B962B6E28902
:1029600001339BB29A42238104BF002323810123B8
:1029700028466B70FFF79AFE14482946BDE8704060
:10298000FFF7D0BD2046FFF791FE10482146F5E73E
:102990008189C089814213D223891A1D44F822609B
:1029A000EFF31082EFF3108572B60131A18102B905
:1029B00062B601339BB2834208BF0023238170BDFE
:1029C0000320BDE87040FEF719BF70BD74130020EE
:1029D000002ABBBF22F000420732033222F0070276
:1029E000A8BF22F0030210B5B4BF10230C2392B18C
:1029F0009C188C420FD80144034454424160036048
:102A0000826021449818884202D800510346F9E7B1
:102A10000020186010BD012010BDEFF3108372B6C6
:102A2000026803F001030AB11168016003B962B6DC
:102A300010467047814203460DD3426891420AD244
:102A4000EFF3108072B61A680A6010F00100196086
:102A500003D162B6704701207047002070470323FE
:102A600003700023438043608360C36070470000AD
:102A7000438870B504461BB38068036AA34203D140
:102A8000E368036206E0134623B1DA68A242FAD192
:102A9000E268DA6090F82430026A3AB1516819B1FC
:102AA00089788B4238BF0B46D268F6E782789A4223
:102AB00006D08370164B1B68984201D0FFF7DCFDEF
:102AC000656885B12046FFF745FD00210546FEF704
:102AD0005BFE2846FFF7EAFD01236B700D4829468F
:102AE000FFF720FDECE70B4843686BB1084E9A787E
:102AF00031688B789A4207D9FFF714FD33680122B9
:102B00005A70284600F0FEF90020207070BD00BF0A
:102B1000B4130020741300202DE9F84343880546C0
:102B2000002B61D0324F81683A6891425CD1013B01
:102B30009BB2438013B10020BDE8F8830B6A834247
:102B400003D1C3680B6206E0134623B1DA68AA42D8
:102B5000FAD1EA68DA6091F824300C6A3CB1626814
:102B60001AB19278934238BF1346E468F6E78B7047
:102B70006A68DFF8808042B32846FFF7EBFC214605
:102B80000646FEF701FE3046FFF790FD336AEB6024
:102B90004FF001093968D8F80430A5F80290AE600A
:102BA0008A789B7835629A4201D3304619E04046D4
:102BB000FFF7B8FC40463146FFF7B4FC0C4B1B68EE
:102BC00083F8019086F801900AE0D8F80420927802
:102BD0009A42B0D94046FFF7A5FC3B6801225A70E3
:102BE000204600F08FF9A6E7FF20BDE8F88300BF7C
:102BF000B413002074130020438870B504460E46B9
:102C0000144D2BB92A688260116AC160106203E01A
:102C1000826829688A4203D101336380002070BD35
:102C2000B6B18B789178994203D293708068FFF7A0
:102C300023FD626822B120462968FFF773FC03E098
:102C40002B6863605A609C603046092100F07EF971
:102C5000012070BDB4130020034B00221A60034A08
:102C60001268DA80704700BFA8130020B48A0008F9
:102C700008B5104B10485A68104B196891421FBF95
:102C80001A60DA8802F1FF3102681CBF52189A807C
:102C90009A8803889A420BD1084B064800221A6092
:102CA000FFF758FCBDE8084001460248FFF73ABC70
:102CB00008BD00BF74130020FC130020A8130020DF
:102CC00002230370002343604180704770B50446BF
:102CD000656885B12046FFF73DFC00210546FEF7FB
:102CE00053FD2846FFF7E2FC01236B700C48294690
:102CF000FFF718FCECE70A4843686BB1094E9A7875
:102D000031688B789A4207D9FFF70CFC33680122AF
:102D10005A70284600F0F6F80020207070BD00BF01
:102D200074130020B4130020426810B562B1FFF79D
:102D300011FC01210446FEF727FD2046FFF7B6FCF3
:102D4000204600F0DFF802E0428801324280002095
:102D500010BD08B50021FFF7BDFCBDE8084000F03C
:102D60001BB80000426810B57AB1FFF7F3FB0446C8
:102D7000FFF79CFC012161702046FEF705FD21460E
:102D80000448BDE81040FFF7CDBB428801324280C5
:102D900010BD00BF74130020054B1B7823B9054BF1
:102DA0004FF080521A607047034B01221A7070472F
:102DB000E507002004ED00E0E407002038B51A4BD9
:102DC0001A4D186801234370FFF7D6FB6C78AA7878
:102DD000164B0AB303EBC403586802781AB9198971
:102DE000FFF776FB07E0012A03D19968FFF77CFD26
:102DF00001E0FFF7B7FFEB7801349C4208BF0024E5
:102E0000EFF31083EFF3108272B6AA78013AAA703A
:102E1000002BDCD162B6DAE75C700548FFF79AFB5D
:102E2000BDE8384000F054B8B4130020EC0D002089
:102E300074130020084B1A68084B1A6000225A606D
:102E4000072243F8042C064A136843F07F431360BB
:102E50004FF0FF30704700BFC48A000814E000E064
:102E600020ED00E07047000008B50B4B1868012307
:102E70004370FFF781FBFFF7FBFE084A136801333D
:102E80001360FFF7A9FBFFF787F90548FFF762FB1F
:102E9000BDE8084000F01CB8B4130020FC1300206B
:102EA00074130020084B1B68DA78022A0AD01A6BC8
:102EB000DB6A9A4203D81268044B9A4202D001207E
:102EC000FEF79CBC704700BFB4130020A52E5AE249
:102ED000054B586002234370044B1B681BB11B69F0
:102EE0000BB1C06B18477047B4130020A413002027
:102EF00008B50348FFF72EFBBDE80840FFF7E8BF21
:102F00007413002070B5044618B9BDE87040FFF78F
:102F1000EFBF0C4EA278306883789A424FF00105DB
:102F200008D9FFF729FB33685D702046BDE8704083
:102F3000FFF7CEBF657021460348BDE87040FFF73C
:102F4000F1BA00BFB41300207413002038B50D4649
:102F5000014680B14FF6FF739842074C02D02068BB
:102F6000FFF714FB236805485D70FFF7F3FABDE82F
:102F70003840FFF7ADBF38BDB413002074130020F4
:102F8000024B186800B1C078704700BFB41300202E
:102F900010B598B9194B1B68997083F8241018481C
:102FA00043689B788B4224D9144C2168FFF7BAFA06
:102FB000236801225A70FFF79BFF1AE0114B1B8810
:102FC000984218D80138104B53F820409CB10B4B55
:102FD000A1701B6884F824109C42E0D02046FFF7C3
:102FE0004BFB6378012B04D10548FFF7B3FAFFF7D9
:102FF00089FF002010BDFF2010BD00BFB4130020CA
:1030000074130020308A0008D00D00202DE9F0470D
:1030100011F0FF0F0D468146224816469A4608BF1A
:103020000135FFF7FAFC044610B90020BDE8F0872F
:103030001D4B06631B88280AA06200214E1C9E427D
:10304000F3D81A4F07EB8602884652F8042C314613
:10305000002AF3D1EDB20123E670C4F81CA0C4F835
:1030600038A022706370A57084F824506260A2605A
:10307000E26022612262A282E2822283628384F879
:10308000252018B90A48FFF7C8FC206320464946A6
:10309000FEF72EFB204647F82840FFF733FF304667
:1030A000BDE8F08798110020308A0008D00D00207C
:1030B000C00B00202DE9F0474B4D18B12B68DB7891
:1030C00098423BD12C6800236370FEF7C6FBE06298
:1030D000FFF7E8FE2B681C6AFCB16368BBB12046B1
:1030E000FFF738FA002106460127FEF74DFB304670
:1030F000FFF7DCFA77703D483146FFF713FAE368D3
:10310000326A6780A660E26034621C46E4E7E268E7
:103110006380A360E3601446DEE72A683449D3780D
:103120003448013B41F82340116BFFF783FC2968C9
:1031300031480C63FFF77EFC2C604CE02F4B1B8862
:1031400098424BD82A4B00F1FF389A4653F8286032
:10315000002E43D03046FFF779FA3046FFF7A6FA43
:10316000346A14B36368D3B12046FFF7F3F9002142
:1031700007464FF00109FEF707FB3846FFF796FABE
:1031800087F8019019483946FFF7CCF9E3683A6AA5
:10319000A4F80290A760E2603C621C46E1E7E268A6
:1031A0006380A360E3601446DBE74AF828401148D7
:1031B000316BFFF73FFC314634630F48FFF73AFCB1
:1031C0000A48296843689A788B789A4209D901237A
:1031D0004B70FFF7A7F9FFF78BFE02E0FF20BDE879
:1031E000F0872046BDE8F087B41300207413002058
:1031F000D00D0020C00B002098110020308A00085C
:1032000038B52C4B1A880023934205D22A49002056
:1032100041F823000133F7E7284B29481988294C46
:103220004022FFF7D5FB284B28481A88284B42F04C
:1032300000421968FFF7CCFB264B1868264B082282
:103240001988FFF7C5FBFF230025E3701F48A5621F
:10325000012363702570A57084F824506560A56013
:10326000E56025612562A582E5822583658384F872
:103270002550FFF7D2FB194920632046FEF738FAA4
:10328000174B04221A705D60164B1A70DD601D61C9
:103290009D82154B20461C6002236370FFF718FEC9
:1032A000124A134B12781D705D70DA70BDE8384019
:1032B000FFF7D2BC308A0008D00D0020328A000807
:1032C00098110020BC1300202C8A0008C00B00209D
:1032D000B08A000888070020AC8A0008F9170008A7
:1032E000741300208C130020B4130020C88A000837
:1032F000EC0D002008B51E4B1A6842F47F021A60DC
:103300001B681B0203F07F43DB43B3FA83F3194AC4
:1033100019481268DBB2C3F10803C2F302229A42D1
:1033200028BF531C6FF08071026801FA03F303F0A9
:103330007F4122F07F430B430360FFF77BFD0F4B80
:103340000028186012DB00F1604000F56440FF22A5
:1033500002701A6853099B0003F1604303F561434F
:1033600002F01F02012101FA02F21A6008BD00BF3B
:1033700020ED00E00CED00E01CED00E0B0130020BB
:10338000DFF820D0002103E0074B5B5843500431A5
:103390000648074B42189A42F6D302F047FAFCF768
:1033A00021FFFEE700300020D094000888010020B3
:1033B00040020020FEE70000354B5A69D20770B585
:1033C00028D59868334E9968334D9A68334C30400D
:1033D000B04201EA050104BF01269E60A9422C4BC0
:1033E00002EA040204BF4FF480759D60A24204BF4C
:1033F0004FF480349C60274B984205D0264B99426D
:1034000002D0264B9A4205D1254B264A1B681068EC
:10341000012198471E4CE2686369960707D09D0713
:1034200005D51F4B1F4A1B68106800219847A169EA
:10343000626963698C0709D5900507D5190405D51C
:10344000174B184A1B68106805219847104A956960
:103450005469526915F0040504F4806408D03CB145
:10346000120405D50E4B0F4A1B68106807219847B8
:10347000074B5B6955B14CB11B0407D5084B094A92
:103480001B6810680221BDE87040184770BD00BF7E
:103490000064004003000004000300080000031063
:1034A000EC070020E8070020FFF786BFFFF784BF86
:1034B0007FB5052843D8DFE800F003121E2A423604
:1034C000214B5A6942F400325A615B6903F40033BC
:1034D0000193019B4FF0904007B05DF804FB1A4B3D
:1034E0001A485A6942F480225A615B6903F48023C6
:1034F0000293029BF0E7144B15485A6942F40022EC
:103500005A615B6903F400230393039BE4E70E4BCA
:1035100010485A6942F480125A615B6903F48013BF
:103520000493049BD8E7084B0B485A6942F4800285
:103530005A615B6903F480030593059BCCE7074858
:1035400003F0AAF80020C7E700100240000400487A
:1035500000080048000C004800140048C08C000817
:10356000431C10B5044604D174220649064803F0F2
:1035700017F82046002100F0A1FC04F00F04012000
:10358000A04010BDE18C0008248D000870B50446F1
:103590004B1C0E46218218D0C1F30310FFF788FFA1
:1035A00005463046FFF7DCFF238A084A656103F0D1
:1035B0000F03206052F82330A36105F1100363600C
:1035C00005F118032835A360E56070BD708E000812
:1035D000B0F9100000F00ABD10B58369446971B9F3
:1035E000216893FAA3F2B2FA82F20320520000FAA1
:1035F00002F221EA020293FAA3F3226010BD2268CC
:1036000093FAA3F1B1FA81F193FAA3F303204900ED
:1036100000FA01F1B3FA83F322EA01025B0001210F
:1036200001FA03F31343236010BD00004C22F0B5F0
:103630004243184EDFF868C0131D33440746002488
:103640004FF0010E16448C4205D139461248BDE8B0
:10365000F04003F021B832680EFA04F5154216D096
:103660001A6BDCF814000EFA02F202420FD09D69C8
:10367000CCF81420186850B12B691A42074B08BFC8
:1036800002211B6818BF0121BDE8F0401847013432
:103690000433D8E7F00700205E8D0008040A0020FC
:1036A0000004014006210846FFF7C0BF0521084677
:1036B000FFF7BCBF01210420FFF7B8BF01210320A1
:1036C000FFF7B4BF01210220FFF7B0BF0121084678
:1036D000FFF7ACBF01210020FFF7A8BF012910B5FB
:1036E00018D11B4C838952B1A26803F00F03994093
:1036F0001143A160836843F00103836010BDA26899
:1037000003F00F03994022EA0101A160836823F0CE
:103710000103F2E70229F1D10D4983895AB1CC683E
:1037200003F00F03012202FA03F32343CB60836803
:1037300043F00203E1E7CA6803F00F03012404FA2F
:1037400003F322EA0303CB60836823F00203D4E788
:1037500000040140B0F90C3099B270B501F00F06C9
:1037600006F00C0404F1804404F5803401F00301F8
:10377000A56889000F228A40C3F3031325EA0205D6
:103780008B402B43A3600F4B01221968B2401143B9
:1037900019608468E50742BF996811439960A107E1
:1037A00042BFD9680A43DA6090F90030002B08DB89
:1037B0005909012203F01F0302FA03F3024A42F8F7
:1037C000213070BD0004014000E100E02DE9F04F20
:1037D00092464A1C85B080460C4664D0334A344F2A
:1037E000916941F001019161926902F00102039235
:1037F000039A04F00F090C2202FB0972C4F30310B0
:103800005568062D47D8DFE805F0043A3C3E4042B3
:103810004400284E0193FFF74BFE0C2101FB09F1F8
:103820007A1857F801E0244FA8F80C404C2169435E
:1038300001247B5892F90820C8F8045004FA0EF4C9
:103840004FF0000B1C4388F80020C8F808B07C50EB
:10385000132101FB05E507EB8501019B4B60174B2D
:10386000C861C3F800A0164BC1F834909B681032B1
:10387000404643F82260FFF76DFF584610E0114EB6
:10388000C8E7114EC6E7114EC4E7114EC2E7114E0C
:10389000C0E7114EBEE7114802F0FEFE4FF0FF30C8
:1038A00005B0BDE8F08F0846FAE700BF00100240FF
:1038B000888D0008D5360008F0070020040A002093
:1038C00000ED00E0CD360008C5360008BD36000822
:1038D000B5360008AD360008A5360008378D00085B
:1038E0008389184A03F00F03012110B501FA03F38D
:1038F0009468DB431C409460D4681C40D460146816
:103900002340136090F90030002B0CDB5A0903F0C0
:103910001F0301FA03F320320B4941F82230BFF3B1
:103920004F8FBFF36F8F90F90030002B09DB5A09DE
:10393000012103F01F0301FA03F36032024941F849
:10394000223010BD0004014000E100E0838903F053
:103950000F020C235343104A70B54468D658FFF742
:10396000BFFF4C210D4A6143012000FA06F5505873
:10397000132303FB046320EA0500505002EB83008D
:1039800000214160981D0C3302EB800002EB8303A1
:103990004160596070BD00BF888D0008F0070020AD
:1039A00070B5134C23681A69950707D5DA68900734
:1039B00004D56FF002021A6102F0D2FB23681A6983
:1039C000510713D5DA68520710D56FF00402094E7B
:1039D0001A615D6A3368EB1AB3F57A7F06D300F09B
:1039E0001FFF236805F57A729A63356070BD00BFCA
:1039F00078150020080A002030B589B001A903A875
:103A000001F0C4FA01F092FA254B0190DA69254CD5
:103A100042F00102DA61DA6902F001020292029ACE
:103A20001A6942F001021A611A6922F001021A6150
:103A3000069A4FF0804323604FF0FF33E3601A4B48
:103A4000002A2BD1B0FBF3F0013800256060154847
:103A50002561A5606561A56101F002FB134B144A65
:103A60009B681048C3F8B020124B4FF080521A6088
:103A7000294601F043FC04210A4801F03FFC236879
:103A80000D4A596A1160126802F57A729A63DA680F
:103A9000284642F00402DA6009B030BD4000D1E7A8
:103AA000001002407815002040420F0000ED00E0B9
:103AB000A139000800E100E0080A002010B588B034
:103AC00002F086FD132101A802F0C6F90424039B2D
:103AD000019A1A60962002F013FE049B019A1A6064
:103AE000962002F00DFE013CF1D10424039B019AC3
:103AF0001A604FF4C87002F003FE049B019A1A602A
:103B00004FF4C87002F0FCFD013CEFD1DEE700008D
:103B100070B50D46A0B0044602F05AFD2B46224671
:103B20008021684603F09AFB051E03DC02F07CFD51
:103B300020B070BD094B1B6823B90F220221084831
:103B400000F0AAFC064E00241DF804103046013493
:103B500000F03AFEA542F7D1E8E700BF540B002081
:103B6000001400200FB407B504A951F8040B01910B
:103B7000FFF7CEFF03B05DF804EB04B0704708B563
:103B800001F0B6FE00F03AFE01F0ABFEBDE80840E1
:103B900001F0AEBE08B5084B1B685BB902210748AF
:103BA0000F2200F079FC4FF416510448BDE808409C
:103BB00000F016BD08BD00BF540B0020001400200B
:103BC000022810B501DC002010BDC31E0B4A52F8BC
:103BD0002300002142F8231030B902F097FD092399
:103BE00003604FF0FF3010BD03685B699847041E07
:103BF000E9DA02F08BFD64420460F2E70C0A00206F
:103C00000228F8B50D4614460EDC134B1B680BB9A1
:103C1000FFF7C0FF114E2F19BD4210D015F8011B40
:103C2000304600F0D1FDF7E703380D4B53F8200084
:103C300038B902F06BFD092303604FF0FF342046D2
:103C4000F8BD0368DB689847041EF8DA02F05EFDF1
:103C500063420360F3E700BF540B00200014002010
:103C60000C0A0020022810B50C460BDC104B1B6818
:103C70000BB9FFF78FFF0F4800F090FD2070012473
:103C8000204610BD03380C4B53F8200030B902F029
:103C90003DFD092303604FF0FF34F1E703689B68A3
:103CA0009847041EECDA02F031FD63420360E7E757
:103CB000540B0020001400200C0A0020022810B52C
:103CC00016DD03380B4B53F820402CB902F01EFDD3
:103CD00009230360204610BD23682046DB6998470E
:103CE000041EF7DA02F012FD644204600024F1E7DA
:103CF0000124EFE70C0A0020022810B506DC02F0D0
:103D000005FD1D2303604FF0FF3010BD03380A4B43
:103D100053F8200018B902F0F9FC0923F2E7036810
:103D20001B699847041E04DA02F0F0FC6442046048
:103D3000E9E7204610BD00BF0C0A0020022838B574
:103D40000D4604DC4FF400534B60002038BD0338AF
:103D50000D4B53F8204034B902F0D8FC092303601E
:103D60004FF0FF3038BD23682046DB6998470028B4
:103D700014BF4FF400534FF400436B602368204698
:103D80009B6A98472861E0E70C0A002008B50120EB
:103D900000F036F80C4A136810B51844EFF30881A8
:103DA000884205D3094B0C221A604FF0FF3010BD3A
:103DB00007490C6824B10749096821448842F1D2B7
:103DC0001060184610BD00BFBC010020B8150020CF
:103DD0000C0B0020100B0020074C08B5236805468B
:103DE000986802F047FD2368D86802F043FD0DB1E2
:103DF000FFF764FEFEE700BF2802002001207047A5
:103E000008B5FFF7E9FF01207047000010B502F088
:103E10007FFE044610B9024802F03EFC204610BD69
:103E2000508E000802F07CBE02F07ABE0048704757
:103E3000488E000870470000074B08499A680848F8
:103E400010B5043A52F8044F41F8044F8142F9D1B9
:103E50004FF000529A6010BD00ED00E0FCFFFF1F24
:103E60008401002008B5FFF7E7FFFFF788FEFDF7A4
:103E7000E3FC08BD08B5FFF7DDFFBDE80840FCF72F
:103E800021BB30B5C36891FAA1F4B4FA84F491FA75
:103E9000A1F10325B1FA81F1640005FA04F44900A7
:103EA00023EA040302FA01F11943C16030BD012A7B
:103EB00002D0022A18BF0022FFF7E3BF2DE9F0412C
:103EC0000E46411C044604D13E224449444802F0B7
:103ED00067FB04F00F08434BC4F3031053F828505A
:103EE000FFF7E6FA06F007070446826895FAA5F39D
:103EF000B3FA83F395FAA5F103205B00B1FA81F1DF
:103F000000FA03F322EA03034A0000FA02F2134321
:103F1000A36087425AD8DFE807F05E1D021DB8F1A2
:103F2000070FC6F303203BD9626A2B0A93FAA3F169
:103F3000B1FA81F193FAA3F34FF00F0EB3FA83F3C2
:103F400089000EFA01F19B0022EA010200FA03F354
:103F5000134363623B46226895FAA5F0B0FA80F0FD
:103F600095FAA5F14FF0030EB1FA81F140000EFA77
:103F700000F0490022EA00028B40013F1343012F69
:103F8000236005D8636832074CBF2B43AB436360A3
:103F9000C6F3011229462046BDE8F041FFF787BF6E
:103FA000226A95FAA5F3B3FA83F395FAA5F14FF0D7
:103FB0000F0EB1FA81F19B000EFA03F3890022EA99
:103FC000030200FA01F313432362C3E767220349A4
:103FD000054802F0E5FA0023BDE700BFB08E0008F7
:103FE000248D0008708E0008BE930008431C70B535
:103FF00006460D4604D188221E491F4802F0D0FA19
:1040000006F00F021D4BC6F3031053F82240FFF7D2
:104010004FFA066894FAA4F1B1FA81F394FAA4F283
:1040200059000323B2FA82F28B4033405200D3404E
:10403000013B012B05D8EB1E022B436809D8234313
:104040004360032D08D101222146BDE87040FFF7EF
:104050002EBF23EA04034360012DF4D0052D01D0C7
:10406000022D01D10222EFE721460022BDE8704077
:10407000FFF707BFB08E0008248D0008708E00087F
:1040800030B507EE101A284B02681A60B5EEC07AF8
:10409000F1EE10FA89B0054628D4F7EE007AB4EEB6
:1040A000677AF1EE10FAC8BFB0EE677AD5ED037A01
:1040B000F8EE677A602267EE877A0192FCEEE77A83
:1040C000AA68C5ED047A17EE903AB3FBF2F30293B7
:1040D0000023039305930693049307932B7D013BE1
:1040E000032B16D8DFE803F01B0517199FED0F7A95
:1040F000DCE70424224601A90B4801F07EF910B147
:104100000B4802F0C9FA6B7D074821464BB101F01C
:1041100063F909B030BD0824ECE70C24EAE7002479
:10412000E8E701F0C9F8F4E7140B002000000000F4
:104130007C8F0008C368ABB107EE903AD0ED046AFB
:10414000B8EE677AF8EE666AC6EE877AB7EE007A5E
:10415000F4EE477AF1EE10FAC8BFF0EE477A17EEA8
:10416000900A7047DFED017AF9E700BF0000000018
:104170002DE9F0474C4C0268226086B000230E46C1
:1041800000930546FFF7D6FF116A41F21113194259
:10419000074608D1116A40F24443194202BF13682E
:1041A00023F001031360694601A800F0EFFE3F48C9
:1041B0002968002380465FFA83F9013350F83920DB
:1041C0008A42F8D111B93A4802F066FA08EBC908F8
:1041D00098F804306BBB00F0A9FE00900498009999
:1041E0000123AB60334B48BBB1FBF3F3013B63608E
:1041F00006F1FF3E4FF0000962682E4BC4F80CE058
:104200004FEA410CCA46BCFBF3FCB1FBF3F14FF69D
:10421000FE787346B3F5803F14D2B2F5803F11D2D9
:10422000BAF1000F00D06260B9F1000F1ED0E36058
:104230001CE000F093FE00900598D0E74A00B2FB26
:10424000F3F3D3E7AB685B00AB6030BB01FB03F279
:10425000BEFBF3F3434502F1FF3221D8B2F5803FB4
:104260001ED315486260E36002F016FA00230E4880
:104270002361A36000F00EFF10B10F4802F00CFAAA
:10428000EE6039462846FFF7FBFE2268136843F0CC
:104290000103136006B0BDE8F0870CFB03F2D7E71B
:1042A0004FF00109CA46B5E7140B0020948F0008AF
:1042B000678F000840420F007C8F000870B50E46E3
:1042C000044686B04149304601F01AFF20600130B3
:1042D00004D12E223E493F4802F062F93B49304664
:1042E00001F02AFF431C054604D1322238493A48DE
:1042F00002F056F9C5F304332375384A2368C5F331
:1043000040459342657518D102F56442916941F4C4
:1043100000619161926902F400620092009A304A51
:10432000934225D12F4B9A6942F480229A619B696E
:1043300003F480230593059B1AE0B3F1804F0AD163
:10434000284AD16941F00101D161D26902F001022C
:104350000192019AE3E7244A93421AD1214BDA6988
:1043600042F00202DA61DB6903F002030293029B6E
:104370001649304601F088FE0023E36023610123E3
:10438000A680A36044F620612046FFF7F1FE06B048
:1043900070BD164A93420AD1124B9A6942F4803298
:1043A0009A619B6903F480330393039BE0E7104A0F
:1043B0009342B4D10B4B9A6942F400329A619B69E3
:1043C00003F400330493049BD2E700BFD48A0008AF
:1043D000F18E0008368F00084E8F0008002C014037
:1043E000004801400010024000040040004001402D
:1043F0000044014007EE901AB8EEE77AD0ED037A58
:10440000F8EE677AC7EE276A16EE901AFFF738BE05
:104410000FB407B5064B07491B6805AAD868019277
:1044200002F0D8FC03B05DF804EB04B0704700BFA5
:1044300028020020CC8F00084368164970225A4396
:1044400010B404685450531882685A60C2689A6065
:104450000269DA6042691A61C2699A610022A3F8AE
:104460005220DA61A3F85020A3F85A20A3F858206C
:10447000B0F91A20013206D108225A6118465DF8B7
:10448000044B01F0A0B9B0F9182001320CBF04228E
:104490000C22F2E724140020F0B50E4685B0044645
:1044A00045493046154601F02BFE4449074628464B
:1044B00001F026FE0146384601F004FE206001307E
:1044C00004D134223E493F4802F06AF823683E4A4C
:1044D000934242D13D4BDA6842F48042DA60DA68B6
:1044E00022F48042DA609A6942F480429A619B69C0
:1044F00003F480430193019B002363602E493046FF
:1045000001F0C2FD2D49284601F0BEFD721C03D00A
:1045100001213046FFF76AFD6B1C03D001212846BC
:10452000FFF764FD4FF41653A3600023E36023619B
:104530006361E361268365832046FFF77DFF226880
:10454000234B9A4207D1234B234801221A6021466C
:10455000242202F0FCFA05B0F0BD1D4A934213D1AB
:104560001A4B1A6942F400321A611A6922F40032B5
:104570001A61DA6942F40032DA61DB6903F400336C
:104580000293029B0123B8E7144A9342B6D10F4B22
:104590001A6942F480221A611A6922F480221A618F
:1045A000DA6942F48022DA61DB6903F48023039341
:1045B000039B0223A1E700BF788C0008308C000821
:1045C000F68F00083B9000080038014000100240C0
:1045D00000440040540B002000140020004800401C
:1045E00010B581600C46FFF727FF28B1214603482C
:1045F000BDE81040FFF70CBF10BD00BFCC8F000816
:10460000426870235343054AD358DA69120744BFFE
:1046100008221A62D869C0F34010704724140020A1
:10462000426870235343034AD358D869C0F3C0107B
:10463000704700BF2414002070B5174E054656F889
:104640002000002827D07023144C6B43E358DA690C
:10465000120606D5DB69190603D5114B01211B682B
:10466000984770236B43E358DA69920608D5DB69F3
:10467000980605D50A4B56F825001B680021984777
:1046800070235D436359DA69110704D5DA691207AB
:1046900044BF08221A6270BD5C0B00202414002065
:1046A000580B00200020FFF7C7BF0120FFF7C4BF51
:1046B0000220FFF7C1BF0000034B19604168034BA4
:1046C00043F82120704700BF580B00205C0B0020EE
:1046D00070B590E84800284883421AD1274C25231A
:1046E0007020274D70433AB309BB29580A6842F03D
:1046F00020020A60234A03F11001926842F8214027
:1047000003F007025909012393401F4A42F8213060
:1047100070BD1E48834202D11D4C2623E0E71D4890
:10472000834213BF00241C4C27232346D8E7295873
:104730000A6842F08002DCE72A5839B9116821F092
:10474000200111601268110607D570BD116821F0B3
:1047500080011160126892060DD45A09012103F0FC
:10476000070301FA03F32032074941F82230BFF36F
:104770004F8FBFF36F8F70BD00380140A546000812
:104780002414002000ED00E000E100E000440040BF
:10479000AB46000800480040B146000838B54568FF
:1047A00004462046FFF72CFF0028FAD07023054A64
:1047B000E1686B43D358988C09B9C0B238BDC0F3D7
:1047C000080038BD2414002070B5466805460C4624
:1047D0002846FFF725FF0028FAD07023054AE9682C
:1047E0007343D35811B9E4B21C8570BDC4F30804F7
:1047F000FAE700BF2414002070470000074A08B5FC
:10480000136843F010031360032000F017F80F2023
:10481000FFF7F2F8FFF7F0FF002008BD002002408C
:10482000024A136801331360704700BF74150020FB
:10483000014B1868704700BF74150020074AD36801
:1048400023F4E0631B041B0C43F0BF63000243F43A
:10485000003300F4E0600343D360704700ED00E0F4
:104860000368DA072DE9F347054611D42B689B0747
:1048700000F188802B681C0700F1F8802B6858072E
:1048800000F14181EA69002A40F0D781002021E04F
:10489000BA4C636803F00C03042B07D0636803F081
:1048A0000C03082B19D16368DF0316D54FF40033CE
:1048B00093FAA3F2216893FAA3F3B3FA83F303F014
:1048C0001F03012202FA03F30B42CFD06B68002BC7
:1048D000CCD1012002B0BDE8F0876A68B2F5803F14
:1048E00025D1236843F480332360E36AA96823F069
:1048F0000F030B43E36252B3FFF79AFF4FF4003606
:104900008046012796FAA6F3226896FAA6F3B3FA30
:1049100083F303F01F0307FA03F31342A6D1FFF753
:1049200087FFA0EB08006428ECD90320D2E72368B6
:1049300032B923F480332360236823F48023D3E740
:10494000B2F5A02FF5D143F480232360C9E7FFF728
:104950006FFF4FF400368046012796FAA6F32268CF
:1049600096FAA6F3B3FA83F303F01F0307FA03F3EF
:1049700013423FF47BAFFFF75BFFA0EB0800642816
:10498000EBD9D2E77D4C636813F00C0F07D0636856
:1049900003F00C03082B21D16368DE031ED402232D
:1049A00093FAA3F2216893FAA3F3B3FA83F303F023
:1049B0001F03012202FA03F30B4202D02B69934238
:1049C00087D12168F82393FAA3F3B3FA83F26B69D2
:1049D000934021F0F802134323604BE72A69012634
:1049E0000AB396FAA6F3B3FA83F303F1845303F5FB
:1049F00084139B0002271E60FFF71AFF804697FA78
:104A0000A7F3226897FAA7F3B3FA83F303F01F031F
:104A100006FA03F31342D4D1FFF70AFFA0EB080014
:104A20000228ECD981E796FAA6F3B3FA83F303F1EF
:104A3000845303F584139B0002271A60FFF7F8FEE6
:104A4000804697FAA7F3226897FAA7F3B3FA83F39D
:104A500003F01F0306FA03F313423FF40BAFFFF713
:104A6000E7FEA0EB08000228EBD95EE7AA69434EF7
:104A7000434901241AB394FAA4F3B3FA83F30B4421
:104A80009B0002271C60FFF7D3FE804697FAA7F32E
:104A900097FAA7F397FAA7F3726A97FAA7F3B3FA0C
:104AA00083F303F01F0304FA03F313427FF4E6AE2B
:104AB000FFF7BEFEA0EB08000228E7D935E794FA1D
:104AC000A4F3B3FA83F30B449B0002271A60FFF7A9
:104AD000AFFE804697FAA7F397FAA7F397FAA7F3E2
:104AE000726A97FAA7F3B3FA83F303F01F0304FA89
:104AF00003F313423FF4C2AEFFF79AFEA0EB0800A7
:104B00000228E7D911E71D4CE369D90034D4E369E1
:104B100043F08053E361E36903F080530193019B09
:104B20000126184F3B68DA052ED5EB68012B3CD1E6
:104B3000236A43F001032362FFF77AFE02278246CD
:104B4000B9464FF0010897FAA7F397FAA7F3002B9D
:104B50006BD0226A99FAA9F3B3FA83F303F01F0327
:104B600008FA03F3134257D0002E3FF48BAEE369EB
:104B700023F08053E36185E60026D2E7001002406F
:104B800020819010007000403B6843F480733B60CC
:104B9000FFF74EFE80463B68DB05C6D4FFF748FEB4
:104BA000A0EB08006428F6D9BFE63BBB236A23F0DC
:104BB00001032362236A23F004032362FFF738FE14
:104BC00002278246B9464FF0010897FAA7F397FAF1
:104BD000A7F373B3226A99FAA9F3B3FA83F303F044
:104BE0001F0308FA03F31342BED0FFF721FE41F280
:104BF0008833A0EB0A009842E7D996E6052B236A92
:104C000003D143F00403236292E723F001032362FC
:104C1000236A23F004038EE7FFF70AFE41F288338C
:104C2000A0EB0A0098428ED97FE697FAA7F3626A52
:104C300090E797FAA7F3626ACDE7414C636803F007
:104C40000C03082B3FF445AE022A4FF0807352D17B
:104C500093FAA3F3B3FA83F303F1845303F58413B4
:104C60009B0000221A60FFF7E3FD4FF000778046BB
:104C7000012697FAA7F3226897FAA7F3B3FA83F30A
:104C800003F01F0306FA03F313422DD162686B6A27
:104C9000296A22F474120B43134363604FF080734C
:104CA00093FAA3F3B3FA83F303F1845303F5841364
:104CB0009B004FF000751E60FFF7BAFD0126074606
:104CC00095FAA5F3226895FAA5F3B3FA83F303F0F6
:104CD0001F0306FA03F313427FF4D8ADFFF7A8FDD4
:104CE000C01B0228ECD920E6FFF7A2FDA0EB0800CC
:104CF0000228BED919E693FAA3F3B3FA83F303F1BA
:104D0000845303F584139B0000221A60FFF790FD83
:104D10004FF000750746012695FAA5F3226895FA2B
:104D2000A5F3B3FA83F303F01F0306FA03F3134268
:104D30003FF4ACADFFF77CFDC01B0228ECD9F4E5D5
:104D40000010024010B5134C616801F00C03082BF1
:104D50001ED14FF4701393FAA3F301F47012B3FA57
:104D600083F322FA03F30C4AD05CE36A0F2292FA2F
:104D7000A2F2B2FA82F203F00F03D340074AD25CE8
:104D8000CB034ABF064B074BB3FBF2F3584310BDAE
:104D9000034810BD001002405790000867900008BB
:104DA00000127A0000093D005C4A136803F0070313
:104DB0008B422DE9F04106460D4630D3326891070B
:104DC0003AD4D20740D4554A136803F007039D42F2
:104DD000C0F092803268524C12F0040F40F097807D
:104DE000130706D56368326923F4605343EAC203AC
:104DF0006360FFF7A7FF6368F02292FAA2F2B2FAAB
:104E000082F203F0F003D340464AD35CD840464BCD
:104E100018600F20FEF7F0FD0020BDE8F081136858
:104E200023F007030B431360136803F00703994251
:104E3000C4D00120BDE8F0813949B0684B6823F047
:104E4000F00303434B60BCE77268354C012A28D15C
:104E50004FF4003393FAA3F1216893FAA3F3B3FA62
:104E600083F303F01F0302FA03F30B42E1D06368FC
:104E700023F003031A436260FFF7DAFC7368012B27
:104E8000074641F288381FD1636803F00C03042BF6
:104E900099D0FFF7CDFCC01B4045F5D90320BDE8F4
:104EA000F081022A0CBF4FF00073022393FAA3F1A2
:104EB000206893FAA3F3B3FA83F303F01F030121ED
:104EC00001FA03F30342D1E7022B10D1636803F028
:104ED0000C03082B3FF477AFFFF7AAFCC01B40453B
:104EE000F4D9DBE7FFF7A4FCC01B4045D6D86368C4
:104EF00013F00C0FF6D166E7136823F007032B437A
:104F00001360136803F007039D4292D162E7636860
:104F1000F16823F4E0630B43636061E70020024023
:104F2000001002407B900008C0010020084B4FF4A5
:104F3000E0625B6892FAA2F2B2FA82F203F4E063F2
:104F4000D340044AD35C044A1068D840704700BF7D
:104F5000001002408B900008C0010020084B4FF465
:104F600060525B6892FAA2F2B2FA82F203F46053E2
:104F7000D340044AD35C044A1068D840704700BF4D
:104F8000001002408B900008C00100200F23036036
:104F90000B4B5A6802F0030242605A6802F0F002BA
:104FA00082605A6802F4E062C2605B68DB0803F466
:104FB000E0630361034B1B6803F007030B6070475A
:104FC000001002400020024070477047214A0368E9
:104FD000904210B505D0B0F1804F02D01E4CA042D7
:104FE0000CD14C6823F07003904243EA040310D0C4
:104FF000B0F1804F0DD0184A90420AD0174A904223
:1050000007D002F58062904203D002F580629042A0
:1050100003D1CA6823F4407313434A6923F0800321
:10502000134303608B68C3620B688362094B984229
:105030000BD003F5A053984207D003F58063984244
:1050400003D003F58063984201D10B690363012308
:10505000436110BD002C01400004004000400140AD
:1050600010B50446A0B190F83D3003F0FF021BB923
:1050700080F83C20FFF7A8FF022384F83D30206829
:10508000211DFFF7A3FF012384F83D30002010BD50
:10509000012010BD10B50446A0B190F83D3003F0DA
:1050A000FF021BB980F83C20FFF78FFF022384F832
:1050B0003D302068211DFFF789FF012384F83D3032
:1050C000002010BD012010BD036A23F0010303621C
:1050D000036A70B5446882690D6822F4803222F058
:1050E00073022A438D6823F002032B43174DA84215
:1050F0000BD005F5A055A84207D005F58065A8425C
:1051000003D005F58065A8421AD1CD6823F00803C5
:105110002B430E4DA84223F004030BD005F5A055F8
:10512000A84207D005F58065A84203D005F5806543
:10513000A84205D124F440758E694C6934432C4350
:10514000446082614A684263036270BD002C014082
:10515000036A23F010030362036A426870B584692E
:105160000D6824F0807424F4E64444EA05248D6834
:1051700023F0200343EA0513104DA8420ED1CD6859
:1051800023F0800343EA051323F040034D698E6941
:1051900022F44062354342EA850209E0084DA84204
:1051A000F4D0084DA842F1D005F58065A842EDD0B5
:1051B00042604A6884618263036270BD002C0140D2
:1051C0000040014000440140036A23F480730362FD
:1051D000036A426870B5C4690D6824F4803424F011
:1051E00073042C438D6823F4007343EA0523114DA7
:1051F000A8420ED1CD6823F4006343EA052323F4CB
:1052000080634D698E6922F44052354342EA0512AB
:1052100009E0094DA842F4D0084DA842F1D005F5A7
:105220008065A842EDD042604A68C461C2630362EF
:1052300070BD00BF002C014000400140004401400F
:10524000036A23F480530362026A30B54468C36979
:105250000D6823F0807323F4E64343EA05238D6849
:1052600022F4005242EA05320C4DA8420BD005F55B
:10527000A055A84207D005F58065A84203D005F5E2
:105280008065A84204D14D6924F4804444EA851421
:105290004460C3614B680364026230BD002C01406E
:1052A000036A10B501248C4023EA04030362036AF5
:1052B0008A401A43026210BD10B5044601220068FC
:1052C000FFF7EEFF23680C4A93420BD002F5A05281
:1052D000934207D002F58062934203D002F58062C8
:1052E000934203D15A6C42F400425A641A6842F065
:1052F00001021A60002010BD002C0140FFF7DCBF46
:10530000036A10B504248C4023EA04030362036A91
:105310008A401A43026210BD036A23F48033036299
:10532000026A30B54468436D0D6823F4803323F07E
:1053300070032B438D6822F4003242EA05420D4D82
:10534000A8420BD005F5A055A84207D005F5806509
:10535000A84203D005F58065A84204D14D6924F424
:10536000803444EA0524446043654B6883650262E7
:1053700030BD00BF002C0140036A23F48013036298
:10538000026A30B54468436D0D6823F0807323F4DE
:10539000E04343EA05238D6822F4001242EA0552F5
:1053A0000C4DA8420BD005F5A055A84207D005F535
:1053B0008065A84203D005F58065A84204D14D69F7
:1053C00024F4802444EA8524446043654B68C36523
:1053D000026230BD002C014010B504460422006872
:1053E000FFF78EFF23685A6C42F400425A641A6831
:1053F00042F001021A60002010BD38B590F83C3030
:10540000012B04460D464FF0020010D00123082A5C
:1054100084F83C3084F83D0043D009D8FAB1042A1E
:105420002ED00123002084F83D3084F83C0038BDA4
:10543000102A47D0142A56D00C2AF2D12068FFF740
:10544000FFFE23682969DA6942F40062DA61DA69E9
:1054500022F48062DA61DA6942EA012230E02068EF
:10546000FFF732FE236829699A6942F008029A61BF
:105470009A6922F004029A619A690A439A61D0E714
:105480002068FFF765FE236829699A6942F4006283
:105490009A619A6922F480629A619A6942EA0122C9
:1054A000ECE72068FFF790FE23682969DA6942F08B
:1054B0000802DA61DA6922F00402DA61DA690A4381
:1054C000DA61AEE72068FFF727FF236809695A6DA4
:1054D00042F008025A655A6D22F004025A655A6D6C
:1054E0000A435A659DE72068FFF746FF236809696C
:1054F0005A6D42F400625A655A6D22F480625A6510
:105500005A6D42EA0122ECE77047000038B50446C4
:1055100005682169A368C26928680B4361690B4368
:105520004949134301400B432B606B68E168206AD3
:1055300023F440530B436B60A968A36921F43061E5
:1055400003430B43AB60414B9D4212D103F55843DB
:105550003F491B6B03F00303B2F5004FCB5C3BD11B
:10556000082B36D8DFE803F00F2124352D353535EB
:105570003000384B9D4203D003F580639D425ED1DD
:10558000B2F5004F31D1FFF7D1FC61684A0802EB58
:105590004003B3FBF1F39BB2002023F00F0221681C
:1055A000C3F342031343CB6038BDFFF7D7FCECE7EE
:1055B0006068430803F5740303F51053B3FBF0F37D
:1055C000E9E7FFF7BFFBE0E76068430803F58033D6
:1055D000F4E701200023E0E7082B33D8DFE803F0ED
:1055E00005101B32273232322A00FFF79FFC636816
:1055F00000EB5300B0FBF3F080B2E860002038BD50
:10560000FFF7ACFC636800EB5300B0FBF3F00F4B0B
:1056100080B2D860F2E76268530803F5F40303F53B
:105620009053B3FBF2F3094A9BB2D360E6E7FFF76E
:1056300089FBE7E76268530803F50043F1E7B2F539
:10564000004FC6D0012038BDF369FFEF003801409C
:105650007790000800440040436ADA0710B506D589
:105660000168846A4A6822F4003222434A609C0737
:1056700006D50168C46A4A6822F4803222434A602F
:10568000590706D50168046B4A6822F48022224338
:105690004A601A0706D50168446B4A6822F4004242
:1056A00022434A60DC0606D50168846B8A6822F4CE
:1056B000805222438A60990606D50168C46B8A68C5
:1056C00022F4005222438A605A060FD50168046C06
:1056D0004A6822F480122243B4F5801F4A6005D143
:1056E0004A68446C22F4C00222434A601B0606D575
:1056F0000268816C536823F400230B43536010BD90
:105700002DE9F041069D04460F461646984621684D
:10571000CA6937EA02030CBF01220022B24202D05A
:105720000020BDE8F0816B1CF2D09DB923681A6897
:1057300022F4D0721A609A6822F001029A60202343
:1057400084F8693084F86A30002384F868300320D4
:10575000BDE8F081FFF76CF8A0EB08008542D6D2D7
:10576000E4E773B504460026C666FFF761F82368D0
:105770001B681A07054617D423681B685B070AD500
:105780006FF07E43009300222B464FF480012046A9
:10579000FFF7B6FFA0B92023002084F8693084F811
:1057A000680084F86A300CE06FF07E430093324664
:1057B00003464FF400112046FFF7A2FF0028DBD07C
:1057C000032002B070BD10B5044660B390F8693094
:1057D00003F0FF021BB980F86820FFF795FE2268EE
:1057E000242384F86930136823F0010313602046F2
:1057F000FFF78CFE012816D0636A13B12046FFF72D
:105800002BFF23685A6822F490425A609A6822F06B
:105810002A029A601A6842F0010220461A60BDE826
:105820001040FFF79EBF012010BD00001549D1F8C0
:10583000883043F47003C1F88830134B1A6842F083
:1058400001021A605868114A02405A601A6822F030
:10585000847222F480321A601A6822F480221A605C
:105860005A6822F4FE025A60DA6A22F00F02DA6203
:10587000186B074A02401A6300229A604FF00063D7
:105880008B60704700ED00E0001002400CC07FF814
:10589000CCFC00FF30B591B00323069301230A939B
:1058A000102300240B9302254FF4601306A80794DD
:1058B0000D950E940F93FEF7D3FF80B90F2301933C
:1058C00003904FF480630590294601A80295049344
:1058D000FFF76AFAB0FA80F0400911B030BD2046F7
:1058E000FBE708B5FFF7D6FF00B9FEE708BD0000EB
:1058F000144A1549536803F00C03042B10B501D06A
:10590000082B0AD0114B0B605368114AC3F30313E1
:10591000D25C0B68D3400B6010BD53685068C00365
:1059200049BFD06A0B48094C00F00F00C3F3834312
:1059300048BF013003F1020348BFB4FBF0F043431A
:10594000E1E700BF00100240C001002000127A0011
:105950007B90000800093D0070474FF08043586A73
:1059600070470000054B1B68DA6822F00202DA601B
:105970005863DA6842F00202DA6070477815002056
:10598000034B1A68536943F002035361704700BF29
:1059900078150020034B1A68D36823F00203D36004
:1059A000704700BF78150020024B1B686FF00202A1
:1059B0001A617047781500202DE9F0410546154B16
:1059C00045F8043B04460F46102604F120081C222B
:1059D0000021284601F0C6F832460021404601F079
:1059E000C1F83246002104F1300001F0BBF8324624
:1059F000002104F1400001F0B5F82346064A39467B
:105A00004046FDF7E3FE2846394600F012FA2046EC
:105A1000BDE8F0819C900008FF5A000883681A686E
:105A200043681A4214BF01200020704710B5084B8C
:105A3000044640F8203BFDF789FF04F14000FBF7E6
:105A4000E7F904F13000FBF7E3F9204610BD00BF91
:105A50009C90000810B50446FFF7E8FF2046FEF7CB
:105A6000E1F9204610BDF0B50F4685B0044600F0C0
:105A7000AFFDFD6804F13006203465B1394630468B
:105A8000FBF772FC012201212046FDF727FE00F002
:105A9000CBFD05B0F0BD10222946684601F062F842
:105AA00069463046FBF760FC6846FBF7B1F92A46C9
:105AB000E9E7F0B50F4685B0044600F089FDFD68C2
:105AC00004F14006203465B139463046FBF74CFC02
:105AD000012202212046FDF701FE00F0A5FD05B0E0
