:020000040800F2
:1000000000300020792C0008AD2C0008AD2C000831
:10001000AD2C0008AD2C0008AD2C0008000000003D
:100020000000000000000000000000006112000855
:10003000AD2C00080000000007130008671300083B
:10004000AD2C0008AD2C0008AD2C0008AD2C00082C
:10005000AD2C0008AD2C0008AD2C0008AD2C00081C
:10006000AD2C0008AD2C0008AD2C0008AD2C00080C
:10007000AD2C0008AD2C0008AD2C0008AD2C0008FC
:10008000AD2C0008AD2C0008AD2C0008A12D0008F7
:10009000A52D0008AD2C0008B12C0008AD2C0008DF
:1000A000AD2C0008AD2C0008AD2C0008AD2C0008CC
:1000B000AD2C0008AD2C000800000000AD2C00089D
:1000C000AD2C00080000000000000000AD2C00086E
:1000D00000000000AD2C0008AD2C0008AD2C00087D
:1000E000AD2C0008AD2C000800000000000000004E
:1000F0000000000000000000000000000000000000
:1001000000000000000000000000000000000000EF
:100110000000000000000000AD2C0008AD2C00081D
:1001200000000000000000000000000000000000CF
:1001300000000000000000000000000000000000BF
:10014000AD2C0008AD2C00080000000000000000ED
:10015000000000000000000000000000000000009F
:10016000000000000000000000000000000000008F
:10017000000000000000000000000000000000007F
:1001800000000000AD2C000810B5054C237833B9F1
:10019000044B13B10448AFF300800123237010BD5A
:1001A000300200200000000028820008084B10B533
:1001B0001BB108480849AFF300800848036803B939
:1001C00010BD074B002BFBD0BDE81040184700BF07
:1001D0000000000028820008340200202C020020C9
:1001E00000000000154B002B08BF134B9D46A3F5E4
:1001F000803A00218B460F461348144A121A05F024
:10020000C9FF0F4B002B00D098470E4B002B00D09E
:1002100098470020002104000D000D48002802D05E
:100220000C4803F06CFA05F017FF2000290003F0DA
:100230007BFB03F061FA00BF0000080000300020E3
:1002400000000000193900083002002004140020CA
:10025000FF3600080000000082B001900091009B72
:10026000002B05D0019B9B68019A12681A6004E07C
:10027000019BDB68019A12681A6002B0704700BFE8
:1002800000B583B001900B46ADF80230019B00220F
:100290001A60019B00225A60019B00229A60019B18
:1002A0000022DA60019B00221A82019B00225A611F
:1002B000019B00229A61019ABDF90230104619464D
:1002C00004F015FF019B184603B05DF804FB00BF66
:1002D00000B583B001900091019B18460099FFF78B
:1002E000BBFF03B05DF804FB00B583B00190009143
:1002F00001980099FFF7ECFF019B184603B05DF8E9
:1003000004FB00BF00B583B00190019800F0CAFA69
:10031000019B184603B05DF804FB00BF82B001905A
:100320000091009B184602B0704700BF00B585B031
:100330000390019200930B46ADF80A30039B104ADC
:100340001A60039B04331846002100F0B1FA039BA6
:1003500030331846002100F015FD039B403318464A
:1003600000F070FCBDF90A3003981946019A009B11
:1003700000F052FD039B184605B05DF804FB00BF7A
:10038000F078000800B52DED028BA5B008AB18463B
:10039000854900F08DFA08AB8448194600F05CFDF1
:1003A00008AB184600F09CFA00F01AFA012001216F
:1003B00000F05CFA00F06CF903461A467C4B1A70A8
:1003C0007B4B1B785BB27B487B491A4605F022FACF
:1003D000774B1B785BB2032B23D0784B1B78002B19
:1003E0001FD0734B1B785BB2C3F10802744B83FBC5
:1003F0000231D317C91A0B465B000B445B00D11ABC
:10040000CBB25BB218464FF0000100F051F94FF04B
:100410007E5005F0BFFA00F03BF903461A46644BE4
:100420001A70634B1B785BB2032B0BD0634B1B78AA
:10043000002B07D000F0D4F95E48624905F0EAF9D4
:100440000123AAE00CAB18465F4900F031FA0CAB6F
:100450005E48194604F08FFC0CAB184600F040FAD9
:1004600010AB1846584900F023FA10AB574819460C
:1004700004F0A7FC10AB184600F032FA14AB184693
:10048000514900F015FA14AB5148194604F073FCB9
:1004900014AB184600F024FA18AB18464A4900F08D
:1004A00007FA18AB4A48194604F08BFC18AB1846FB
:1004B00000F016FA1CAB1846434900F0F9F91CABE2
:1004C0004448194604F057FC1CAB184600F008FAE3
:1004D00020AB18463C4900F0EBF920AB3D481946EB
:1004E00004F06FFC20AB184600F0FAF900F080F839
:1004F0006B46184604F06FFE374B1A6813465B00D4
:1005000013445B001A464FF47A7393FBF2F3334AB9
:1005100013606B46184604F0FDFD314804F0FAFD07
:1005200000F066F800F06CF86B46184604F032FEF6
:1005300007EE100AF1EE047AB4EEE77AF1EE10FA63
:10054000ACBF01230023DBB2002BEBD0254B1B6893
:1005500007EE903AB8EEE78A6B46184604F04FFE75
:1005600007EE100AF1EE087A67EE277AC8EE277ACE
:10057000FDEEE77A17EE902A1B4B1A601A4B1B68A8
:100580000C481A491A4605F045F9164B00221A6024
:100590006B46184604F00EFEC4E7184625B0BDECC5
:1005A000028B5DF804FB00BF2D0800083404002016
:1005B00000040020CC050020F876000894010020FB
:1005C000ABAAAA2A0C770008F105000868020020EF
:1005D000B8020020080300208C0100203004002015
:1005E00010040020040400200804002030770008D4
:1005F000024B1B680133014A13607047040400205A
:1006000000B583B000F026F803468DF807309DF959
:1006100007200D4B1B785BB2D31A03F108020B4B7A
:1006200083FB0231D317C91A0B465B000B445B00F6
:10063000D11ACAB2064B1B6852B21046194600F0D6
:1006400037F803B05DF804FB00040020ABAAAA2A27
:100650009001002010B50A4804F068FB04460948E0
:1006600004F064FB03465B001C44074804F05EFB97
:1006700003469B002344054AD35C5BB2184610BD79
:1006800068020020B802002008030020B4770008A8
:1006900008B500204FF0000100F00AF84FF07E503E
:1006A00005F078F9FFF7D6FF0346184608BD00BFEE
:1006B00000B585B0034600918DF807309DF80730EE
:1006C00003F007033F4AD35C8DF80F309DF90F30DC
:1006D00003F00103002B03D13B480021FFF704FE88
:1006E0009DF90F3003F00203002B03D1374801219D
:1006F000FFF7FAFD9DF90F3003F00403002B03D13F
:1007000033480021FFF7F0FD9DF90F3003F0080397
:10071000002B03D12F480121FFF7E6FD9DF90F3093
:1007200003F01003002B03D12B480021FFF7DCFD61
:100730009DF90F3003F02003002B03D1274801213E
:10074000FFF7D2FD9DF80F3003F00103002B03D01B
:100750001D480121FFF7C8FD9DF80F3003F002038B
:10076000002B03D019480021FFF7BEFD9DF80F3084
:1007700003F00403002B03D015480121FFF7B4FD5B
:100780009DF80F3003F00803002B03D0114800211F
:10079000FFF7AAFD9DF80F3003F01003002B03D0E4
:1007A0000D480121FFF7A0FD9DF80F3003F0200355
:1007B000002B03D009480021FFF796FD05B05DF836
:1007C00004FB00BFAC77000858030020740300202E
:1007D00090030020AC030020C8030020E4030020A5
:1007E00008B50C480021FFF77FFD0B480121FFF7FA
:1007F0007BFD0A480021FFF777FD09480121FFF73B
:1008000073FD08480021FFF76FFD07480121FFF73E
:100810006BFD08BD580300207403002090030020E6
:10082000AC030020C8030020E403002000B585B01D
:100830006B4618460A494FF0FF3200F099F8019BC9
:100840000393039B1B781A46039B5B680548064984
:1008500004F0E0FF0248039900F09CF8E8E700BFCD
:100860008C040020CC0500208C77000800B585B0F2
:10087000034600918DF807300948002100F09AF8EE
:100880000390039B9DF807201A70039B009A5A60FF
:100890000348039900F09EF805B05DF804FB00BF23
:1008A0008C04002082B00190019B184602B0704772
:1008B00000B583B001900091009B002B05D10198F9
:1008C0000021102205F066FC04E06B4601981946F1
:1008D00000F090F8019B184603B05DF804FB00BFE0
:1008E00000B583B00190019BDB68002B04D0019B15
:1008F000DB689B6801989847019B184603B05DF838
:1009000004FB00BF00B583B00190019B1033184673
:100910000021502205F03EFC019B03F11002019BD7
:10092000C3F8EC20019B6033184600218C2205F0AF
:1009300031FC019B03F16002019BC3F8F020019B95
:1009400003F1EC02019BDA60019B10225A60019BCB
:1009500008229A60019B04331846002101F0CCF96B
:100960000246019B1A60019B184603B05DF804FB28
:1009700000B585B0039002910192029B1B68039A17
:1009800010461946019A01F00FFA039805B05DF878
:1009900004FB00BF00B583B001900091019B1B6870
:1009A0001846009901F0E0F90346184603B05DF8D7
:1009B00004FB00BF00B583B001900091019B1B6850
:1009C0001846009901F0BAF90346184603B05DF8DD
:1009D00004FB00BF00B583B001900091019B1B6830
:1009E0001846009901F0D6F90346184603B05DF8A1
:1009F00004FB00BF00B583B0019000910198002175
:100A0000102205F0C7FB019B04201946FFF786FC66
:100A10000346002B02D0009A12681A60019B024A1A
:100A2000DA6003B05DF804FBBC77000800B583B062
:100A30000190019B1B68984703B05DF804FB00BF61
:100A400000B583B001900091019B04201946FFF787
:100A500065FC0346002B02D0009A12681A6003B0AE
:100A60005DF804FB82B0019002B0704700B585B01C
:100A700003900291039B012B60D1029B4FF6FF7202
:100A800093425BD12F481321FFF7FAFB2E480C212C
:100A900004F01AF92C482D492D4A02F02BFE2D485E
:100AA000152104F011F92B482849294A02F022FEA9
:100AB0002948142104F008F927482449244A02F05F
:100AC00019FE26481721FFF7DBFB25481621FFF703
:100AD000D7FB24481021FFF7D3FB23481121FFF750
:100AE000CFFB22480821FFF7CBFB21480B21FFF762
:100AF000C7FB204804F06FFB1E481F49144A02F050
:100B0000F9FD1E4800214FF400620023FFF70EFCA0
:100B10001A481B490E4A02F0EDFD1A48FFF7F2FE93
:100B20004FF416530093184802210F22002304F0BB
:100B30008DFA15481549064A02F0DCFD05B05DF84E
:100B400004FB00BF4C020020680200203D4D00085D
:100B500088010020B802002008030020580300206C
:100B60007403002090030020AC030020C803002081
:100B7000E403002010040020F55000083404002095
:100B8000B90F00088C04002080050020910B00089C
:100B900000B583B00190019B114A1A60019B114A74
:100BA000DA64019B104A1A65019B64331846FFF70B
:100BB000A9FB019800F038F8019B4C33184604F06B
:100BC00017FE019B184604F0E3F90023002B02D026
:100BD000019802F0C3FD019B184603B05DF804FBC9
:100BE000207E0008407E00089C7E0008A0F14C009A
:100BF000FFF7CEBFA0F15000FFF7CABF00B583B02A
:100C000001900198FFF7C4FF019802F0A7FD019B36
:100C1000184603B05DF804FBA0F14C00EEE700BFFE
:100C2000A0F15000EAE700BF82B00190019B184696
:100C300002B0704708B501204FF6FF71FFF716FFAD
:100C400008BD00BF00B583B00190019B0833184672
:100C50000021102205F09EFA019B03F10802019B7E
:100C60005A60019B0433184600F01AFD0246019BAE
:100C70001A60019B1B68002B02D1044804F064FE3B
:100C8000019B184603B05DF804FB00BFC87700085D
:100C900000B583B001900091019B1B681846009934
:100CA00000F01EFD0346184603B05DF804FB00BFCC
:100CB00000B583B00190019B1B68184600F038FD19
:100CC0000346184603B05DF804FB00BF00B583B0CF
:100CD0000190019B1B68184600F092FD019B18468D
:100CE00003B05DF804FB00BF00B583B00190009134
:100CF000009BDB68002B05D0009BDB685B680198DC
:100D000000999847009BDA68019BDA60019B1846BE
:100D100003B05DF804FB00BF00B583B00190009103
:100D2000019A009B9A420ED00198FFF7D9FD019BD2
:100D300010201946FFF7F2FA0346002B03D018469D
:100D40000099FFF7D1FF019B184603B05DF804FB43
:100D500000B583B00190019BDB68002B05D10748EB
:100D600007494FF4047204F073FD019BDB681B68B4
:100D70000198984703B05DF804FB00BFF0770008C6
:100D8000F877000800B583B001900091019B08330B
:100D900018460021082205F0FDF9019B03F1080225
:100DA000019B5A60019B04331846009900F082FDB4
:100DB0000246019B1A60019B184603B05DF804FBD4
:100DC00000B583B00190019B1B68184600F094FDAC
:100DD0000346184603B05DF804FB00BF00B583B0BE
:100DE0000190019B1B68184600F09AFD019B184674
:100DF00003B05DF804FB00BF00B583B00190054B64
:100E00001B68002B03D0034B1B680198984703B065
:100E10005DF804FBE805002084B003900192009384
:100E20000B46ADF80A30039B00225A61009B002B51
:100E30000CBF01230023DAB2039B83F82C20039B11
:100E4000BDF80A209A83039B019A5A62039B009A79
:100E50009A6204B0704700BF00B585B00190009160
:100E6000019B403318464FF0FF31FFF711FF019B04
:100E70005B69002B06D0019B40331846FFF718FF33
:100E8000802368E0019B364A9A61019B9B6A002B94
:100E900018D1019B5B6A9B08B3F1FE5F01D89B00F0
:100EA00001E04FF0FF33184602F04CFC0246019B74
:100EB0009A62019B9B6A002B04D12A482A49562238
:100EC00004F0C6FC0023039309E0019B9A6A039B8C
:100ED0009B001344254A1A60039B01330393019B33
:100EE0005B6A9A08039B9A42EFD8019B0433184629
:100EF0000099FFF711FF019B18331846019900F084
:100F000059FC0246019B5A61019B5B69002B1CD175
:100F1000019B93F82C30002B0BD0019B9B6A002B7C
:100F200004D0019B9B6A184602F01AFC019B002228
:100F30009A62019B40331846FFF7BAFE019B30339B
:100F40001846FFF73DFF812305E0019B403318461B
:100F5000FFF7AEFE0023184605B05DF804FB00BFA6
:100F6000411000086C78000890780008A52E5AE21D
:100F700000B585B00190019B403318464FF0FF311A
:100F8000FFF786FE019B5B690393019B3033184694
:100F9000FFF716FF019B00225A61039800F00EFC38
:100FA0000290019B40331846FFF782FE029B1846D1
:100FB00005B05DF804FB00BF00B583B00190019B54
:100FC000174A1A600198FFF7D3FF019B93F82C3062
:100FD000002B0BD0019B9B6A002B04D0019B9B6ACA
:100FE000184602F0BDFB019B00229A62019B403330
:100FF0001846FFF76BFE019B30331846FFF7EEFEF5
:10100000019B04331846FFF76BFC0023002B02D032
:10101000019802F0A3FB019B184603B05DF804FBA6
:10102000F078000800B583B001900198FFF7C4FF85
:10103000019802F093FB019B184603B05DF804FB96
:1010400000B585B00190019B0393039B04331846C0
:1010500000F012F8039B403318464FF0FF31FFF7C2
:1010600017FE039B00225A61039B30331846FFF79B
:10107000A7FE05B05DF804FB00B583B001900198B0
:10108000FFF766FE03B05DF804FB00BF7047000089
:1010900008B5024B1B689847FBE700BF980100208A
:1010A000836A9B0804BF224B1B88F0B5056B08BF01
:1010B0009B0805EB8302540748BF043A4FF0807445
:1010C00002E91200A2F14006A2F14404A2F10C07C9
:1010D0004FF0000E44F804EFBC42F9D1C46942F865
:1010E000204CC278C662022A416320D0114A2A608D
:1010F0000F4A1268D2001AD5112B18D9A3F1100289
:101100005208511E304639B14FF0CC3440F8044CEF
:10111000013940F8084DF6E7D200C2F10802B318D1
:101120001A1F95423CBF4FF0CC3243F8042CF0BD5F
:10113000FC780008A52E5AE290F82520C36A0AB16F
:10114000603300E020331960704710B590F82540F7
:10115000C36A0CB1603300E0203383E8060010BDA1
:1011600008B50B4800F09CFA0A4B18600A4800F0DA
:1011700097FA0A4B18600A4800F092FA094B186077
:1011800004F06AFF00200146BDE8084002F0CCBB35
:1011900088790008BC0C00209C79000824060020F7
:1011A0000479000820060020FFF772BF10B504463E
:1011B00000F0F0F921460246BDE81040014804F075
:1011C000C3BB00BF20790008FFF716BE0449054ADB
:1011D000C1F1005303F53953D3601161704700BF6B
:1011E000041400209C01002000F0F6FBFFF7EEFF46
:1011F0000348002100F0DEFA00F052F9FEE700009B
:101200009C01002080F309887047EFF30980704744
:10121000684680F309885A480078C00714BF022046
:10122000032080F314887047DFF858C1EFF305837B
:101230001B0618BF6047EFF31483DB0708BF604746
:1012400000DF7047DFF840C1EFF305831B0618BFCE
:101250006047EFF31483DB0708BF604700DF704788
:10126000EFF30980816911F8021CE1BB90E80F10CF
:1012700010B5E047BDE81040EFF3098C8CE807009B
:10128000424B93E80600914208BF704741B91EF0F7
:10129000100F16D13E49086820F00100086010E0E8
:1012A0001EF0100F06BF2CED108A0120002081F8DF
:1012B00025002CE9F00FC1F82CC00CB401F06EFA37
:1012C0000CBC1A60D2F82CC0BCE8F00F92F82500D4
:1012D00000280EBF6FF0020E6FF0120EBCEC108AE9
:1012E0008CF30988704710B52A4A1268914209D8D0
:1012F000294C54F8214090E80F10A047EFF3098CD7
:101300008CE80F0010BD10B501F0D4F9BDE8104015
:101310001E4B93E80600914208BF7047EFF3098C1B
:101320001EF0100F06BF2CED108A0120002081F85E
:1013300025002CE9F00FC1F82CC00CB401F02EFAF6
:101340000CBC1A60D2F82CC0BCE8F00F92F8250053
:1013500000280EBF6FF0020E6FF0120EBCEC108A68
:101360008CF30988704710B501F0FAF9FFF7CEBF8A
:1013700010B501F0F3F901F0F3F9FFF7C7BF000072
:1013800008790008132300082D230008FC11002011
:1013900034EF00E000000000FCFFFFFF0B4A136881
:1013A00030B5002433B19D68A94203D31C46491BC4
:1013B0001B68F7E70360816013B19D68691A996043
:1013C0000CB1206030BD106030BD00BFB8110020EE
:1013D000C0B1431C11D00C4B984211D80B4B1B6869
:1013E0004FF47A715A1E01FB0020B0FBF3F34FF665
:1013F000FE70834206D898B270474FF6FF70704770
:101400004FF6FE70704700BF00093D00F8780008F5
:1014100038B1830704D10378002B18BF0020704730
:101420000020704738B50E4D2878B0B90D4C2368B0
:1014300093F8241001F028FA2368DA78FF2A03D100
:10144000DA6A203282F309886168064A09B982E8BB
:101450000A0001F0CBFB01232B70002038BD00BF38
:10146000B5110020FC110020014B1878704700BF17
:10147000B511002010B5EFF3108434B9EFF30584F3
:101480001CB9EFF31484E40702D4034B187810BDA1
:10149000DFF808C000DF10BDB51100206914000896
:1014A00010B588B0EFF31083002B32D1EFF3058332
:1014B0007BBBFFF7DFFF28B9184C246814B16468C0
:1014C00004B1A047EFF3148404F00304022C0CD001
:1014D000032C16D0012C1ED008AC84F30988104CC4
:1014E0002478E40705D5022404E00D4C2478E407B1
:1014F0000BD4032484F31488BFF34F8FBFF36F8F93
:1015000003E0074C2478E40705D4DFF818C000DFB7
:1015100002E0822000E0FF2008B010BDEC110020A6
:10152000087900082514000838B515460B46024610
:1015300008B9002038BD00680028FAD09488E11C62
:1015400089B20629F5D8D16809B1126900E00A46C6
:1015500024B2043444EA012101F0D4F90028E8D08F
:10156000094B0A4A013853F82040E36A5A63084B92
:101570001B6833B19B6823B1E07829469847E06344
:1015800000E0E563204638BD180C00200117000874
:10159000EC11002008B501F06FF918B10138024BC9
:1015A00053F8200008BD00BF180C002010B5FFF74D
:1015B0002FFF044670B1084B1B681BB1DB680BB1F1
:1015C000C06B9847E07801F0F1F9FF280CBF81204B
:1015D000002010BD802010BDEC110020830704D135
:1015E00028B1436901691B6803E0002300E003465A
:1015F000194618467047000010B504460846DFF843
:101600000CC000DF84E80300204610BDDD15000893
:1016100010B548B1046824B1237823B9204600F0FE
:101620009AFE204610BD002010BD70B510F00304D6
:1016300005460E4611D180B10378032B0DD1084623
:10164000FFF7C6FE0146284600F052FF012806D1EA
:10165000002E14BFC120812070BD802070BD2046A7
:1016600070BD820708B50AD148B10378032B06D1B3
:1016700000F0CEFEFF280CBF8120002008BD802096
:1016800008BD10B510F0030407D130B10378032B67
:1016900003D100F069FE204610BD802010BD00007F
:1016A00070B50546EFF3108494B9EFF305868EB953
:1016B000EFF31484E40706D4074C24781CB9BDE882
:1016C0007040FFF7A5BF2846DFF810C000DF70BDEF
:1016D000002070BD204670BDB51100201116000815
:1016E00010B5EFF3108434B9EFF305841CB9DFF8BB
:1016F0000CC000DF10BD822010BD00002B160008BA
:10170000084908B508684FF0FF31FFF7E9FFDFF837
:1017100018C000DF0446FFF757FD2046DFF80CC075
:1017200000DFFEE7B011002095150008AD15000898
:1017300010B5EFF3108434B9EFF305841CB9DFF86A
:101740000CC000DF10BD822010BD00006316000831
:101750002DE9F04180460F461646EFF31084F4B9A8
:10176000EFF30583E3B9EFF31483DB0706D40E4BE5
:101770001B781BB9BDE8F041FFF7D6BE0B4D4FF00B
:10178000FF312868FFF7ACFF404639463246DFF8A4
:1017900020C000DF04462868FFF7CAFF00E00024ED
:1017A0002046BDE8F08100BFB5110020B011002037
:1017B000291500080022FFF7CBBF000038B504460A
:1017C000EFF31083A3B9EFF305838BB90A4D4FF004
:1017D000FF312868FFF784FF2046FFF7F5FC20461D
:1017E000DFF818C000DF04462868FFF7A1FF00E01B
:1017F0008224204638BD00BFB0110020AD1500087E
:1018000010B5EFF3108434B9EFF305841CB9DFF899
:101810000CC000DF10BD822010BD00008316000840
:1018200010B568B1046844B1207840B9B1F5803F83
:1018300006DA204689B200F0BFFE204610BD002027
:1018400010BD10B510F003040CD158B10278022A73
:1018500008D142884FF6FF739A4205D000F0E0FEAF
:10186000204610BD802010BD812010BD10B510F0A5
:10187000030407D130B10378022B03D100F0A2FE9C
:10188000204610BD802010BD10B510F003040CD10F
:1018900058B10278022A08D142884FF6FF739A4263
:1018A00005D000F0D2FE204610BD802010BD812062
:1018B00010BD0000F0B506460D46EFF310849CB94C
:1018C000EFF3058797B9EFF31484E40706D4084CC7
:1018D00024781CB9BDE8F040FFF7A2BF3046294686
:1018E000DFF810C000DFF0BD0020F0BD2046F0BDE5
:1018F000B51100202118000830B50446EFF310851B
:1019000015B9EFF3058525B12046BDE83040FFF756
:10191000BBBFDFF808C000DF30BD0000431800087F
:1019200010B5EFF3108434B9EFF305841CB9DFF878
:101930000CC000DF10BD822010BD00006D18000833
:1019400010B5044660B1016859B1406860B10378D0
:101950004BB90431890089B200F05EFB606810BDAC
:1019600010BD084610BD002010BD000038B5114C58
:1019700023780BB901F0C0F80F4B25781B68FF22C4
:101980009A708DB929460D48FFF7DAFF0C4B2946AE
:1019900018602A460B48FFF7C7FD0B4B18600B4831
:1019A000FFF77EFE0A4B186001232370094B0020CD
:1019B000187038BDB4110020FC1100208C7900088B
:1019C000B80C00200C790008AC110020A0790008A8
:1019D000B0110020B511002010B5EFF3108474B9D8
:1019E000EFF305845CB9EFF31484E40703D4BDE896
:1019F0001040FFF7BBBFDFF80CC000DF10BD822036
:101A000010BD00006D19000870B50E46154604465D
:101A100088B10378012B0ED11046FFF7D9FC31466F
:101A20000246204600F006FB012806D1002D14BF17
:101A3000C120812070BD802070BD002070BD2DE9C7
:101A4000F04F0C4685B08046E8B10378012B1FD1DA
:101A50000846FFF7BDFC02A90246404600F036FBEF
:101A6000012806D10020002C0246034618BF402062
:101A700003E00020024603461020029904460D466A
:101A800016461F4608E0802405460646074603E042
:101A9000002580242E462F462046294632463B46C6
:101AA00005B0BDE8F08F70B50E461446054660B12E
:101AB0005AB90378012B08D100F05EFB38B12846F3
:101AC000314600F05DFB204670BD802070BD812056
:101AD00070BD0000114B70B51C681E46E4B1A368D0
:101AE000013BA360A268BAB90D4B25681868356040
:101AF0002146FFF7D8FF10B10420FFF757FB6379A9
:101B0000012B04D12046E168FFF748FC01E00123E6
:101B100023710DB12C46E5E770BD00BFB811002060
:101B2000B80C00207FB50446164601B112B18023DF
:101B3000236011E00B78012BF9D1084602A900F0CF
:101B400026FB042808BF102301AD14BF01960193A2
:101B500095E8070084E80700204604B070BD000047
:101B6000F0B506460D461446EFF3108717B9EFF3AC
:101B7000058737B1304629462246BDE8F040FFF7D9
:101B800092BFDFF808C000DFF0BD0000091A0008AE
:101B900038B504461546EFF3108010B9EFF3058011
:101BA00020B120462A46FFF7BDFF06E00846114651
:101BB000DFF80CC000DF84E80700204638BD0000D5
:101BC0003F1A00087FB50A4B03A819684FF0FF328F
:101BD000FFF7DEFF039B102BF5D101A80499FFF757
:101BE0000BFD019B002BEED002989847EBE700BF5E
:101BF000B80C002070B50546E0B10668DEB1436858
:101C0000DBB18068F0B104684068D8B1BCB122781B
:101C1000BAB9033323F0030206FB02F10C3100F0E2
:101C200053FB296804318900204689B200F0F4F999
:101C3000A86870BD70BD304670BD184670BD2046A6
:101C400070BD002070BD000038B50D46E8B10468D5
:101C50004068D0B1CCB102B1B9B900F05AFBA8B913
:101C60009DB162680A4B22B12046196800F0D6F88F
:101C700005E01B6863605A609C600323637028461C
:101C8000FFF7A6FB082100F0DDFD002038BD00BFF6
:101C9000FC110020F8B5144650B390E860003DB345
:101CA00036B3304600F042FB20BB6B680BB9002016
:101CB000F8BD6B78032BFAD134B12846314600F0D9
:101CC00085F900F0E5FCF2E7304600F022FB06461D
:101CD0000028ECD0284600F0B9F831460546FFF759
:101CE0002BFA284600F05EF9284600F087FDDEE773
:101CF0008020F8BD8620F8BDF0B506460D46EFF30E
:101D000010849CB9EFF3058797B9EFF31484E407C7
:101D100006D4084C24781CB9BDE8F040FFF76ABF30
:101D200030462946DFF810C000DFF0BD0020F0BDCE
:101D30002046F0BDB5110020F51B000830B5054662
:101D40000C46EFF3108212B9EFF3058232B1284648
:101D500021460122BDE83040FFF776BFDFF804C01E
:101D600000DF30BD491C000830B505460C46EFF3D6
:101D7000108212B9EFF3058232B1284621460122C2
:101D8000BDE83040FFF786BFDFF804C000DF30BD9C
:101D9000951C000820B129B100680022FFF7E0BEC1
:101DA000802070478620704710B5044609B980230B
:101DB00006E00968FFF7ECFE2368102B08BF20231C
:101DC0002360204610BD000010B5038B42781943F4
:101DD000062A04460183438B04D101EA03029A4296
:101DE00019D105E0052A16D111EA030213D0428366
:101DF00021EA03012183204600F0D4F80123204684
:101E000063700821628BFFF7A0F921460248BDE804
:101E1000104000F003B810BDBC11002030B50278AE
:101E20008C784368013AD2B22BB19D78A54202D397
:101E300018465B68F8E7022A4B60416003D803B19B
:101E40009960886030BD00238B6030BD02784368A4
:101E5000013A59684160022A4FF0000204D809B1E2
:101E600088605A609A6000E05A6018467047000027
:101E7000034B5A684260002282605860704700BF7E
:101E8000BC110020114BDA6810B50AB19A8A0CE037
:101E900000248A1AC460D86003619A82848210BDCB
:101EA000002CF5D0A38A1A4423468A42DC68F7D373
:101EB000C460D860C468036104B12061521A92B250
:101EC0008282998A8A1A9A8210BD00BFD41100209A
:101ED00038B5194DEB68002B2CD0AB8A013BAB8297
:101EE000AA8A002A26D1144BDC681CB3A3683BB134
:101EF00061685960616809B18B6062600023A3600A
:101F00000E482146FFF78AFFA38AAB826378042B31
:101F100001BF0B4B1A68E38A9B1808BFA3820123F9
:101F20006370E368EB60002213B103491961E2605A
:101F30002261D5E738BD00BFD4110020BC110020BC
:101F400044120020836853B9084B3BB15A6882425F
:101F500002D142685A6070471346F6E770474268FC
:101F60005A60426802B19360704700BFBC11002004
:101F700038B58468054624B94378012B0ED1084C46
:101F800003E023780BB9A468FBE72846FFF7DAFFE4
:101F900020462946BDE83840FFF740BF38BD00BFA6
:101FA000BC110020036910B573B1C268DA60C26861
:101FB0003AB1998A848A2144998213610023C360CB
:101FC00000E09A820023036110BD000070B5114B40
:101FD000DD78EFF31086EFF3108272B69A78AA429A
:101FE00010D201329A701A78541CAC4208BF0024F7
:101FF0001C7006B962B6AA4206D203EBC20358604F
:10200000996070BD002EF5D00220BDE87040FFF74A
:10201000CDB800BF340C00200123103903708908AB
:102020000023437083704360038143818381C181B6
:1020300070470000F8B5466803460C4617468EB157
:102040004278012A0ED1FFF701FF102105462246F2
:10205000FFF77BF82846FFF7A5FF284600F0CEFBE8
:102060000020F8BD9989DD89A94214D14FB3164DDE
:1020700026B118462968FFF7D1FE05E029685960A6
:1020800002224E608B605A702B683846DC61082152
:1020900000F0D8FB15E01A89101D43F82040EFF33B
:1020A0001080EFF3108472B60131998100B962B6E5
:1020B000013292B2AA424FF0000014BF1A81188177
:1020C000F8BD0120F8BD00BFFC11002070B5858966
:1020D00004461646002D36D043891A1D013350F8A8
:1020E00022200A60C2899BB29A42438104BF002326
:1020F00043814368EBB14378022B1AD1FFF7A6FE68
:1021000000210546FFF718F82389E9691A1D0133F4
:1021100044F82210E2899BB29A42238108BF00232F
:10212000284608BF2381FFF73DFF284600F066FBE5
:102130001CE0EFF31080EFF3108372B6013DA58130
:10214000A0B962B670BD9AB142680A4B1AB119685B
:10215000FFF764FE05E01B6843605A609860012346
:1021600043703046082100F06DFB01E0002070BD97
:10217000012070BDFC110020C2898089101A7047AF
:1021800008B5FFF723FFBDE8084000F081BA838956
:1021900010B5044603B34389043350F823300B6071
:1021A0004378022B04D10021FFF710FF00F070FAF2
:1021B000EFF31083EFF3108272B6A289013AA28185
:1021C00003B962B66389E28901339BB29A426381A3
:1021D00004D10023638101E0184610BD042010BD26
:1021E000436870B504460E46002B4DD04578022D4D
:1021F0001CD0032D0AD0012D63D1FFF727FE044622
:1022000010213246FEF7A1FF657037E0084600F066
:1022100080F80546002854D02046FFF717FE2946CF
:102220000446FEF789FF0123637027E0FFF70EFEE7
:1022300000210546FEF780FF2389E9691A1D44F84D
:102240002210EFF31082EFF3108172B6A1890131F1
:10225000A18102B962B6E28901339BB29A4223811D
:1022600004BF00232381012328466B70FFF79AFEE9
:1022700014482946BDE87040FFF7D0BD2046FFF75F
:1022800091FE10482146F5E78189C089814213D229
:1022900023891A1D44F82260EFF31082EFF31085B2
:1022A00072B60131A18102B962B601339BB2834299
:1022B00008BF0023238170BD0320BDE87040FEF7F6
:1022C00075BF70BDBC110020002ABBBF22F00042C8
:1022D0000732033222F00702A8BF22F0030210B532
:1022E000B4BF10230C2392B19C188C420FD8014428
:1022F000034454424160036082602144981888423C
:1023000002D800510346F9E70020186010BD0120F3
:1023100010BDEFF3108372B6026803F001030AB137
:102320001168016003B962B61046704781420346E6
:102330000DD3426891420AD2EFF3108072B61A6848
:102340000A6010F00100196003D162B670470120E5
:1023500070470020704703230370002343804360CD
:102360008360C36070470000438870B504461BB3A8
:102370008068036AA34203D1E368036206E0134660
:1023800023B1DA68A242FAD1E268DA6090F8243028
:10239000026A3AB1516819B189788B4238BF0B464D
:1023A000D268F6E782789A4206D08370164B1B6893
:1023B000984201D0FFF7DCFD656885B12046FFF744
:1023C00045FD00210546FEF7B7FE2846FFF7EAFD6A
:1023D00001236B700D482946FFF720FDECE70B4801
:1023E00043686BB1084E9A7831688B789A4207D966
:1023F000FFF714FD336801225A70284600F0FEF9F9
:102400000020207070BD00BFFC110020BC11002016
:102410002DE9F84343880546002B61D0324F81688F
:102420003A6891425CD1013B9BB2438013B10020DA
:10243000BDE8F8830B6A834203D1C3680B6206E0F0
:10244000134623B1DA68AA42FAD1EA68DA6091F851
:1024500024300C6A3CB162681AB19278934238BF5A
:102460001346E468F6E78B706A68DFF8808042B351
:102470002846FFF7EBFC21460646FEF75DFE304698
:10248000FFF790FD336AEB604FF001093968D8F827
:102490000430A5F80290AE608A789B7835629A4243
:1024A00001D3304619E04046FFF7B8FC40463146BC
:1024B000FFF7B4FC0C4B1B6883F8019086F8019081
:1024C0000AE0D8F8042092789A42B0D94046FFF743
:1024D000A5FC3B6801225A70204600F08FF9A6E760
:1024E000FF20BDE8F88300BFFC110020BC110020D4
:1024F000438870B504460E46144D2BB92A68826095
:10250000116AC160106203E0826829688A4203D1BF
:1025100001336380002070BDB6B18B789178994209
:1025200003D293708068FFF723FD626822B12046D2
:102530002968FFF773FC03E02B6863605A609C60B6
:102540003046092100F07EF9012070BDFC11002009
:10255000034B00221A60034A1268DA80704700BFFA
:10256000F01100208479000808B5104B10485A6813
:10257000104B196891421FBF1A60DA8802F1FF31CF
:1025800002681CBF52189A809A8803889A420BD11D
:10259000084B064800221A60FFF758FCBDE80840C7
:1025A00001460248FFF73ABC08BD00BFBC1100203D
:1025B00044120020F0110020022303700023436026
:1025C0004180704770B50446656885B12046FFF7C5
:1025D0003DFC00210546FEF7AFFD2846FFF7E2FC73
:1025E00001236B700C482946FFF718FCECE70A48FA
:1025F00043686BB1094E9A7831688B789A4207D953
:10260000FFF70CFC336801225A70284600F0F6F8F8
:102610000020207070BD00BFBC110020FC11002004
:10262000426810B562B1FFF711FC01210446FEF7C4
:1026300083FD2046FFF7B6FC204600F0DFF802E0FD
:10264000428801324280002010BD08B50021FFF70A
:10265000BDFCBDE8084000F01BB80000426810B5A2
:102660007AB1FFF7F3FB0446FFF79CFC0121617090
:102670002046FEF761FD21460448BDE81040FFF703
:10268000CDBB42880132428010BD00BFBC1100208A
:10269000054B1B7823B9054B4FF080521A607047E9
:1026A000034B01221A7070475906002004ED00E028
:1026B0005806002038B51A4B1A4D1868012343708C
:1026C000FFF7D6FB6C78AA78164B0AB303EBC4036A
:1026D000586802781AB91989FFF776FB07E0012AD2
:1026E00003D19968FFF77CFD01E0FFF7B7FFEB78B6
:1026F00001349C4208BF0024EFF31083EFF31082F3
:1027000072B6AA78013AAA70002BDCD162B6DAE779
:102710005C700548FFF79AFBBDE8384000F054B8FC
:10272000FC110020340C0020BC110020084B1A685A
:10273000084B1A6000225A60072243F8042C064A0C
:10274000136843F07F4313604FF0FF30704700BFC2
:102750009479000814E000E020ED00E070470000EC
:1027600008B50B4B186801234370FFF781FBFFF797
:10277000FBFE084A136801331360FFF7A9FBFFF75C
:10278000A9F90548FFF762FBBDE8084000F01CB856
:10279000FC11002044120020BC110020084B1B68D3
:1027A000DA78022A0AD01A6BDB6A9A4203D81268D6
:1027B000044B9A4202D00120FEF7F8BC704700BFDC
:1027C000FC110020A52E5AE2054B586002234370ED
:1027D000044B1B681BB11B690BB1C06B18477047DA
:1027E000FC110020EC11002008B50348FFF72EFB78
:1027F000BDE80840FFF7E8BFBC11002070B50446F3
:1028000018B9BDE87040FFF7EFBF0C4EA2783068F2
:1028100083789A424FF0010508D9FFF729FB336806
:102820005D702046BDE87040FFF7CEBF6570214661
:102830000348BDE87040FFF7F1BA00BFFC1100206B
:10284000BC11002038B50D46014680B14FF6FF732C
:102850009842074C02D02068FFF714FB2368054814
:102860005D70FFF7F3FABDE83840FFF7ADBF38BD44
:10287000FC110020BC110020024B186800B1C07888
:10288000704700BFFC11002010B598B9194B1B68A8
:10289000997083F82410184843689B788B4224D998
:1028A000144C2168FFF7BAFA236801225A70FFF727
:1028B0009BFF1AE0114B1B88984218D80138104B27
:1028C00053F820409CB10B4BA1701B6884F8241076
:1028D0009C42E0D02046FFF74BFB6378012B04D1EC
:1028E0000548FFF7B3FAFFF789FF002010BDFF206E
:1028F00010BD00BFFC110020BC11002000790008B1
:10290000180C00202DE9F04711F0FF0F0D4681460D
:10291000224816469A4608BF0135FFF7FAFC0446DE
:1029200010B90020BDE8F0871D4B06631B88280AFC
:10293000A06200214E1C9E42F3D81A4F07EB86027C
:10294000884652F8042C3146002AF3D1EDB2012317
:10295000E670C4F81CA0C4F838A022706370A5709B
:1029600084F824506260A260E26022612262A28246
:10297000E2822283628384F8252018B90A48FFF78F
:10298000C8FC206320464946FEF78AFB204647F8EC
:102990002840FFF733FF3046BDE8F087E00F002006
:1029A00000790008180C0020080A00202DE9F047E3
:1029B0004B4D18B12B68DB7898423BD12C68002333
:1029C0006370FEF722FCE062FFF7E8FE2B681C6AEA
:1029D000FCB16368BBB12046FFF738FA0021064618
:1029E0000127FEF7A9FB3046FFF7DCFA77703D4878
:1029F0003146FFF713FAE368326A6780A660E26047
:102A000034621C46E4E7E2686380A360E360144636
:102A1000DEE72A683449D3783448013B41F8234043
:102A2000116BFFF783FC296831480C63FFF77EFCCC
:102A30002C604CE02F4B1B8898424BD82A4B00F15E
:102A4000FF389A4653F82860002E43D03046FFF7EF
:102A500079FA3046FFF7A6FA346A14B36368D3B143
:102A60002046FFF7F3F9002107464FF00109FEF772
:102A700063FB3846FFF796FA87F801901948394604
:102A8000FFF7CCF9E3683A6AA4F80290A760E26025
:102A90003C621C46E1E7E2686380A360E3601446A1
:102AA000DBE74AF828401148316BFFF73FFC31461D
:102AB00034630F48FFF73AFC0A48296843689A785C
:102AC0008B789A4209D901234B70FFF7A7F9FFF7DA
:102AD0008BFE02E0FF20BDE8F0872046BDE8F087CE
:102AE000FC110020BC110020180C0020080A002056
:102AF000E00F00200079000838B52C4B1A8800231D
:102B0000934205D22A49002041F823000133F7E718
:102B1000284B29481988294C4022FFF7D5FB284B20
:102B200028481A88284B42F000421968FFF7CCFB6E
:102B3000264B1868264B08221988FFF7C5FBFF2390
:102B40000025E3701F48A562012363702570A570FE
:102B500084F824506560A560E56025612562A58242
:102B6000E5822583658384F82550FFF7D2FB194958
:102B700020632046FEF794FA174B04221A705D601A
:102B8000164B1A70DD601D619D82154B20461C603E
:102B900002236370FFF718FE124A134B12781D7060
:102BA0005D70DA70BDE83840FFF7D2BC00790008EC
:102BB000180C002002790008E00F00200412002009
:102BC000FC780008080A002080790008FC05002035
:102BD0007C790008A9110008BC110020D411002044
:102BE000FC11002098790008340C002008B51E4B19
:102BF0001A6842F47F021A601B681B0203F07F43CD
:102C0000DB43B3FA83F3194A19481268DBB2C3F104
:102C10000803C2F302229A4228BF531C6FF080714E
:102C2000026801FA03F303F07F4122F07F430B4374
:102C30000360FFF77BFD0F4B0028186012DB00F1EB
:102C4000604000F56440FF2202701A6853099B003F
:102C500003F1604303F5614302F01F02012101FA11
:102C600002F21A6008BD00BF20ED00E00CED00E0AC
:102C70001CED00E0F8110020DFF820D0002103E077
:102C8000074B5B58435004310648074B42189A42A1
:102C9000F6D301F053FFFDF7A5FAFEE70030002060
:102CA0005C8200088801002030020020FEE700005E
:102CB000354B5A69D20770B528D59868334E996854
:102CC000334D9A68334C3040B04201EA050104BFED
:102CD00001269E60A9422C4B02EA040204BF4FF475
:102CE00080759D60A24204BF4FF480349C60274BE6
:102CF000984205D0264B994202D0264B9A4205D1E4
:102D0000254B264A1B681068012198471E4CE26833
:102D10006369960707D09D0705D51F4B1F4A1B689F
:102D2000106800219847A169626963698C0709D519
:102D3000900507D5190405D5174B184A1B6810686C
:102D400005219847104A95695469526915F00405A0
:102D500004F4806408D03CB1120405D50E4B0F4A30
:102D60001B68106807219847074B5B6955B14CB148
:102D70001B0407D5084B094A1B6810680221BDE8EF
:102D80007040184770BD00BF00640040030000049D
:102D90000003000800000310600600205C0600200D
:102DA000FFF786BFFFF784BF7FB5052843D8DFE86C
:102DB00000F003121E2A4236214B5A6942F40032B7
:102DC0005A615B6903F400330193019B4FF090401B
:102DD00007B05DF804FB1A4B1A485A6942F4802286
:102DE0005A615B6903F480230293029BF0E7144B62
:102DF00015485A6942F400225A615B6903F40023C2
:102E00000393039BE4E70E4B10485A6942F4801287
:102E10005A615B6903F480130493049BD8E7084B61
:102E20000B485A6942F480025A615B6903F48003DB
:102E30000593059BCCE7074802F086FD0020C7E715
:102E4000001002400004004800080048000C004840
:102E500000140048347A0008431C10B5044604D11D
:102E600074220649064802F0F3FC2046002100F0D7
:102E70007FFD04F00F040120A04010BD557A00082A
:102E8000987A000870B504464B1C0E46218218D073
:102E9000C1F30310FFF788FF05463046FFF7DCFF5C
:102EA000238A084A656103F00F03206052F823303B
:102EB000A36105F11003636005F118032835A360D1
:102EC000E56070BD587C0008B0F9100000F0E8BD66
:102ED00010B58369446971B9216893FAA3F2B2FA13
:102EE00082F20320520000FA02F221EA020293FA6F
:102EF000A3F3226010BD226893FAA3F1B1FA81F125
:102F000093FAA3F30320490000FA01F1B3FA83F323
:102F100022EA01025B00012101FA03F3134323605B
:102F200010BD00004C22F0B54243184EDFF868C0D7
:102F3000131D3344074600244FF0010E16448C4203
:102F400005D139461248BDE8F04002F0FDBC3268B8
:102F50000EFA04F5154216D01A6BDCF814000EFABE
:102F600002F202420FD09D69CCF81420186850B1CB
:102F70002B691A42074B08BF02211B6818BF0121A9
:102F8000BDE8F040184701340433D8E76406002058
:102F9000D27A000878080020000401400621084683
:102FA000FFF7C0BF05210846FFF7BCBF0121042081
:102FB000FFF7B8BF01210320FFF7B4BF01210220B2
:102FC000FFF7B0BF01210846FFF7ACBF0121002089
:102FD000FFF7A8BF012910B518D11B4C838952B146
:102FE000A26803F00F0399401143A160836843F086
:102FF0000103836010BDA26803F00F03994022EA29
:103000000101A160836823F00103F2E70229F1D1F5
:103010000D4983895AB1CC6803F00F03012202FAEB
:1030200003F32343CB60836843F00203E1E7CA68FC
:1030300003F00F03012404FA03F322EA0303CB6035
:10304000836823F00203D4E700040140B0F90C3098
:1030500099B270B501F00F0606F00C0404F180443B
:1030600004F5803401F00301A56889000F228A402D
:10307000C3F3031325EA02058B402B43A3600F4BD8
:1030800001221968B240114319608468E50742BF04
:10309000996811439960A10742BFD9680A43DA6071
:1030A00090F90030002B08DB5909012203F01F03BF
:1030B00002FA03F3024A42F8213070BD00040140D5
:1030C00000E100E02DE9F04F92464A1C85B08046B1
:1030D0000C4664D0334A344F916941F0010191614B
:1030E000926902F001020392039A04F00F090C2284
:1030F00002FB0972C4F303105568062D47D8DFE8B8
:1031000005F0043A3C3E40424400284E0193FFF74C
:103110004BFE0C2101FB09F17A1857F801E0244F0E
:10312000A8F80C404C21694301247B5892F90820EF
:10313000C8F8045004FA0EF44FF0000B1C4388F852
:103140000020C8F808B07C50132101FB05E507EB0F
:103150008501019B4B60174BC861C3F800A0164B5B
:10316000C1F834909B681032404643F82260FFF764
:103170006DFF584610E0114EC8E7114EC6E7114EDC
:10318000C4E7114EC2E7114EC0E7114EBEE7114829
:1031900002F0DAFB4FF0FF3005B0BDE8F08F0846D3
:1031A000FAE700BF00100240FC7A0008CD2F0008AB
:1031B000640600207808002000ED00E0C52F00081C
:1031C000BD2F0008B52F0008AD2F0008A52F00085F
:1031D0009D2F0008AB7A00088389184A03F00F037B
:1031E000012110B501FA03F39468DB431C4094609D
:1031F000D4681C40D46014682340136090F90030F8
:10320000002B0CDB5A0903F01F0301FA03F32032F1
:103210000B4941F82230BFF34F8FBFF36F8F90F906
:103220000030002B09DB5A09012103F01F0301FACA
:1032300003F36032024941F8223010BD000401401E
:1032400000E100E0838903F00F020C235343104A8E
:1032500070B54468D658FFF7BFFF4C210D4A614353
:10326000012000FA06F55058132303FB046320EAFB
:103270000500505002EB830000214160981D0C3383
:1032800002EB800002EB83034160596070BD00BF18
:10329000FC7A00086406002070B5134C23681A6994
:1032A000950707D5DA68900704D56FF002021A6116
:1032B00001F0F8FF23681A69510713D5DA6852073D
:1032C00010D56FF00402094E1A615D6A3368EB1A7B
:1032D000B3F57A7F06D300F035FE236805F57A72E0
:1032E0009A63356070BD00BFC01300207C080020C9
:1032F00030B589B001A903A801F0DAF901F0A8F905
:10330000254B0190DA69254C42F00102DA61DA6955
:1033100002F001020292029A1A6942F001021A6155
:103320001A6922F001021A61069A4FF08043236065
:103330004FF0FF33E3601A4B002A2BD1B0FBF3F0C0
:1033400001380025606015482561A5606561A561AB
:1033500001F018FA134B144A9B681048C3F8B020C8
:10336000124B4FF080521A60294601F053FA0421A3
:103370000A4801F04FFA23680D4A596A1160126831
:1033800002F57A729A63DA68284642F00402DA603B
:1033900009B030BD4000D1E700100240C01300204A
:1033A00040420F0000ED00E09932000800E100E02B
:1033B0007C08002010B588B002F062FA132101A841
:1033C00001F095FE0424039B019A1A60962002F0F6
:1033D000EFFA049B019A1A60962002F0E9FA013C88
:1033E000F1D10424039B019A1A604FF4C87002F0D3
:1033F000DFFA049B019A1A604FF4C87002F0D8FA01
:10340000013CEFD1DEE7000070B50D46A0B00446E8
:1034100002F036FA2B4622468021684603F0D0FAA5
:10342000051E03DC02F058FA20B070BD094B1B6882
:1034300023B90F220221084800F0C0FB064E0024E9
:103440001DF804103046013400F050FDA542F7D1BC
:10345000E8E700BF90090020481200200FB407B52C
:1034600004A951F8040B0191FFF7CEFF03B05DF8FA
:1034700004EB04B0704708B501F0C2FB00F050FD4A
:1034800001F0B7FBBDE8084001F0BABB08B5084B36
:103490001B685BB9022107480F2200F08FFB4FF435
:1034A00016510448BDE8084000F02CBC08BD00BF20
:1034B0009009002048120020022810B501DC0020ED
:1034C00010BDC31E0B4A52F82300002142F82310FE
:1034D00030B902F0FFFA092303604FF0FF3010BD4E
:1034E00003685B699847041EE9DA02F0F3FA644264
:1034F0000460F2E7800800200228F8B50D46144663
:103500000EDC134B1B680BB9FFF7C0FF114E2F19D0
:10351000BD4210D015F8011B304600F0E7FCF7E77C
:1035200003380D4B53F8200038B902F0D3FA0923C1
:1035300003604FF0FF342046F8BD0368DB6898470E
:10354000041EF8DA02F0C6FA63420360F3E700BF34
:10355000900900204812002080080020022810B5A1
:103560000C460BDC104B1B680BB9FFF78FFF0F48A5
:1035700000F0A6FC20700124204610BD03380C4B3F
:1035800053F8200030B902F0A5FA092303604FF088
:10359000FF34F1E703689B689847041EECDA02F0F9
:1035A00099FA63420360E7E790090020481200207F
:1035B00080080020022810B516DD03380B4B53F8A5
:1035C00020402CB902F086FA09230360204610BD82
:1035D00023682046DB699847041EF7DA02F07AFA7E
:1035E000644204600024F1E70124EFE78008002032
:1035F000022810B506DC02F06DFA1D2303604FF0BF
:10360000FF3010BD03380A4B53F8200018B902F000
:1036100061FA0923F2E703681B699847041E04DA7C
:1036200002F058FA64420460E9E7204610BD00BF8A
:1036300080080020022838B50D4604DC4FF4005302
:103640004B60002038BD03380D4B53F8204034B98F
:1036500002F040FA092303604FF0FF3038BD2368C1
:103660002046DB699847002814BF4FF400534FF4FD
:1036700000436B60236820469B6A98472861E0E717
:103680008008002008B5012000F036F80C4A1368C5
:1036900010B51844EFF30881884205D3094B0C227A
:1036A0001A604FF0FF3010BD07490C6824B107497C
:1036B000096821448842F1D21060184610BD00BF4D
:1036C000B001002000140020880900208C0900208F
:1036D000074C08B523680546986802F009FB236883
:1036E000D86802F005FB0DB1FFF764FEFEE700BFEE
:1036F0001C0200200120704708B5FFF7E9FF0120F8
:103700007047002103F034B81FB504220C463A2359
:103710000DEB020101900DF109008DF8083002F067
:103720002EFD214602A802F0E1FB044638B10198C3
:103730000368DB69984710B12046FFF7E2FF204697
:1037400004B010BD10B502F0FBFC044610B90248ED
:1037500002F0FAF8204610BD207C000802F0F8BC08
:1037600002F0F6BC00487047187C0008034610B50C
:1037700053F8042B044602B9036022689A4204D02D
:103780005D220349034802F063F8206810BD00BFC2
:10379000BC7B0008047C000810B504460948FFF70C
:1037A000E5FF0023084A194652F82300A04208BF4B
:1037B00042F823100133402BF6D10248FFF7D6FF21
:1037C00010BD00BF80090020800800202DE9FF47C0
:1037D00089464049064603F09EF8044628B9FFF79B
:1037E00055FE204604B0BDE8F0873B49304603F063
:1037F00092F818B9FFF74AFE0124F2E7374930463C
:1038000003F089F818B9FFF741FE0224E9E73448CC
:10381000344DFFF7ABFF0024A84655F82470002F65
:1038200040D00134402CF8D102F054F91823036041
:103830002B48FFF79BFF0EE0314602A801F001FF85
:1038400002A801F042FF064640B902F043F91323F3
:10385000036045F824604FF0FF34C2E702A801F08E
:1038600022FF074602A81FB101F026FF01902BE0BE
:1038700001F010FF06460028E7D0036802A8D3F83D
:1038800008A001F0FCFE29F40043024601A93046DD
:10389000D0470646C0B102F01DF97642066045F8F1
:1038A0002470D8E74FF0FF330D4845F82430FFF778
:1038B0005DFF337801973A2BBED10422711C02A818
:1038C00002F05DFC029B0193019B48F82430033415
:1038D00087E700BF477C00084E7C00083F7C00085B
:1038E000800900208008002070470000074B08492D
:1038F0009A68084810B5043A52F8044F41F8044F4A
:103900008142F9D14FF000529A6010BD00ED00E005
:10391000FCFFFF1F8401002008B5FFF7E7FFFFF75A
:10392000AAFDFDF761FC08BD08B5FFF7DDFFBDE8A6
:103930000840FCF727BD30B5C36891FAA1F4B4FA8A
:1039400084F491FAA1F10325B1FA81F1640005FA3A
:1039500004F4490023EA040302FA01F11943C160A7
:1039600030BD012A02D0022A18BF0022FFF7E3BFB0
:103970002DE9F0410E46411C044604D13E22444943
:10398000444801F065FF04F00F08434BC4F30310F3
:1039900053F82850FFF708FA06F007070446826834
:1039A00095FAA5F3B3FA83F395FAA5F103205B002A
:1039B000B1FA81F100FA03F322EA03034A0000FAA4
:1039C00002F21343A36087425AD8DFE807F05E1D76
:1039D000021DB8F1070FC6F303203BD9626A2B0A18
:1039E00093FAA3F1B1FA81F193FAA3F34FF00F0E1A
:1039F000B3FA83F389000EFA01F19B0022EA010277
:103A000000FA03F3134363623B46226895FAA5F07C
:103A1000B0FA80F095FAA5F14FF0030EB1FA81F1FA
:103A200040000EFA00F0490022EA00028B40013FFC
:103A30001343012F236005D8636832074CBF2B4323
:103A4000AB436360C6F3011229462046BDE8F0414E
:103A5000FFF787BF226A95FAA5F3B3FA83F395FAC5
:103A6000A5F14FF00F0EB1FA81F19B000EFA03F3AE
:103A7000890022EA030200FA01F313432362C3E739
:103A800067220349054801F0E3FE0023BDE700BFBC
:103A9000987C0008987A0008587C0008D97C0008B7
:103AA000431C70B506460D4604D188221E491F48A6
:103AB00001F0CEFE06F00F021D4BC6F3031053F8C3
:103AC0002240FFF771F9066894FAA4F1B1FA81F384
:103AD00094FAA4F259000323B2FA82F28B403340E5
:103AE0005200D340013B012B05D8EB1E022B43684B
:103AF00009D823434360032D08D101222146BDE8A4
:103B00007040FFF72EBF23EA04034360012DF4D079
:103B1000052D01D0022D01D10222EFE7214600221E
:103B2000BDE87040FFF707BF987C0008987A00084E
:103B3000587C00080FB407B5064B07491B6805AA57
:103B4000D868019202F05EFC03B05DF804EB04B0AB
:103B5000704700BF1C020020DB7C00084368164948
:103B600070225A4310B404685450531882685A6043
:103B7000C2689A600269DA6042691A61C2699A6130
:103B80000022A3F85220DA61A3F85020A3F85A20AB
:103B9000A3F85820B0F91A20013206D108225A6140
:103BA00018465DF8044B00F096BFB0F918200132BA
:103BB0000CBF04220C22F2E76C120020F0B50E4676
:103BC00085B0044645493046154601F057FB444947
:103BD0000746284601F052FB0146384601F030FB0B
:103BE0002060013004D134223E493F4801F030FECC
:103BF00023683E4A934242D13D4BDA6842F4804208
:103C0000DA60DA6822F48042DA609A6942F480422B
:103C10009A619B6903F480430193019B00236360D5
:103C20002E49304601F0EEFA2D49284601F0EAFA15
:103C3000721C03D001213046FFF732FF6B1C03D00A
:103C400001212846FFF72CFF4FF41653A3600023F1
:103C5000E36023616361E361268365832046FFF7A8
:103C60007DFF2268234B9A4207D1234B2348012230
:103C70001A602146242202F082FA05B0F0BD1D4AE6
:103C8000934213D11A4B1A6942F400321A611A692D
:103C900022F400321A61DA6942F40032DA61DB6937
:103CA00003F400330293029B0123B8E7144A9342C2
:103CB000B6D10F4B1A6942F480221A611A6922F4B4
:103CC00080221A61DA6942F48022DA61DB6903F446
:103CD00080230393039B0223A1E700BFEC79000834
:103CE000A4790008057D00084A7D000800380140DD
:103CF00000100240004400409009002048120020BB
:103D00000048004010B581600C46FFF727FF28B13E
:103D100021460348BDE81040FFF70CBF10BD00BFAF
:103D2000DB7C0008426870235343054AD358DA69A4
:103D3000120744BF08221A62D869C0F340107047C6
:103D40006C120020426870235343034AD358D86949
:103D5000C0F3C010704700BF6C12002070B5174E42
:103D6000054656F82000002827D07023144C6B43DA
:103D7000E358DA69120606D5DB69190603D5114B3B
:103D800001211B68984770236B43E358DA69920658
:103D900008D5DB69980605D50A4B56F825001B683F
:103DA0000021984770235D436359DA69110704D5F0
:103DB000DA69120744BF08221A6270BD9809002010
:103DC0006C120020940900200020FFF7C7BF0120DB
:103DD000FFF7C4BF0220FFF7C1BF0000034B19600B
:103DE0004168034B43F82120704700BF940900202D
:103DF0009809002070B590E84800284883421AD1FD
:103E0000274C25237020274D70433AB309BB29580E
:103E10000A6842F020020A60234A03F11001926806
:103E200042F8214003F007025909012393401F4A39
:103E300042F8213070BD1E48834202D11D4C26231A
:103E4000E0E71D48834213BF00241C4C2723234670
:103E5000D8E729580A6842F08002DCE72A5839B9C5
:103E6000116821F0200111601268110607D570BD9C
:103E7000116821F080011160126892060DD45A0970
:103E8000012103F0070301FA03F32032074941F847
:103E90002230BFF34F8FBFF36F8F70BD00380140EA
:103EA000C93D00086C12002000ED00E000E100E0D8
:103EB00000440040CF3D000800480040D53D0008C8
:103EC00038B5456804462046FFF72CFF0028FAD095
:103ED0007023054AE1686B43D358988C09B9C0B286
:103EE00038BDC0F3080038BD6C12002070B54668BC
:103EF00005460C462846FFF725FF0028FAD0702318
:103F0000054AE9687343D35811B9E4B21C8570BD02
:103F1000C4F30804FAE700BF6C12002070470000E9
:103F2000074A08B5136843F010031360032000F03C
:103F300017F80F20FFF7DCF9FFF7F0FF002008BDAE
:103F400000200240024A136801331360704700BF2B
:103F5000BC130020014B1868704700BFBC13002041
:103F6000074AD36823F4E0631B041B0C43F0BF63D0
:103F7000000243F4003300F4E0600343D360704771
:103F800000ED00E00368DA072DE9F347054611D498
:103F90002B689B0700F188802B681C0700F1F880D4
:103FA0002B68580700F14181EA69002A40F0D78167
:103FB000002021E0BA4C636803F00C03042B07D007
:103FC000636803F00C03082B19D16368DF0316D56F
:103FD0004FF4003393FAA3F2216893FAA3F3B3FAF0
:103FE00083F303F01F03012202FA03F30B42CFD045
:103FF0006B68002BCCD1012002B0BDE8F0876A6865
:10400000B2F5803F25D1236843F480332360E36A0F
:10401000A96823F00F030B43E36252B3FFF79AFF43
:104020004FF400368046012796FAA6F3226896FAE6
:10403000A6F3B3FA83F303F01F0307FA03F3134263
:10404000A6D1FFF787FFA0EB08006428ECD9032076
:10405000D2E7236832B923F480332360236823F442
:104060008023D3E7B2F5A02FF5D143F4802323605A
:10407000C9E7FFF76FFF4FF400368046012796FA35
:10408000A6F3226896FAA6F3B3FA83F303F01F03AC
:1040900007FA03F313423FF47BAFFFF75BFFA0EB9C
:1040A00008006428EBD9D2E77D4C636813F00C0F4D
:1040B00007D0636803F00C03082B21D16368DE038B
:1040C0001ED4022393FAA3F2216893FAA3F3B3FA5E
:1040D00083F303F01F03012202FA03F30B4202D021
:1040E0002B69934287D12168F82393FAA3F3B3FA9B
:1040F00083F26B69934021F0F802134323604BE78E
:104100002A6901260AB396FAA6F3B3FA83F303F1F8
:10411000845303F584139B0002271E60FFF71AFFE8
:10412000804697FAA7F3226897FAA7F3B3FA83F3C6
:1041300003F01F0306FA03F31342D4D1FFF70AFF7B
:10414000A0EB08000228ECD981E796FAA6F3B3FAAF
:1041500083F303F1845303F584139B0002271A6051
:10416000FFF7F8FE804697FAA7F3226897FAA7F3BD
:10417000B3FA83F303F01F0306FA03F313423FF489
:104180000BAFFFF7E7FEA0EB08000228EBD95EE7D4
:10419000AA69434E434901241AB394FAA4F3B3FA2B
:1041A00083F30B449B0002271C60FFF7D3FE80467D
:1041B00097FAA7F397FAA7F397FAA7F3726A97FA11
:1041C000A7F3B3FA83F303F01F0304FA03F31342D4
:1041D0007FF4E6AEFFF7BEFEA0EB08000228E7D9A9
:1041E00035E794FAA4F3B3FA83F30B449B00022758
:1041F0001A60FFF7AFFE804697FAA7F397FAA7F386
:1042000097FAA7F3726A97FAA7F3B3FA83F303F066
:104210001F0304FA03F313423FF4C2AEFFF79AFE02
:10422000A0EB08000228E7D911E71D4CE369D9008B
:1042300034D4E36943F08053E361E36903F08053CE
:104240000193019B0126184F3B68DA052ED5EB68D8
:10425000012B3CD1236A43F001032362FFF77AFE6E
:1042600002278246B9464FF0010897FAA7F397FA5A
:10427000A7F3002B6BD0226A99FAA9F3B3FA83F360
:1042800003F01F0308FA03F3134257D0002E3FF444
:104290008BAEE36923F08053E36185E60026D2E725
:1042A0000010024020819010007000403B6843F4F1
:1042B00080733B60FFF74EFE80463B68DB05C6D44B
:1042C000FFF748FEA0EB08006428F6D9BFE63BBB29
:1042D000236A23F001032362236A23F00403236289
:1042E000FFF738FE02278246B9464FF0010897FAD9
:1042F000A7F397FAA7F373B3226A99FAA9F3B3FA6B
:1043000083F303F01F0308FA03F31342BED0FFF751
:1043100021FE41F28833A0EB0A009842E7D996E6E5
:10432000052B236A03D143F00403236292E723F0B1
:1043300001032362236A23F004038EE7FFF70AFEDA
:1043400041F28833A0EB0A0098428ED97FE697FAB3
:10435000A7F3626A90E797FAA7F3626ACDE7414C48
:10436000636803F00C03082B3FF445AE022A4FF0BC
:10437000807352D193FAA3F3B3FA83F303F1845316
:1043800003F584139B0000221A60FFF7E3FD4FF052
:1043900000778046012697FAA7F3226897FAA7F3D9
:1043A000B3FA83F303F01F0306FA03F313422DD18C
:1043B00062686B6A296A22F474120B4313436360C8
:1043C0004FF0807393FAA3F3B3FA83F303F18453AA
:1043D00003F584139B004FF000751E60FFF7BAFDD4
:1043E0000126074695FAA5F3226895FAA5F3B3FAD4
:1043F00083F303F01F0306FA03F313427FF4D8ADEF
:10440000FFF7A8FDC01B0228ECD920E6FFF7A2FDAC
:10441000A0EB08000228BED919E693FAA3F3B3FA79
:1044200083F303F1845303F584139B0000221A6085
:10443000FFF790FD4FF000750746012695FAA5F3AA
:10444000226895FAA5F3B3FA83F303F01F0306FA83
:1044500003F313423FF4ACADFFF77CFDC01B022811
:10446000ECD9F4E50010024010B5134C616801F07E
:104470000C03082B1ED14FF4701393FAA3F301F42D
:104480007012B3FA83F322FA03F30C4AD05CE36AA6
:104490000F2292FAA2F2B2FA82F203F00F03D34093
:1044A000074AD25CCB034ABF064B074BB3FBF2F380
:1044B000584310BD034810BD00100240667D00083F
:1044C000767D000800127A0000093D005C4A1368FE
:1044D00003F007038B422DE9F04106460D4630D329
:1044E000326891073AD4D20740D4554A136803F092
:1044F00007039D42C0F092803268524C12F0040FC4
:1045000040F09780130706D56368326923F460533F
:1045100043EAC2036360FFF7A7FF6368F02292FAE1
:10452000A2F2B2FA82F203F0F003D340464AD35C1F
:10453000D840464B18600F20FEF7DAFE0020BDE899
:10454000F081136823F007030B431360136803F033
:1045500007039942C4D00120BDE8F0813949B06811
:104560004B6823F0F00303434B60BCE77268354CA3
:10457000012A28D14FF4003393FAA3F1216893FA6A
:10458000A3F3B3FA83F303F01F0302FA03F30B421E
:10459000E1D0636823F003031A436260FFF7DAFC9B
:1045A0007368012B074641F288381FD1636803F016
:1045B0000C03042B99D0FFF7CDFCC01B4045F5D967
:1045C0000320BDE8F081022A0CBF4FF000730223E4
:1045D00093FAA3F1206893FAA3F3B3FA83F303F0F9
:1045E0001F03012101FA03F30342D1E7022B10D18B
:1045F000636803F00C03082B3FF477AFFFF7AAFCC6
:10460000C01B4045F4D9DBE7FFF7A4FCC01B4045C5
:10461000D6D8636813F00C0FF6D166E7136823F061
:1046200007032B431360136803F007039D4292D1E5
:1046300062E76368F16823F4E0630B43636061E75A
:1046400000200240001002408A7D0008B4010020D2
:10465000084B4FF4E0625B6892FAA2F2B2FA82F27F
:1046600003F4E063D340044AD35C044A1068D840A2
:10467000704700BF001002409A7D0008B40100207E
:10468000084B4FF460525B6892FAA2F2B2FA82F2DF
:1046900003F46053D340044AD35C044A1068D84002
:1046A000704700BF001002409A7D0008B40100204E
:1046B0000F2303600B4B5A6802F0030242605A68F2
:1046C00002F0F00282605A6802F4E062C2605B6845
:1046D000DB0803F4E0630361034B1B6803F007038B
:1046E0000B6070470010024000200240704700003D
:1046F000214A0368904210B505D0B0F1804F02D036
:104700001E4CA0420CD14C6823F07003904243EA47
:10471000040310D0B0F1804F0DD0184A90420AD057
:10472000174A904207D002F58062904203D002F50A
:104730008062904203D1CA6823F4407313434A69EC
:1047400023F08003134303608B68C3620B688362AA
:10475000094B98420BD003F5A053984207D003F5BC
:104760008063984203D003F58063984201D10B69BE
:1047700003630123436110BD002C0140000400408D
:104780000040014010B50446A0B190F83D3003F060
:10479000FF021BB980F83C20FFF7A8FF022384F832
:1047A0003D302068211DFFF7A3FF012384F83D3031
:1047B000002010BD012010BD036A10B501248C40FB
:1047C00023EA04030362036A8A401A43026210BDAB
:1047D00010B5044601220068FFF7EEFF23680C4A7B
:1047E00093420BD002F5A052934207D002F58062AB
:1047F000934203D002F58062934203D15A6C42F493
:1048000000425A641A6842F001021A60002010BD8A
:10481000002C0140FFF7DCBF7047000038B50446AC
:1048200005682169A368C26928680B4361690B4365
:104830004949134301400B432B606B68E168206AD0
:1048400023F440530B436B60A968A36921F43061E2
:1048500003430B43AB60414B9D4212D103F55843D8
:104860003F491B6B03F00303B2F5004FCB5C3BD118
:10487000082B36D8DFE803F00F2124352D353535E8
:104880003000384B9D4203D003F580639D425ED1DA
:10489000B2F5004F31D1FFF7DBFE61684A0802EB49
:1048A0004003B3FBF1F39BB2002023F00F02216819
:1048B000C3F342031343CB6038BDFFF7E1FEECE7DF
:1048C0006068430803F5740303F51053B3FBF0F37A
:1048D000E9E7FFF7C9FDE0E76068430803F58033C7
:1048E000F4E701200023E0E7082B33D8DFE803F0EA
:1048F00005101B32273232322A00FFF7A9FE636807
:1049000000EB5300B0FBF3F080B2E860002038BD4C
:10491000FFF7B6FE636800EB5300B0FBF3F00F4BFC
:1049200080B2D860F2E76268530803F5F40303F538
:104930009053B3FBF2F3094A9BB2D360E6E7FFF76B
:1049400093FDE7E76268530803F50043F1E7B2F52A
:10495000004FC6D0012038BDF369FFEF0038014099
:10496000867D000800440040436ADA0710B506D58A
:104970000168846A4A6822F4003222434A609C0734
:1049800006D50168C46A4A6822F4803222434A602C
:10499000590706D50168046B4A6822F48022224335
:1049A0004A601A0706D50168446B4A6822F400423F
:1049B00022434A60DC0606D50168846B8A6822F4CB
:1049C000805222438A60990606D50168C46B8A68C2
:1049D00022F4005222438A605A060FD50168046C03
:1049E0004A6822F480122243B4F5801F4A6005D140
:1049F0004A68446C22F4C00222434A601B0606D572
:104A00000268816C536823F400230B43536010BD8C
:104A10002DE9F041069D04460F461646984621684A
:104A2000CA6937EA02030CBF01220022B24202D057
:104A30000020BDE8F0816B1CF2D09DB923681A6894
:104A400022F4D0721A609A6822F001029A60202340
:104A500084F8693084F86A30002384F868300320D1
:104A6000BDE8F081FFF776FAA0EB08008542D6D2C8
:104A7000E4E773B504460026C666FFF76BFA2368C1
:104A80001B681A07054617D423681B685B070AD5FD
:104A90006FF07E43009300222B464FF480012046A6
:104AA000FFF7B6FFA0B92023002084F8693084F80E
:104AB000680084F86A300CE06FF07E430093324661
:104AC00003464FF400112046FFF7A2FF0028DBD079
:104AD000032002B070BD10B5044660B390F8693091
:104AE00003F0FF021BB980F86820FFF795FE2268EB
:104AF000242384F86930136823F0010313602046EF
:104B0000FFF78CFE012816D0636A13B12046FFF729
:104B10002BFF23685A6822F490425A609A6822F068
:104B20002A029A601A6842F0010220461A60BDE823
:104B30001040FFF79EBF012010BD00001549D1F8BD
:104B4000883043F47003C1F88830134B1A6842F080
:104B500001021A605868114A02405A601A6822F02D
:104B6000847222F480321A601A6822F480221A6059
:104B70005A6822F4FE025A60DA6A22F00F02DA6200
:104B8000186B074A02401A6300229A604FF00063D4
:104B90008B60704700ED00E0001002400CC07FF811
:104BA000CCFC00FF30B591B00323069301230A9398
:104BB000102300240B9302254FF4601306A80794DA
:104BC0000D950E940F93FFF7DDF980B90F23019334
:104BD00003904FF480630590294601A80295049341
:104BE000FFF774FCB0FA80F0400911B030BD2046E8
:104BF000FBE708B5FFF7D6FF00B9FEE708BD0000E8
:104C0000144A1549536803F00C03042B10B501D066
:104C1000082B0AD0114B0B605368114AC3F30313DE
:104C2000D25C0B68D3400B6010BD53685068C00362
:104C300049BFD06A0B48094C00F00F00C3F383430F
:104C400048BF013003F1020348BFB4FBF0F0434317
:104C5000E1E700BF00100240B401002000127A001A
:104C60008A7D000800093D0070474FF08043586A74
:104C700070470000054B1B68DA6822F00202DA6018
:104C80005863DA6842F00202DA607047C01300200D
:104C9000034B1A68536943F002035361704700BF26
:104CA000C0130020034B1A68D36823F00203D360BB
:104CB000704700BFC0130020024B1B686FF0020258
:104CC0001A617047C01300202DE9F0410546154BCD
:104CD00045F8043B04460F46102604F120081C2228
:104CE0000021284601F056FA32460021404601F0E4
:104CF00051FA3246002104F1300001F04BFA3246FD
:104D0000002104F1400001F045FA2346064A3946E5
:104D10004046FEF7D7F92846394600F0D5F9204637
:104D2000BDE8F081AC7D00080F4E000883681A686A
:104D300043681A4214BF01200020704710B5084B89
:104D4000044640F8203BFEF77DFA04F14000FBF7F3
:104D5000C7FD04F13000FBF7C3FD204610BD00BFC6
:104D6000AC7D000810B50446FFF7E8FF2046FEF7CB
:104D7000F5FC204610BDF0B50F4685B0044600F0A6
:104D80007FFDFD6804F13006203465B139463046B8
:104D9000FBF7C2FF012201212046FEF71BF900F0BC
:104DA0009BFD05B0F0BD10222946684601F0F2F9DE
:104DB00069463046FBF7B0FF6846FBF791FD2A468F
:104DC000E9E7F0B50F4685B0044600F059FDFD68EF
:104DD00004F14006203465B139463046FBF79CFFAC
:104DE000012202212046FEF7F5F800F075FD05B01E
:104DF000F0BD10222946684601F0CCF969463046DC
:104E0000FBF78AFF6846FBF76BFD2A46E9E70129B5
:104E100008B502D0022906D008BDC36B13B13030EB
:104E2000FBF796FF08BDC36C002BFBD04030F7E7C3
:104E300070477047090170B501F128050544EB681A
:104E400073B14418636B2BB94FF4047205490648DB
:104E500000F0FEFC636B28461B68BDE870401847F5
:104E600070BD00BFB47D0008F87D00080430FFF776
:104E700027B810B504300C46FFF738F8204610BDAF
:104E80002DE9FF4705469A46224B45F8043B044668
:104E90008846914604F1280724220021284601F083
:104EA00079F904F1380610220021384601F072F930
:104EB00010220021304601F06DF91022C4F848A0FC
:104EC0000021684601F066F969463846FBF724FF81
:104ED0006846FBF705FD10220021684601F05AF9EB
:104EE00069463046FBF718FF6846FBF7F9FC4A466F
:104EF00041462846FEF762FEA16C2846FEF702FFF7
:104F0000284622460449FEF769FF204604B0BDE862
:104F1000F08700BF087E0008354E00082DE9FF41EC
:104F20000646884656F8043B17461B6805463C0172
:104F3000984700F0A5FCD8F80C3028342C44ABB1CD
:104F4000E3680BB900F0B8F941462046FBF7E4FEF0
:104F5000012239463046FEF74DFF00F0BDFC2B68BC
:104F600028465B68984704B0BDE8F081E3680BB160
:104F700000F0BCF910220021684601F00BF96946E7
:104F80002046FBF7C9FE6846FBF7AAFC0022E0E7D3
:104F90007FB5164B0360044610220021684601F0DD
:104FA000F9F8002269462046FFF7B8FF6846FBF78C
:104FB00097FC10220021684601F0ECF801226946B6
:104FC0002046FFF7ABFF6846FBF78AFC14F1280682
:104FD00008D004F14805B54204D0103D2846FBF73F
:104FE0007FFCF8E7204604B070BD00BF087E0008D3
:104FF00010B50446FFF7CCFF2046FEF7AFFB204676
:1050000010BD03681B69184703689B69184703684C
:105010009B6A18474FF0FF30704711207047704768
:105020007047A0F14C00FFF7FBBFA0F14C00FFF769
:10503000F7BFFFF71BBFA0F14C00FFF7FABFFFF768
:1050400018BFA0F14C00FFF7FABF000038B50446C6
:105050001D46049BFFF714FF294604F14C0000F0A5
:105060009FFB054B03F10802226003F12802843301
:10507000E2642365204638BD187E000870B50E46F0
:1050800004461546FDF7FEFE013609D020460021F4
:10509000FDF71EFF29462046BDE87040FDF714BF0E
:1050A00070BD38B504460D4603685AB18268136076
:1050B00020460121FDF70CFF29462046BDE8384077
:1050C000FDF702BFC268F2E70022FFF7D7BF70B555
:1050D0000E4604461546FDF7D5FE013606D02A4693
:1050E00020460021BDE87040FFF7DBBF70BD002205
:1050F000FFF7EDBF10B5044600F0C2FB23681BB1FB
:10510000237F0BB100F0F2F80023236000F0E4FBF2
:10511000204610BD10B5044600F0B2FB236853B919
:10512000237F0BB100F0C8F8A06900F077FAC4E95A
:10513000020101232360BDE8104000F0CDBB38B56B
:10514000044600F09DFB236863B1A06900F066FA95
:10515000D4E90245041B61EB050500F0BDFB2046C8
:10516000294638BD00240025F7E770B5064600F053
:1051700087FB3046D6E90445FFF7E1FF24184D418F
:1051800000F0AAFB2046294670BD08B5FFF7EDFFE9
:1051900008BD000008B5FFF7F8FF07EE900AB8EE6B
:1051A000E77ADFED037AC7EE276A16EE900A08BDAC
:1051B0000024744910B5044600F062FBA06900F0B9
:1051C0002DFA00220023C4E90201C4E90423BDE84A
:1051D000104000F081BB002310B5002203600023C3
:1051E000C0E90223C0E90423044600F057F8012374
:1051F000A06123772046FFF7DDFF204610BDFFF7B3
:10520000C9BF000010B5044601300DD110BD9C424D
:1052100009D120468968FEF7ABFB20460021BDE896
:105220001040FEF73DBC0C31B1F900305A1CEED1F4
:105230000248BDE8104000F087BB00BFD57E0008E3
:10524000884208B508D0431C06D0013106D0044876
:1052500000F07AFB4FF0FF31084608BD0146FBE73E
:10526000A47E0008B1F900305A1C01D118467047DD
:10527000834201D1486870470C31F3E7421C10B5F6
:10528000044607D0FFF7EEFF431C044602D1024854
:1052900000F05AFB204610BDB57E0008004870475C
:1052A000E87E0008024B1B680BB1024818477047A4
:1052B000B8010020E87E000808B500F0E1FA094BCB
:1052C0001A884FF6FF739A4204D100F005FB064896
:1052D00000F03AFB0121034800F01CFBBDE8084048
:1052E00000F0FABAE80900200C7F000808B500F0C9
:1052F000C7FA084B1B8823B900F0EEFA064800F005
:1053000023FB0121034800F012FBBDE8084000F038
:10531000E3BA00BFE8090020397F00082DE9F34710
:1053200090E8080404465B68984763681B6A9842E3
:1053300035D0DAF82040DAF80C30DAF80820CAF86C
:105340002000041B1C402E4B9A4226464FF00007BB
:105350001FD0DAE90A01B2F5004FA4FB0345CDE9FD
:10536000000127D1DDE9002347F6FF70E60B00219D
:105370000440121946EA45464FEAD53705EA0105C9
:105380006B41994208BF904214461D460AD3CAE9B0
:105390000A45DAE90C23B6185F41CAE90C6702B086
:1053A000BDE8F087013647F10007B2F5004443F14C
:1053B000FF35ECE74FF000094B4620462946904662
:1053C00001F0E0FD424606460F464B462046294680
:1053D00001F0D8FDDDE9000180185941494508BFB9
:1053E000404502460B4602D2CAE90A23D1E70136FC
:1053F00047F10007B0EB080261EB0903F4E700BFD7
:1054000040420F00824206D98A420BD9884294BF9B
:10541000002001207047884206D98A428CBF0020B4
:105420000120704701207047002070472DE9F047A8
:105430008046D0F80490FFF771FFD8F80450D8F8F0
:1054400000A0696800294AD0D5E90C23D1E900679A
:10545000BB4208BFB24204D3DAF81430BDE8F047CB
:105460001847B61A67EB0307D5E90623BB4208BF06
:10547000B2422C6906D3AB68204A934219D1B44298
:1054800028BF34462A6ADAF810301444EA68144017
:1054900020469847D8F800305B6898472246014676
:1054A000D9F82000FFF7AEFF30B3D8F800305B69C1
:1054B000D4E7B3F5004F0BD1F903104A0023F003F2
:1054C00041EA564101F05EFD844228BF0446D9E717
:1054D000A3FB060103FB0711084A0023F2E7D9F8F2
:1054E0001030D9F82000D9F80C2018441040DAF810
:1054F0001030BDE8F0471847BDE8F08740420F0084
:1055000003682DE9F74F04461B68984723689B6999
:105510009847D0F800B00546BBF1000F06D129220C
:105520002A492B48DFF8ACB000F092F9D5F804A076
:10553000AAF104031C2B06D92F222449244800F089
:1055400087F94FF0200AAAF1040307251BF1FF3069
:1055500005FA03F51F4E4FF0000343F1FF315A46A1
:10556000C6FB050101F00EFDD4F804800023C8F845
:105570000030C8F8043023685B680F460646984739
:105580006368C8F820004FF000094FF00008C3E935
:105590000A89C3F808B0524601200021019301F0A6
:1055A000E5FC019B01220138D8601D612046C3E95A
:1055B0000667C3E90C8983F83820FFF7AFFE204661
:1055C00003B0BDE8F04FFFF731BF00BF5F7F0008B9
:1055D000D97C000840420F00036870B5DB680446C0
:1055E000984763685B68A3B12046FFF797FE65683C
:1055F0006E68D5E90C01D6E90023994208BF9042B4
:1056000007D3F3686B602B68002BEAD0B06898472B
:10561000E7E72046BDE87040FFF708BF436893F80E
:10562000383010B504460BB9FFF76AFF2046FFF784
:1056300075FE6368D3E90C0110BD08B5FFF7EEFFF6
:1056400008BD10B50023036043600A782F2A044682
:105650000DD14A785AB1481C2060194623681A783F
:105660002F2A06D10133236000F0F8F9606020464C
:1056700010BD002AF8D0013301312360EEE7006845
:105680007047406808B520B100F097F9431E5842B2
:10569000584108BD10B50446FFF7F3FF10B160682C
:1056A00000B1043810BD406808B520B100F085F99C
:1056B000B0FA80F0400908BD10B50446FFF7F3FFCB
:1056C00010B1606800B1043810BD4068003018BFE8
:1056D00001207047002070470020704703680122B6
:1056E0001B6900211847036800221B6911461847EF
:1056F00070477047F8B50368DB6C0E4604468F1898
:1057000098473546BD4207D0236815F8011B5B6CEE
:10571000204698470130F5D1236820461B6D9847F5
:10572000A81BF8BDF8B50368DB6C0E4604468F185D
:1057300098473546BD4208D0236820469B6C984761
:10574000431C02D005F8010BF4E7236820461B6DCB
:105750009847A81BF8BD002070477047002070478D
:105760000020704710B5054B03604C33044640F8E9
:10577000043F00F043F9204610BD00BFA47F00089D
:10578000A0F10400EEE700BF10B50446FFF7EAFF02
:105790002046FDF7E3FF204610BDA0F10400F3E72B
:1057A0000F4B10B50022044640F8043B00F008F906
:1057B0000C4B23605C336360002363610A4920461D
:1057C00000F085F9606118B1FDF79BFF204610BD20
:1057D00000F080F90168054800F0B6F8F6E700BF70
:1057E0004C81000824800008F87F0008FB7F000837
:1057F00010B5074B03F108026433044602604360AE
:10580000406900F0BFF92046FFF7ACFF204610BD0D
:105810001C8000080EB477B5036807AD044655F840
:10582000046BDB6C98476069019500F061FA019A9E
:105830006069314600F0E6FD236805461B6D204691
:105840009847284603B0BDE8704003B07047000099
:1058500070B504460D46164600F012F833462A4647
:1058600021460348FDF7FAFDBDE87040FDF7A2BDF3
:1058700088800008EFF31080C04300F001007047FB
:1058800038B5FFF7F7FF054672B60E4C236823B90B
:1058900080F001030C4ADBB213702368013304D19A
:1058A00043220A490A48FFF7D3FF23682BB125B1E9
:1058B000472206490748FFF7CBFF236801332360DF
:1058C00038BD00BFEC090020EA090020B9800008BB
:1058D000F78000081D81000810B50A4C236883B1C9
:1058E000FFF7C8FF20B1582207490848FFF7B0FF6B
:1058F0002368013B236023681BB9054B1B7803B960
:1059000062B610BDEC090020B98000081D810008B6
:10591000EA09002038B505460C46FFF7B1FF298893
:105920000C44A4B22C80FFF7D7FF204638BD70B5D9
:1059300005460E46FFF7A4FF2C88A41BA4B22C80BA
:10594000FFF7CAFF204670BD0FB413B5084B1A7895
:105950004AB9012405A904981C700191FDF754FD72
:105960002046FDF7C9FE02B0BDE8104004B0704704
:10597000F009002070B50446FFF790FC0646FFF7DB
:105980005CFE05463046FFF758FE401BA042F9D3A7
:1059900070BD000007EE100ADFED047A67EE277A8B
:1059A000FDEEE77A17EE900AFFF7E4BF0024744992
:1059B0004FF47A735843FFF7DDBF007B7047000058
:1059C00038B504460A4B0360002343600D46A160CE
:1059D00002730848FDF7CAFE45B1074B1A686260BA
:1059E0001C600448FDF7C2FE204638BD6560F8E73C
:1059F0003C810008F8090020F409002010B50F4B85
:105A0000036004460E48FDF7B1FEA3682BB10D4AB2
:105A100013689C420CD1636813600948FDF7A6FE29
:105A2000237B13B9201FFDF7B7FE204610BD134698
:105A30005A689442FBD162685A60EEE73C810008E4
:105A4000F8090020F409002010B50446FFF7D6FF3E
:105A50002046FDF783FE204610BD000070B50646C7
:105A60000C480D46FDF782FE0B4B1C685CB1A0682C
:105A700070B12A46314600F060FF48B9A06800F0D6
:105A800054FF854204D10348FDF770FE204670BDE7
:105A90006468EBE7F8090020F4090020036870B59A
:105AA0001B690122002104469847051E0DDB23686F
:105AB00002221B6900212046984723680646294692
:105AC0001B690022204698473546284670BDFDF7E1
:105AD0001BBE0000014B1868704700BF1C0200206D
